{
	"data": {
		"bytecode": {
			"linkReferences": {},
			"object": "60806040523480156200001157600080fd5b5060405162003f8138038062003f81833981016040819052620000349162000424565b8383620000413362000114565b815162000056906003906020850190620002b1565b5080516200006c906004906020840190620002b1565b5050600d805460ff191690555081516200008e90600f906020850190620002b1565b508051620000a4906010906020840190620002b1565b50620000b260003362000164565b620000de7f9f2df0fed2c77648de5860a4cc508cd0818c85b8b8a1ab4ceeef8d981c8956a63362000164565b6200010a7f65d7a28e3265b37a6474929f336521b332c1681b933f6cb9f3376673440d862a3362000164565b5050505062000519565b600080546001600160a01b038381166001600160a01b0319831681178455604051919092169283917f8be0079c531659141344cd1fd0a4f28419497f9722a3daafe3b4186f6b6457e09190a35050565b6200017b8282620001a760201b62001aaa1760201c565b6000828152600260209081526040909120620001a291839062001ab4620001b7821b17901c565b505050565b620001b38282620001d7565b5050565b6000620001ce836001600160a01b0384166200025f565b90505b92915050565b60008281526001602090815260408083206001600160a01b038516845290915290205460ff16620001b35760008281526001602081815260408084206001600160a01b0386168086529252808420805460ff19169093179092559051339285917f2f8788117e7eff1d82e926ec794901d17c78024a50270940304540a733656f0d9190a45050565b6000818152600183016020526040812054620002a857508154600181810184556000848152602080822090930184905584548482528286019093526040902091909155620001d1565b506000620001d1565b828054620002bf90620004dd565b90600052602060002090601f016020900481019282620002e357600085556200032e565b82601f10620002fe57805160ff19168380011785556200032e565b828001600101855582156200032e579182015b828111156200032e57825182559160200191906001019062000311565b506200033c92915062000340565b5090565b5b808211156200033c576000815560010162000341565b634e487b7160e01b600052604160045260246000fd5b600082601f8301126200037f57600080fd5b81516001600160401b03808211156200039c576200039c62000357565b604051601f8301601f19908116603f01168101908282118183101715620003c757620003c762000357565b81604052838152602092508683858801011115620003e457600080fd5b600091505b83821015620004085785820183015181830184015290820190620003e9565b838211156200041a5760008385830101525b9695505050505050565b600080600080608085870312156200043b57600080fd5b84516001600160401b03808211156200045357600080fd5b62000461888389016200036d565b955060208701519150808211156200047857600080fd5b62000486888389016200036d565b945060408701519150808211156200049d57600080fd5b620004ab888389016200036d565b93506060870151915080821115620004c257600080fd5b50620004d1878288016200036d565b91505092959194509250565b600181811c90821680620004f257607f821691505b6020821081036200051357634e487b7160e01b600052602260045260246000fd5b50919050565b613a5880620005296000396000f3fe608060405234801561001057600080fd5b50600436106102f15760003560e01c8063715018a61161019d578063bdc32be0116100e9578063dcf7a9c8116100a2578063e985e9c51161007c578063e985e9c5146106e9578063f2fde38b14610725578063fbd420c714610738578063fc1901ba1461074b57600080fd5b8063dcf7a9c8146106a7578063e63ab1e9146106ba578063e8a3d485146106e157600080fd5b8063bdc32be01461062c578063c87b56dd14610634578063ca15c87314610647578063cb4799f21461065a578063d53913931461066d578063d547741f1461069457600080fd5b806395d89b4111610156578063b68e6fea11610130578063b68e6fea146105e0578063b705bc2d146105f3578063b88d4fde14610606578063bb32520b1461061957600080fd5b806395d89b41146105bd578063a217fddf146105c5578063a22cb465146105cd57600080fd5b8063715018a6146105635780638441ad791461056b5780638456cb591461057e5780638da5cb5b146105865780639010d07c1461059757806391d14854146105aa57600080fd5b806336568abe1161025c57806359f9f50f116102155780636768f0b6116101ef5780636768f0b6146105075780636a8a68941461051a57806370a0823114610548578063710db4241461055b57600080fd5b806359f9f50f146104d65780635c975abb146104e95780636352211e146104f457600080fd5b806336568abe1461046f5780633f4ba83a1461048257806340c10f191461048a57806342842e0e1461049d57806342966c68146104b05780634f6ccce7146104c357600080fd5b806318160ddd116102ae57806318160ddd146103f757806323b872dd146103ff578063248a9ca3146104125780632f2ff15d146104365780632f745c591461044957806336532aad1461045c57600080fd5b806301ffc9a7146102f65780630597c0001461031e57806306fdde031461038f578063081812fc146103a4578063095ea7b3146103cf57806314d73ad5146103e4575b600080fd5b610309610304366004613130565b61075e565b60405190151581526020015b60405180910390f35b61038161032c36600461314d565b604080517fb32f66244035bd5cf1f616dc1f3ff447faab442451485fb86aa359d24bf14ed560208083019190915281830194909452606080820193909352815180820390930183526080019052805191012090565b604051908152602001610315565b61039761076f565b60405161031591906131c7565b6103b76103b23660046131da565b610801565b6040516001600160a01b039091168152602001610315565b6103e26103dd36600461320f565b61089b565b005b6103816103f23660046132dc565b6109b0565b600b54610381565b6103e261040d366004613340565b610a05565b6103816104203660046131da565b6000908152600160208190526040909120015490565b6103e261044436600461337c565b610a37565b61038161045736600461320f565b610a59565b61039761046a3660046133a8565b610aef565b6103e261047d36600461337c565b610bb5565b6103e2610bd7565b6103e261049836600461320f565b610c7f565b6103e26104ab366004613340565b610ce3565b6103e26104be3660046131da565b610cfe565b6103816104d13660046131da565b610d78565b6103e26104e43660046133e5565b610e0b565b600d5460ff16610309565b6103b76105023660046131da565b610f23565b6103e2610515366004613452565b610f9a565b61030961052836600461320f565b600e60209081526000928352604080842090915290825290205460ff1681565b6103816105563660046134d0565b610ffb565b601154610381565b6103e2611082565b6103976105793660046134eb565b6110e6565b6103e261119e565b6000546001600160a01b03166103b7565b6103b76105a536600461314d565b611242565b6103096105b836600461337c565b611261565b61039761128c565b610381600081565b6103e26105db366004613520565b61129b565b6103e26105ee36600461355c565b61135f565b6103e26106013660046133e5565b6114ad565b6103e26106143660046135a2565b611722565b6103e26106273660046132dc565b611754565b610397611814565b6103976106423660046131da565b611823565b6103816106553660046131da565b6118fd565b6103976106683660046133a8565b611914565b6103817f9f2df0fed2c77648de5860a4cc508cd0818c85b8b8a1ab4ceeef8d981c8956a681565b6103e26106a236600461337c565b61192e565b6103976106b53660046131da565b611938565b6103817f65d7a28e3265b37a6474929f336521b332c1681b933f6cb9f3376673440d862a81565b61039761195f565b6103096106f73660046135fe565b6001600160a01b03918216600090815260086020908152604080832093909416825291909152205460ff1690565b6103e26107333660046134d0565b61196e565b6103816107463660046134eb565b611a36565b6103e26107593660046133a8565b611a5d565b600061076982611ac9565b92915050565b60606003805461077e90613628565b80601f01602080910402602001604051908101604052809291908181526020018280546107aa90613628565b80156107f75780601f106107cc576101008083540402835291602001916107f7565b820191906000526020600020905b8154815290600101906020018083116107da57829003601f168201915b5050505050905090565b6000818152600560205260408120546001600160a01b031661087f5760405162461bcd60e51b815260206004820152602c60248201527f4552433732313a20617070726f76656420717565727920666f72206e6f6e657860448201526b34b9ba32b73a103a37b5b2b760a11b60648201526084015b60405180910390fd5b506000908152600760205260409020546001600160a01b031690565b60006108a682610f23565b9050806001600160a01b0316836001600160a01b0316036109135760405162461bcd60e51b815260206004820152602160248201527f4552433732313a20617070726f76616c20746f2063757272656e74206f776e656044820152603960f91b6064820152608401610876565b336001600160a01b038216148061092f575061092f81336106f7565b6109a15760405162461bcd60e51b815260206004820152603860248201527f4552433732313a20617070726f76652063616c6c6572206973206e6f74206f7760448201527f6e6572206e6f7220617070726f76656420666f7220616c6c00000000000000006064820152608401610876565b6109ab8383611aee565b505050565b600060146109bd84611b5c565b6040516109ca9190613662565b90815260200160405180910390206109e183611b5c565b6040516109ee9190613662565b908152602001604051809103902054905092915050565b610a10335b82611bd6565b610a2c5760405162461bcd60e51b81526004016108769061367e565b6109ab838383611ccd565b610a418282611e78565b60008281526002602052604090206109ab9082611ab4565b6000610a6483610ffb565b8210610ac65760405162461bcd60e51b815260206004820152602b60248201527f455243373231456e756d657261626c653a206f776e657220696e646578206f7560448201526a74206f6620626f756e647360a81b6064820152608401610876565b506001600160a01b03919091166000908152600960209081526040808320938352929052205490565b6000828152601360205260409020606090610b0983611b5c565b604051610b169190613662565b90815260200160405180910390208054610b2f90613628565b80601f0160208091040260200160405190810160405280929190818152602001828054610b5b90613628565b8015610ba85780601f10610b7d57610100808354040283529160200191610ba8565b820191906000526020600020905b815481529060010190602001808311610b8b57829003601f168201915b5050505050905092915050565b610bbf8282611e9f565b60008281526002602052604090206109ab9082611f19565b610c017f65d7a28e3265b37a6474929f336521b332c1681b933f6cb9f3376673440d862a33611261565b610c75576040805162461bcd60e51b81526020600482015260248101919091527f4552433732315072657365744d696e7465725061757365724175746f49643a2060448201527f6d75737420686176652070617573657220726f6c6520746f20756e70617573656064820152608401610876565b610c7d611f2e565b565b610ca97f9f2df0fed2c77648de5860a4cc508cd0818c85b8b8a1ab4ceeef8d981c8956a633611261565b610cc55760405162461bcd60e51b8152600401610876906136cf565b610ccf8282611fc1565b806011541015610cdf5760118190555b5050565b6109ab83838360405180602001604052806000815250611722565b610d0733610a0a565b610d6c5760405162461bcd60e51b815260206004820152603060248201527f4552433732314275726e61626c653a2063616c6c6572206973206e6f74206f7760448201526f1b995c881b9bdc88185c1c1c9bdd995960821b6064820152608401610876565b610d758161210f565b50565b6000610d83600b5490565b8210610de65760405162461bcd60e51b815260206004820152602c60248201527f455243373231456e756d657261626c653a20676c6f62616c20696e646578206f60448201526b7574206f6620626f756e647360a01b6064820152608401610876565b600b8281548110610df957610df961372c565b90600052602060002001549050919050565b6000610e1683611b5c565b905060008411610e5c5760405162461bcd60e51b8152602060048201526011602482015270546f6b656e20494420697320656d70747960781b6044820152606401610876565b610e67600033611261565b610e835760405162461bcd60e51b815260040161087690613742565b816015600086815260200190815260200160002082604051610ea59190613662565b90815260200160405180910390209080519060200190610ec692919061308a565b5081604051610ed59190613662565b604051809103902081604051610eeb9190613662565b6040519081900381209086907fade921dd51e6a4eab3cf4d99d430fb0760e5b953386b6196ff7fd65f6d31b06590600090a450505050565b6000818152600560205260408120546001600160a01b0316806107695760405162461bcd60e51b815260206004820152602960248201527f4552433732313a206f776e657220717565727920666f72206e6f6e657869737460448201526832b73a103a37b5b2b760b91b6064820152608401610876565b610fc47f9f2df0fed2c77648de5860a4cc508cd0818c85b8b8a1ab4ceeef8d981c8956a633611261565b610fe05760405162461bcd60e51b8152600401610876906136cf565b610fea8484611fc1565b610ff58383836114ad565b50505050565b60006001600160a01b0382166110665760405162461bcd60e51b815260206004820152602a60248201527f4552433732313a2062616c616e636520717565727920666f7220746865207a65604482015269726f206164647265737360b01b6064820152608401610876565b506001600160a01b031660009081526006602052604090205490565b6000546001600160a01b031633146110dc5760405162461bcd60e51b815260206004820181905260248201527f4f776e61626c653a2063616c6c6572206973206e6f7420746865206f776e65726044820152606401610876565b610c7d60006121b6565b606060126110f383611b5c565b6040516111009190613662565b9081526020016040518091039020805461111990613628565b80601f016020809104026020016040519081016040528092919081815260200182805461114590613628565b80156111925780601f1061116757610100808354040283529160200191611192565b820191906000526020600020905b81548152906001019060200180831161117557829003601f168201915b50505050509050919050565b6111c87f65d7a28e3265b37a6474929f336521b332c1681b933f6cb9f3376673440d862a33611261565b61123a5760405162461bcd60e51b815260206004820152603e60248201527f4552433732315072657365744d696e7465725061757365724175746f49643a2060448201527f6d75737420686176652070617573657220726f6c6520746f20706175736500006064820152608401610876565b610c7d612206565b600082815260026020526040812061125a9083612281565b9392505050565b60009182526001602090815260408084206001600160a01b0393909316845291905290205460ff1690565b60606004805461077e90613628565b336001600160a01b038316036112f35760405162461bcd60e51b815260206004820152601960248201527f4552433732313a20617070726f766520746f2063616c6c6572000000000000006044820152606401610876565b3360008181526008602090815260408083206001600160a01b03871680855290835292819020805460ff191686151590811790915590519081529192917f17307eab39ab6107e8899845ad3d59bd9653f200f220920489ca2b5937696c31910160405180910390a35050565b600061136a84610f23565b6001600160a01b0381166000908152600e6020908152604080832087845290915290205490915060ff16156113fb5760405162461bcd60e51b815260206004820152603160248201527f455243373231436c61696d61626c653a2054686973206e6f6e63652068617320604482015270185b1c9958591e481899595b881d5cd959607a1b6064820152608401610876565b6114078183868661228d565b61146e5760405162461bcd60e51b815260206004820152603260248201527f455243373231436c61696d61626c653a20436c61696d546f6b656e207369676e604482015271185d1d5c99481a5cc81b9bdd081d985b1a5960721b6064820152608401610876565b6001600160a01b0381166000908152600e602090815260408083208684529091529020805460ff19166001179055610ff5816114a73390565b86611ccd565b60006114b883611b5c565b905060006114c583611b5c565b90506000851161150b5760405162461bcd60e51b8152602060048201526011602482015270546f6b656e20494420697320656d70747960781b6044820152606401610876565b600085815260136020526040908190209051611528908490613662565b9081526020016040518091039020805461154190613628565b1590508015611551575060008251115b61159d5760405162461bcd60e51b815260206004820152601d60248201527f45787465726e616c20494420697320616c7265616479207365742075700000006044820152606401610876565b6014826040516115ad9190613662565b9081526020016040518091039020816040516115c99190613662565b90815260200160405180910390205460001461161d5760405162461bcd60e51b815260206004820152601360248201527256616c7565206973206e6f7420756e6971756560681b6044820152606401610876565b611628600033611261565b6116445760405162461bcd60e51b815260040161087690613742565b8260136000878152602001908152602001600020836040516116669190613662565b9081526020016040518091039020908051906020019061168792919061308a565b50846014836040516116999190613662565b9081526020016040518091039020826040516116b59190613662565b908152604051908190036020018120919091556116d3908490613662565b6040518091039020826040516116e99190613662565b6040519081900381209087907f81e87b824090f08a616c9bfb3dc374ad3de0f2cae5f6e747ac3e1c81bd144e1990600090a45050505050565b61172c3383611bd6565b6117485760405162461bcd60e51b81526004016108769061367e565b610ff584848484612365565b600061175f83611b5c565b905061176c600033611261565b6117885760405162461bcd60e51b815260040161087690613742565b816012826040516117999190613662565b908152602001604051809103902090805190602001906117ba92919061308a565b50816040516117c99190613662565b6040518091039020816040516117df9190613662565b604051908190038120907fda203c13ce16cbaf7ee9a2a14f5088f006d4816bff66414e3b7e546408b141cf90600090a3505050565b6060600f805461077e90613628565b6000818152600560205260409020546060906001600160a01b03166118a25760405162461bcd60e51b815260206004820152602f60248201527f4552433732314d657461646174613a2055524920717565727920666f72206e6f60448201526e3732bc34b9ba32b73a103a37b5b2b760891b6064820152608401610876565b60006118ac611814565b905060008151116118cc576040518060200160405280600081525061125a565b806118d684612398565b6040516020016118e7929190613789565b6040516020818303038152906040529392505050565b600081815260026020526040812061076990612499565b6000828152601560205260409020606090610b0983611b5c565b610bbf82826124a3565b600081815260136020526040908190209051624e464360e81b815260609190600301611100565b60606010805461077e90613628565b6000546001600160a01b031633146119c85760405162461bcd60e51b815260206004820181905260248201527f4f776e61626c653a2063616c6c6572206973206e6f7420746865206f776e65726044820152606401610876565b6001600160a01b038116611a2d5760405162461bcd60e51b815260206004820152602660248201527f4f776e61626c653a206e6577206f776e657220697320746865207a65726f206160448201526564647265737360d01b6064820152608401610876565b610d75816121b6565b6000610769604051806040016040528060038152602001624e464360e81b815250836109b0565b611a68600033611261565b611a845760405162461bcd60e51b815260040161087690613742565b610cdf82604051806040016040528060038152602001624e464360e81b815250836114ad565b610cdf82826124ca565b600061125a836001600160a01b038416612535565b60006001600160e01b0319821663780e9d6360e01b1480610769575061076982612584565b600081815260076020526040902080546001600160a01b0319166001600160a01b0384169081179091558190611b2382610f23565b6001600160a01b03167f8c5be1e5ebec7d5bd14f71427d1e84f3dd0314c0f7b2291e5b200ac8c7c3b92560405160405180910390a45050565b60608160005b8151811015611bcf57611b94828281518110611b8057611b8061372c565b01602001516001600160f81b0319166125c4565b828281518110611ba657611ba661372c565b60200101906001600160f81b031916908160001a90535080611bc7816137ce565b915050611b62565b5092915050565b6000818152600560205260408120546001600160a01b0316611c4f5760405162461bcd60e51b815260206004820152602c60248201527f4552433732313a206f70657261746f7220717565727920666f72206e6f6e657860448201526b34b9ba32b73a103a37b5b2b760a11b6064820152608401610876565b6000611c5a83610f23565b9050806001600160a01b0316846001600160a01b03161480611c955750836001600160a01b0316611c8a84610801565b6001600160a01b0316145b80611cc557506001600160a01b0380821660009081526008602090815260408083209388168352929052205460ff165b949350505050565b826001600160a01b0316611ce082610f23565b6001600160a01b031614611d485760405162461bcd60e51b815260206004820152602960248201527f4552433732313a207472616e73666572206f6620746f6b656e2074686174206960448201526839903737ba1037bbb760b91b6064820152608401610876565b6001600160a01b038216611daa5760405162461bcd60e51b8152602060048201526024808201527f4552433732313a207472616e7366657220746f20746865207a65726f206164646044820152637265737360e01b6064820152608401610876565b611db5838383612613565b611dc0600082611aee565b6001600160a01b0383166000908152600660205260408120805460019290611de99084906137e7565b90915550506001600160a01b0382166000908152600660205260408120805460019290611e179084906137fe565b909155505060008181526005602052604080822080546001600160a01b0319166001600160a01b0386811691821790925591518493918716917fddf252ad1be2c89b69c2b068fc378daa952ba7f163c4a11628f55a4df523b3ef91a4505050565b60008281526001602081905260409091200154611e95813361261e565b6109ab83836124ca565b6001600160a01b0381163314611f0f5760405162461bcd60e51b815260206004820152602f60248201527f416363657373436f6e74726f6c3a2063616e206f6e6c792072656e6f756e636560448201526e103937b632b9903337b91039b2b63360891b6064820152608401610876565b610cdf8282612682565b600061125a836001600160a01b0384166126e9565b600d5460ff16611f775760405162461bcd60e51b815260206004820152601460248201527314185d5cd8589b194e881b9bdd081c185d5cd95960621b6044820152606401610876565b600d805460ff191690557f5db9ee0a495bf2e6ff9c91a7834c1ba4fdd244a5e8aa4e537bd38aeae4b073aa335b6040516001600160a01b03909116815260200160405180910390a1565b6001600160a01b0382166120175760405162461bcd60e51b815260206004820181905260248201527f4552433732313a206d696e7420746f20746865207a65726f20616464726573736044820152606401610876565b6000818152600560205260409020546001600160a01b03161561207c5760405162461bcd60e51b815260206004820152601c60248201527f4552433732313a20746f6b656e20616c7265616479206d696e746564000000006044820152606401610876565b61208860008383612613565b6001600160a01b03821660009081526006602052604081208054600192906120b19084906137fe565b909155505060008181526005602052604080822080546001600160a01b0319166001600160a01b03861690811790915590518392907fddf252ad1be2c89b69c2b068fc378daa952ba7f163c4a11628f55a4df523b3ef908290a45050565b600061211a82610f23565b905061212881600084612613565b612133600083611aee565b6001600160a01b038116600090815260066020526040812080546001929061215c9084906137e7565b909155505060008281526005602052604080822080546001600160a01b0319169055518391906001600160a01b038416907fddf252ad1be2c89b69c2b068fc378daa952ba7f163c4a11628f55a4df523b3ef908390a45050565b600080546001600160a01b038381166001600160a01b0319831681178455604051919092169283917f8be0079c531659141344cd1fd0a4f28419497f9722a3daafe3b4186f6b6457e09190a35050565b600d5460ff161561224c5760405162461bcd60e51b815260206004820152601060248201526f14185d5cd8589b194e881c185d5cd95960821b6044820152606401610876565b600d805460ff191660011790557f62e78cea01bee320cd4e420270b5ea74000d11b0c9f74754ebdbfc544b05a258611fa43390565b600061125a83836127dc565b60405161165f60ee1b81526004810183905260248101829052600090819061234e903090630597c00090604401602060405180830381865afa1580156122d7573d6000803e3d6000fd5b505050506040513d601f19601f820116820180604052508101906122fb9190613816565b6040517f19457468657265756d205369676e6564204d6573736167653a0a3332000000006020820152603c8101829052600090605c01604051602081830303815290604052805190602001209050919050565b905061235b868287612806565b9695505050505050565b612370848484611ccd565b61237c84848484612952565b610ff55760405162461bcd60e51b81526004016108769061382f565b6060816000036123bf5750506040805180820190915260018152600360fc1b602082015290565b8160005b81156123e957806123d3816137ce565b91506123e29050600a83613897565b91506123c3565b60008167ffffffffffffffff81111561240457612404613239565b6040519080825280601f01601f19166020018201604052801561242e576020820181803683370190505b5090505b8415611cc5576124436001836137e7565b9150612450600a866138ab565b61245b9060306137fe565b60f81b8183815181106124705761247061372c565b60200101906001600160f81b031916908160001a905350612492600a86613897565b9450612432565b6000610769825490565b600082815260016020819052604090912001546124c0813361261e565b6109ab8383612682565b6124d48282611261565b610cdf5760008281526001602081815260408084206001600160a01b0386168086529252808420805460ff19169093179092559051339285917f2f8788117e7eff1d82e926ec794901d17c78024a50270940304540a733656f0d9190a45050565b600081815260018301602052604081205461257c57508154600181810184556000848152602080822090930184905584548482528286019093526040902091909155610769565b506000610769565b60006001600160e01b031982166380ac58cd60e01b14806125b557506001600160e01b03198216635b5e139f60e01b145b80610769575061076982612a50565b6000606160f81b6001600160f81b03198316108015906125f25750603d60f91b6001600160f81b0319831611155b1561260f57612606602060f884901c6138bf565b60f81b92915050565b5090565b6109ab838383612a75565b6126288282611261565b610cdf57612640816001600160a01b03166014612ae7565b61264b836020612ae7565b60405160200161265c9291906138e2565b60408051601f198184030181529082905262461bcd60e51b8252610876916004016131c7565b61268c8282611261565b15610cdf5760008281526001602090815260408083206001600160a01b0385168085529252808320805460ff1916905551339285917ff6391f5c32d9c69d2a47ea670b442974b53935d1edc7fd64eb21e047a839171b9190a45050565b600081815260018301602052604081205480156127d257600061270d6001836137e7565b8554909150600090612721906001906137e7565b90508181146127865760008660000182815481106127415761274161372c565b90600052602060002001549050808760000184815481106127645761276461372c565b6000918252602080832090910192909255918252600188019052604090208390555b855486908061279757612797613957565b600190038181906000526020600020016000905590558560010160008681526020019081526020016000206000905560019350505050610769565b6000915050610769565b60008260000182815481106127f3576127f361372c565b9060005260206000200154905092915050565b60008060006128158585612c83565b9092509050600081600481111561282e5761282e61396d565b14801561284c5750856001600160a01b0316826001600160a01b0316145b1561285c5760019250505061125a565b600080876001600160a01b0316631626ba7e60e01b8888604051602401612884929190613983565b60408051601f198184030181529181526020820180516001600160e01b03166001600160e01b03199094169390931790925290516128c29190613662565b600060405180830381855afa9150503d80600081146128fd576040519150601f19603f3d011682016040523d82523d6000602084013e612902565b606091505b5091509150818015612915575080516020145b801561294657508051630b135d3f60e11b9061293a908301602090810190840161399c565b6001600160e01b031916145b98975050505050505050565b60006001600160a01b0384163b15612a4857604051630a85bd0160e11b81526001600160a01b0385169063150b7a02906129969033908990889088906004016139b9565b6020604051808303816000875af19250505080156129d1575060408051601f3d908101601f191682019092526129ce9181019061399c565b60015b612a2e573d8080156129ff576040519150601f19603f3d011682016040523d82523d6000602084013e612a04565b606091505b508051600003612a265760405162461bcd60e51b81526004016108769061382f565b805181602001fd5b6001600160e01b031916630a85bd0160e11b149050611cc5565b506001611cc5565b60006001600160e01b03198216635a05180f60e01b1480610769575061076982612cf1565b612a80838383612d26565b600d5460ff16156109ab5760405162461bcd60e51b815260206004820152602b60248201527f4552433732315061757361626c653a20746f6b656e207472616e73666572207760448201526a1a1a5b19481c185d5cd95960aa1b6064820152608401610876565b60606000612af68360026139ec565b612b019060026137fe565b67ffffffffffffffff811115612b1957612b19613239565b6040519080825280601f01601f191660200182016040528015612b43576020820181803683370190505b509050600360fc1b81600081518110612b5e57612b5e61372c565b60200101906001600160f81b031916908160001a905350600f60fb1b81600181518110612b8d57612b8d61372c565b60200101906001600160f81b031916908160001a9053506000612bb18460026139ec565b612bbc9060016137fe565b90505b6001811115612c34576f181899199a1a9b1b9c1cb0b131b232b360811b85600f1660108110612bf057612bf061372c565b1a60f81b828281518110612c0657612c0661372c565b60200101906001600160f81b031916908160001a90535060049490941c93612c2d81613a0b565b9050612bbf565b50831561125a5760405162461bcd60e51b815260206004820181905260248201527f537472696e67733a20686578206c656e67746820696e73756666696369656e746044820152606401610876565b6000808251604103612cb95760208301516040840151606085015160001a612cad87828585612dde565b94509450505050612cea565b8251604003612ce25760208301516040840151612cd7868383612ecb565b935093505050612cea565b506000905060025b9250929050565b60006001600160e01b03198216637965db0b60e01b148061076957506301ffc9a760e01b6001600160e01b0319831614610769565b6001600160a01b038316612d8157612d7c81600b80546000838152600c60205260408120829055600182018355919091527f0175b7a638427703f0dbe7bb9bbf987a2551717b34e79f33b5b1008d1fa01db90155565b612da4565b816001600160a01b0316836001600160a01b031614612da457612da48382612efa565b6001600160a01b038216612dbb576109ab81612f97565b826001600160a01b0316826001600160a01b0316146109ab576109ab8282613046565b6000807f7fffffffffffffffffffffffffffffff5d576e7357a4501ddfe92f46681b20a0831115612e155750600090506003612ec2565b8460ff16601b14158015612e2d57508460ff16601c14155b15612e3e5750600090506004612ec2565b6040805160008082526020820180845289905260ff881692820192909252606081018690526080810185905260019060a0016020604051602081039080840390855afa158015612e92573d6000803e3d6000fd5b5050604051601f1901519150506001600160a01b038116612ebb57600060019250925050612ec2565b9150600090505b94509492505050565b6000806001600160ff1b03831660ff84901c601b01612eec87828885612dde565b935093505050935093915050565b60006001612f0784610ffb565b612f1191906137e7565b6000838152600a6020526040902054909150808214612f64576001600160a01b03841660009081526009602090815260408083208584528252808320548484528184208190558352600a90915290208190555b506000918252600a602090815260408084208490556001600160a01b039094168352600981528383209183525290812055565b600b54600090612fa9906001906137e7565b6000838152600c6020526040812054600b8054939450909284908110612fd157612fd161372c565b9060005260206000200154905080600b8381548110612ff257612ff261372c565b6000918252602080832090910192909255828152600c9091526040808220849055858252812055600b80548061302a5761302a613957565b6001900381819060005260206000200160009055905550505050565b600061305183610ffb565b6001600160a01b0390931660009081526009602090815260408083208684528252808320859055938252600a9052919091209190915550565b82805461309690613628565b90600052602060002090601f0160209004810192826130b857600085556130fe565b82601f106130d157805160ff19168380011785556130fe565b828001600101855582156130fe579182015b828111156130fe5782518255916020019190600101906130e3565b5061260f9291505b8082111561260f5760008155600101613106565b6001600160e01b031981168114610d7557600080fd5b60006020828403121561314257600080fd5b813561125a8161311a565b6000806040838503121561316057600080fd5b50508035926020909101359150565b60005b8381101561318a578181015183820152602001613172565b83811115610ff55750506000910152565b600081518084526131b381602086016020860161316f565b601f01601f19169290920160200192915050565b60208152600061125a602083018461319b565b6000602082840312156131ec57600080fd5b5035919050565b80356001600160a01b038116811461320a57600080fd5b919050565b6000806040838503121561322257600080fd5b61322b836131f3565b946020939093013593505050565b634e487b7160e01b600052604160045260246000fd5b600082601f83011261326057600080fd5b813567ffffffffffffffff8082111561327b5761327b613239565b604051601f8301601f19908116603f011681019082821181831017156132a3576132a3613239565b816040528381528660208588010111156132bc57600080fd5b836020870160208301376000602085830101528094505050505092915050565b600080604083850312156132ef57600080fd5b823567ffffffffffffffff8082111561330757600080fd5b6133138683870161324f565b9350602085013591508082111561332957600080fd5b506133368582860161324f565b9150509250929050565b60008060006060848603121561335557600080fd5b61335e846131f3565b925061336c602085016131f3565b9150604084013590509250925092565b6000806040838503121561338f57600080fd5b8235915061339f602084016131f3565b90509250929050565b600080604083850312156133bb57600080fd5b82359150602083013567ffffffffffffffff8111156133d957600080fd5b6133368582860161324f565b6000806000606084860312156133fa57600080fd5b83359250602084013567ffffffffffffffff8082111561341957600080fd5b6134258783880161324f565b9350604086013591508082111561343b57600080fd5b506134488682870161324f565b9150509250925092565b6000806000806080858703121561346857600080fd5b613471856131f3565b935060208501359250604085013567ffffffffffffffff8082111561349557600080fd5b6134a18883890161324f565b935060608701359150808211156134b757600080fd5b506134c48782880161324f565b91505092959194509250565b6000602082840312156134e257600080fd5b61125a826131f3565b6000602082840312156134fd57600080fd5b813567ffffffffffffffff81111561351457600080fd5b611cc58482850161324f565b6000806040838503121561353357600080fd5b61353c836131f3565b91506020830135801515811461355157600080fd5b809150509250929050565b60008060006060848603121561357157600080fd5b8335925060208401359150604084013567ffffffffffffffff81111561359657600080fd5b6134488682870161324f565b600080600080608085870312156135b857600080fd5b6135c1856131f3565b93506135cf602086016131f3565b925060408501359150606085013567ffffffffffffffff8111156135f257600080fd5b6134c48782880161324f565b6000806040838503121561361157600080fd5b61361a836131f3565b915061339f602084016131f3565b600181811c9082168061363c57607f821691505b60208210810361365c57634e487b7160e01b600052602260045260246000fd5b50919050565b6000825161367481846020870161316f565b9190910192915050565b60208082526031908201527f4552433732313a207472616e736665722063616c6c6572206973206e6f74206f6040820152701ddb995c881b9bdc88185c1c1c9bdd9959607a1b606082015260800190565b6020808252603d908201527f4552433732315072657365744d696e7465725061757365724175746f49643a2060408201527f6d7573742068617665206d696e74657220726f6c6520746f206d696e74000000606082015260800190565b634e487b7160e01b600052603260045260246000fd5b60208082526027908201527f45524337323150726573657441646d696e3a206d75737420686176652061646d604082015266696e20726f6c6560c81b606082015260800190565b6000835161379b81846020880161316f565b8351908301906137af81836020880161316f565b01949350505050565b634e487b7160e01b600052601160045260246000fd5b6000600182016137e0576137e06137b8565b5060010190565b6000828210156137f9576137f96137b8565b500390565b60008219821115613811576138116137b8565b500190565b60006020828403121561382857600080fd5b5051919050565b60208082526032908201527f4552433732313a207472616e7366657220746f206e6f6e20455243373231526560408201527131b2b4bb32b91034b6b83632b6b2b73a32b960711b606082015260800190565b634e487b7160e01b600052601260045260246000fd5b6000826138a6576138a6613881565b500490565b6000826138ba576138ba613881565b500690565b600060ff821660ff8416808210156138d9576138d96137b8565b90039392505050565b7f416363657373436f6e74726f6c3a206163636f756e742000000000000000000081526000835161391a81601785016020880161316f565b7001034b99036b4b9b9b4b733903937b6329607d1b601791840191820152835161394b81602884016020880161316f565b01602801949350505050565b634e487b7160e01b600052603160045260246000fd5b634e487b7160e01b600052602160045260246000fd5b828152604060208201526000611cc5604083018461319b565b6000602082840312156139ae57600080fd5b815161125a8161311a565b6001600160a01b038581168252841660208201526040810183905260806060820181905260009061235b9083018461319b565b6000816000190483118215151615613a0657613a066137b8565b500290565b600081613a1a57613a1a6137b8565b50600019019056fea2646970667358221220e720939a49e0e4a4ce29b83a7dc3bd0da69f6da6b442bce6e57c5a0f934c6d1c64736f6c634300080d0033",
			"opcodes": "PUSH1 0x80 PUSH1 0x40 MSTORE CALLVALUE DUP1 ISZERO PUSH3 0x11 JUMPI PUSH1 0x0 DUP1 REVERT JUMPDEST POP PUSH1 0x40 MLOAD PUSH3 0x3F81 CODESIZE SUB DUP1 PUSH3 0x3F81 DUP4 CODECOPY DUP2 ADD PUSH1 0x40 DUP2 SWAP1 MSTORE PUSH3 0x34 SWAP2 PUSH3 0x424 JUMP JUMPDEST DUP4 DUP4 PUSH3 0x41 CALLER PUSH3 0x114 JUMP JUMPDEST DUP2 MLOAD PUSH3 0x56 SWAP1 PUSH1 0x3 SWAP1 PUSH1 0x20 DUP6 ADD SWAP1 PUSH3 0x2B1 JUMP JUMPDEST POP DUP1 MLOAD PUSH3 0x6C SWAP1 PUSH1 0x4 SWAP1 PUSH1 0x20 DUP5 ADD SWAP1 PUSH3 0x2B1 JUMP JUMPDEST POP POP PUSH1 0xD DUP1 SLOAD PUSH1 0xFF NOT AND SWAP1 SSTORE POP DUP2 MLOAD PUSH3 0x8E SWAP1 PUSH1 0xF SWAP1 PUSH1 0x20 DUP6 ADD SWAP1 PUSH3 0x2B1 JUMP JUMPDEST POP DUP1 MLOAD PUSH3 0xA4 SWAP1 PUSH1 0x10 SWAP1 PUSH1 0x20 DUP5 ADD SWAP1 PUSH3 0x2B1 JUMP JUMPDEST POP PUSH3 0xB2 PUSH1 0x0 CALLER PUSH3 0x164 JUMP JUMPDEST PUSH3 0xDE PUSH32 0x9F2DF0FED2C77648DE5860A4CC508CD0818C85B8B8A1AB4CEEEF8D981C8956A6 CALLER PUSH3 0x164 JUMP JUMPDEST PUSH3 0x10A PUSH32 0x65D7A28E3265B37A6474929F336521B332C1681B933F6CB9F3376673440D862A CALLER PUSH3 0x164 JUMP JUMPDEST POP POP POP POP PUSH3 0x519 JUMP JUMPDEST PUSH1 0x0 DUP1 SLOAD PUSH1 0x1 PUSH1 0x1 PUSH1 0xA0 SHL SUB DUP4 DUP2 AND PUSH1 0x1 PUSH1 0x1 PUSH1 0xA0 SHL SUB NOT DUP4 AND DUP2 OR DUP5 SSTORE PUSH1 0x40 MLOAD SWAP2 SWAP1 SWAP3 AND SWAP3 DUP4 SWAP2 PUSH32 0x8BE0079C531659141344CD1FD0A4F28419497F9722A3DAAFE3B4186F6B6457E0 SWAP2 SWAP1 LOG3 POP POP JUMP JUMPDEST PUSH3 0x17B DUP3 DUP3 PUSH3 0x1A7 PUSH1 0x20 SHL PUSH3 0x1AAA OR PUSH1 0x20 SHR JUMP JUMPDEST PUSH1 0x0 DUP3 DUP2 MSTORE PUSH1 0x2 PUSH1 0x20 SWAP1 DUP2 MSTORE PUSH1 0x40 SWAP1 SWAP2 KECCAK256 PUSH3 0x1A2 SWAP2 DUP4 SWAP1 PUSH3 0x1AB4 PUSH3 0x1B7 DUP3 SHL OR SWAP1 SHR JUMP JUMPDEST POP POP POP JUMP JUMPDEST PUSH3 0x1B3 DUP3 DUP3 PUSH3 0x1D7 JUMP JUMPDEST POP POP JUMP JUMPDEST PUSH1 0x0 PUSH3 0x1CE DUP4 PUSH1 0x1 PUSH1 0x1 PUSH1 0xA0 SHL SUB DUP5 AND PUSH3 0x25F JUMP JUMPDEST SWAP1 POP JUMPDEST SWAP3 SWAP2 POP POP JUMP JUMPDEST PUSH1 0x0 DUP3 DUP2 MSTORE PUSH1 0x1 PUSH1 0x20 SWAP1 DUP2 MSTORE PUSH1 0x40 DUP1 DUP4 KECCAK256 PUSH1 0x1 PUSH1 0x1 PUSH1 0xA0 SHL SUB DUP6 AND DUP5 MSTORE SWAP1 SWAP2 MSTORE SWAP1 KECCAK256 SLOAD PUSH1 0xFF AND PUSH3 0x1B3 JUMPI PUSH1 0x0 DUP3 DUP2 MSTORE PUSH1 0x1 PUSH1 0x20 DUP2 DUP2 MSTORE PUSH1 0x40 DUP1 DUP5 KECCAK256 PUSH1 0x1 PUSH1 0x1 PUSH1 0xA0 SHL SUB DUP7 AND DUP1 DUP7 MSTORE SWAP3 MSTORE DUP1 DUP5 KECCAK256 DUP1 SLOAD PUSH1 0xFF NOT AND SWAP1 SWAP4 OR SWAP1 SWAP3 SSTORE SWAP1 MLOAD CALLER SWAP3 DUP6 SWAP2 PUSH32 0x2F8788117E7EFF1D82E926EC794901D17C78024A50270940304540A733656F0D SWAP2 SWAP1 LOG4 POP POP JUMP JUMPDEST PUSH1 0x0 DUP2 DUP2 MSTORE PUSH1 0x1 DUP4 ADD PUSH1 0x20 MSTORE PUSH1 0x40 DUP2 KECCAK256 SLOAD PUSH3 0x2A8 JUMPI POP DUP2 SLOAD PUSH1 0x1 DUP2 DUP2 ADD DUP5 SSTORE PUSH1 0x0 DUP5 DUP2 MSTORE PUSH1 0x20 DUP1 DUP3 KECCAK256 SWAP1 SWAP4 ADD DUP5 SWAP1 SSTORE DUP5 SLOAD DUP5 DUP3 MSTORE DUP3 DUP7 ADD SWAP1 SWAP4 MSTORE PUSH1 0x40 SWAP1 KECCAK256 SWAP2 SWAP1 SWAP2 SSTORE PUSH3 0x1D1 JUMP JUMPDEST POP PUSH1 0x0 PUSH3 0x1D1 JUMP JUMPDEST DUP3 DUP1 SLOAD PUSH3 0x2BF SWAP1 PUSH3 0x4DD JUMP JUMPDEST SWAP1 PUSH1 0x0 MSTORE PUSH1 0x20 PUSH1 0x0 KECCAK256 SWAP1 PUSH1 0x1F ADD PUSH1 0x20 SWAP1 DIV DUP2 ADD SWAP3 DUP3 PUSH3 0x2E3 JUMPI PUSH1 0x0 DUP6 SSTORE PUSH3 0x32E JUMP JUMPDEST DUP3 PUSH1 0x1F LT PUSH3 0x2FE JUMPI DUP1 MLOAD PUSH1 0xFF NOT AND DUP4 DUP1 ADD OR DUP6 SSTORE PUSH3 0x32E JUMP JUMPDEST DUP3 DUP1 ADD PUSH1 0x1 ADD DUP6 SSTORE DUP3 ISZERO PUSH3 0x32E JUMPI SWAP2 DUP3 ADD JUMPDEST DUP3 DUP2 GT ISZERO PUSH3 0x32E JUMPI DUP3 MLOAD DUP3 SSTORE SWAP2 PUSH1 0x20 ADD SWAP2 SWAP1 PUSH1 0x1 ADD SWAP1 PUSH3 0x311 JUMP JUMPDEST POP PUSH3 0x33C SWAP3 SWAP2 POP PUSH3 0x340 JUMP JUMPDEST POP SWAP1 JUMP JUMPDEST JUMPDEST DUP1 DUP3 GT ISZERO PUSH3 0x33C JUMPI PUSH1 0x0 DUP2 SSTORE PUSH1 0x1 ADD PUSH3 0x341 JUMP JUMPDEST PUSH4 0x4E487B71 PUSH1 0xE0 SHL PUSH1 0x0 MSTORE PUSH1 0x41 PUSH1 0x4 MSTORE PUSH1 0x24 PUSH1 0x0 REVERT JUMPDEST PUSH1 0x0 DUP3 PUSH1 0x1F DUP4 ADD SLT PUSH3 0x37F JUMPI PUSH1 0x0 DUP1 REVERT JUMPDEST DUP2 MLOAD PUSH1 0x1 PUSH1 0x1 PUSH1 0x40 SHL SUB DUP1 DUP3 GT ISZERO PUSH3 0x39C JUMPI PUSH3 0x39C PUSH3 0x357 JUMP JUMPDEST PUSH1 0x40 MLOAD PUSH1 0x1F DUP4 ADD PUSH1 0x1F NOT SWAP1 DUP2 AND PUSH1 0x3F ADD AND DUP2 ADD SWAP1 DUP3 DUP3 GT DUP2 DUP4 LT OR ISZERO PUSH3 0x3C7 JUMPI PUSH3 0x3C7 PUSH3 0x357 JUMP JUMPDEST DUP2 PUSH1 0x40 MSTORE DUP4 DUP2 MSTORE PUSH1 0x20 SWAP3 POP DUP7 DUP4 DUP6 DUP9 ADD ADD GT ISZERO PUSH3 0x3E4 JUMPI PUSH1 0x0 DUP1 REVERT JUMPDEST PUSH1 0x0 SWAP2 POP JUMPDEST DUP4 DUP3 LT ISZERO PUSH3 0x408 JUMPI DUP6 DUP3 ADD DUP4 ADD MLOAD DUP2 DUP4 ADD DUP5 ADD MSTORE SWAP1 DUP3 ADD SWAP1 PUSH3 0x3E9 JUMP JUMPDEST DUP4 DUP3 GT ISZERO PUSH3 0x41A JUMPI PUSH1 0x0 DUP4 DUP6 DUP4 ADD ADD MSTORE JUMPDEST SWAP7 SWAP6 POP POP POP POP POP POP JUMP JUMPDEST PUSH1 0x0 DUP1 PUSH1 0x0 DUP1 PUSH1 0x80 DUP6 DUP8 SUB SLT ISZERO PUSH3 0x43B JUMPI PUSH1 0x0 DUP1 REVERT JUMPDEST DUP5 MLOAD PUSH1 0x1 PUSH1 0x1 PUSH1 0x40 SHL SUB DUP1 DUP3 GT ISZERO PUSH3 0x453 JUMPI PUSH1 0x0 DUP1 REVERT JUMPDEST PUSH3 0x461 DUP9 DUP4 DUP10 ADD PUSH3 0x36D JUMP JUMPDEST SWAP6 POP PUSH1 0x20 DUP8 ADD MLOAD SWAP2 POP DUP1 DUP3 GT ISZERO PUSH3 0x478 JUMPI PUSH1 0x0 DUP1 REVERT JUMPDEST PUSH3 0x486 DUP9 DUP4 DUP10 ADD PUSH3 0x36D JUMP JUMPDEST SWAP5 POP PUSH1 0x40 DUP8 ADD MLOAD SWAP2 POP DUP1 DUP3 GT ISZERO PUSH3 0x49D JUMPI PUSH1 0x0 DUP1 REVERT JUMPDEST PUSH3 0x4AB DUP9 DUP4 DUP10 ADD PUSH3 0x36D JUMP JUMPDEST SWAP4 POP PUSH1 0x60 DUP8 ADD MLOAD SWAP2 POP DUP1 DUP3 GT ISZERO PUSH3 0x4C2 JUMPI PUSH1 0x0 DUP1 REVERT JUMPDEST POP PUSH3 0x4D1 DUP8 DUP3 DUP9 ADD PUSH3 0x36D JUMP JUMPDEST SWAP2 POP POP SWAP3 SWAP6 SWAP2 SWAP5 POP SWAP3 POP JUMP JUMPDEST PUSH1 0x1 DUP2 DUP2 SHR SWAP1 DUP3 AND DUP1 PUSH3 0x4F2 JUMPI PUSH1 0x7F DUP3 AND SWAP2 POP JUMPDEST PUSH1 0x20 DUP3 LT DUP2 SUB PUSH3 0x513 JUMPI PUSH4 0x4E487B71 PUSH1 0xE0 SHL PUSH1 0x0 MSTORE PUSH1 0x22 PUSH1 0x4 MSTORE PUSH1 0x24 PUSH1 0x0 REVERT JUMPDEST POP SWAP2 SWAP1 POP JUMP JUMPDEST PUSH2 0x3A58 DUP1 PUSH3 0x529 PUSH1 0x0 CODECOPY PUSH1 0x0 RETURN INVALID PUSH1 0x80 PUSH1 0x40 MSTORE CALLVALUE DUP1 ISZERO PUSH2 0x10 JUMPI PUSH1 0x0 DUP1 REVERT JUMPDEST POP PUSH1 0x4 CALLDATASIZE LT PUSH2 0x2F1 JUMPI PUSH1 0x0 CALLDATALOAD PUSH1 0xE0 SHR DUP1 PUSH4 0x715018A6 GT PUSH2 0x19D JUMPI DUP1 PUSH4 0xBDC32BE0 GT PUSH2 0xE9 JUMPI DUP1 PUSH4 0xDCF7A9C8 GT PUSH2 0xA2 JUMPI DUP1 PUSH4 0xE985E9C5 GT PUSH2 0x7C JUMPI DUP1 PUSH4 0xE985E9C5 EQ PUSH2 0x6E9 JUMPI DUP1 PUSH4 0xF2FDE38B EQ PUSH2 0x725 JUMPI DUP1 PUSH4 0xFBD420C7 EQ PUSH2 0x738 JUMPI DUP1 PUSH4 0xFC1901BA EQ PUSH2 0x74B JUMPI PUSH1 0x0 DUP1 REVERT JUMPDEST DUP1 PUSH4 0xDCF7A9C8 EQ PUSH2 0x6A7 JUMPI DUP1 PUSH4 0xE63AB1E9 EQ PUSH2 0x6BA JUMPI DUP1 PUSH4 0xE8A3D485 EQ PUSH2 0x6E1 JUMPI PUSH1 0x0 DUP1 REVERT JUMPDEST DUP1 PUSH4 0xBDC32BE0 EQ PUSH2 0x62C JUMPI DUP1 PUSH4 0xC87B56DD EQ PUSH2 0x634 JUMPI DUP1 PUSH4 0xCA15C873 EQ PUSH2 0x647 JUMPI DUP1 PUSH4 0xCB4799F2 EQ PUSH2 0x65A JUMPI DUP1 PUSH4 0xD5391393 EQ PUSH2 0x66D JUMPI DUP1 PUSH4 0xD547741F EQ PUSH2 0x694 JUMPI PUSH1 0x0 DUP1 REVERT JUMPDEST DUP1 PUSH4 0x95D89B41 GT PUSH2 0x156 JUMPI DUP1 PUSH4 0xB68E6FEA GT PUSH2 0x130 JUMPI DUP1 PUSH4 0xB68E6FEA EQ PUSH2 0x5E0 JUMPI DUP1 PUSH4 0xB705BC2D EQ PUSH2 0x5F3 JUMPI DUP1 PUSH4 0xB88D4FDE EQ PUSH2 0x606 JUMPI DUP1 PUSH4 0xBB32520B EQ PUSH2 0x619 JUMPI PUSH1 0x0 DUP1 REVERT JUMPDEST DUP1 PUSH4 0x95D89B41 EQ PUSH2 0x5BD JUMPI DUP1 PUSH4 0xA217FDDF EQ PUSH2 0x5C5 JUMPI DUP1 PUSH4 0xA22CB465 EQ PUSH2 0x5CD JUMPI PUSH1 0x0 DUP1 REVERT JUMPDEST DUP1 PUSH4 0x715018A6 EQ PUSH2 0x563 JUMPI DUP1 PUSH4 0x8441AD79 EQ PUSH2 0x56B JUMPI DUP1 PUSH4 0x8456CB59 EQ PUSH2 0x57E JUMPI DUP1 PUSH4 0x8DA5CB5B EQ PUSH2 0x586 JUMPI DUP1 PUSH4 0x9010D07C EQ PUSH2 0x597 JUMPI DUP1 PUSH4 0x91D14854 EQ PUSH2 0x5AA JUMPI PUSH1 0x0 DUP1 REVERT JUMPDEST DUP1 PUSH4 0x36568ABE GT PUSH2 0x25C JUMPI DUP1 PUSH4 0x59F9F50F GT PUSH2 0x215 JUMPI DUP1 PUSH4 0x6768F0B6 GT PUSH2 0x1EF JUMPI DUP1 PUSH4 0x6768F0B6 EQ PUSH2 0x507 JUMPI DUP1 PUSH4 0x6A8A6894 EQ PUSH2 0x51A JUMPI DUP1 PUSH4 0x70A08231 EQ PUSH2 0x548 JUMPI DUP1 PUSH4 0x710DB424 EQ PUSH2 0x55B JUMPI PUSH1 0x0 DUP1 REVERT JUMPDEST DUP1 PUSH4 0x59F9F50F EQ PUSH2 0x4D6 JUMPI DUP1 PUSH4 0x5C975ABB EQ PUSH2 0x4E9 JUMPI DUP1 PUSH4 0x6352211E EQ PUSH2 0x4F4 JUMPI PUSH1 0x0 DUP1 REVERT JUMPDEST DUP1 PUSH4 0x36568ABE EQ PUSH2 0x46F JUMPI DUP1 PUSH4 0x3F4BA83A EQ PUSH2 0x482 JUMPI DUP1 PUSH4 0x40C10F19 EQ PUSH2 0x48A JUMPI DUP1 PUSH4 0x42842E0E EQ PUSH2 0x49D JUMPI DUP1 PUSH4 0x42966C68 EQ PUSH2 0x4B0 JUMPI DUP1 PUSH4 0x4F6CCCE7 EQ PUSH2 0x4C3 JUMPI PUSH1 0x0 DUP1 REVERT JUMPDEST DUP1 PUSH4 0x18160DDD GT PUSH2 0x2AE JUMPI DUP1 PUSH4 0x18160DDD EQ PUSH2 0x3F7 JUMPI DUP1 PUSH4 0x23B872DD EQ PUSH2 0x3FF JUMPI DUP1 PUSH4 0x248A9CA3 EQ PUSH2 0x412 JUMPI DUP1 PUSH4 0x2F2FF15D EQ PUSH2 0x436 JUMPI DUP1 PUSH4 0x2F745C59 EQ PUSH2 0x449 JUMPI DUP1 PUSH4 0x36532AAD EQ PUSH2 0x45C JUMPI PUSH1 0x0 DUP1 REVERT JUMPDEST DUP1 PUSH4 0x1FFC9A7 EQ PUSH2 0x2F6 JUMPI DUP1 PUSH4 0x597C000 EQ PUSH2 0x31E JUMPI DUP1 PUSH4 0x6FDDE03 EQ PUSH2 0x38F JUMPI DUP1 PUSH4 0x81812FC EQ PUSH2 0x3A4 JUMPI DUP1 PUSH4 0x95EA7B3 EQ PUSH2 0x3CF JUMPI DUP1 PUSH4 0x14D73AD5 EQ PUSH2 0x3E4 JUMPI JUMPDEST PUSH1 0x0 DUP1 REVERT JUMPDEST PUSH2 0x309 PUSH2 0x304 CALLDATASIZE PUSH1 0x4 PUSH2 0x3130 JUMP JUMPDEST PUSH2 0x75E JUMP JUMPDEST PUSH1 0x40 MLOAD SWAP1 ISZERO ISZERO DUP2 MSTORE PUSH1 0x20 ADD JUMPDEST PUSH1 0x40 MLOAD DUP1 SWAP2 SUB SWAP1 RETURN JUMPDEST PUSH2 0x381 PUSH2 0x32C CALLDATASIZE PUSH1 0x4 PUSH2 0x314D JUMP JUMPDEST PUSH1 0x40 DUP1 MLOAD PUSH32 0xB32F66244035BD5CF1F616DC1F3FF447FAAB442451485FB86AA359D24BF14ED5 PUSH1 0x20 DUP1 DUP4 ADD SWAP2 SWAP1 SWAP2 MSTORE DUP2 DUP4 ADD SWAP5 SWAP1 SWAP5 MSTORE PUSH1 0x60 DUP1 DUP3 ADD SWAP4 SWAP1 SWAP4 MSTORE DUP2 MLOAD DUP1 DUP3 SUB SWAP1 SWAP4 ADD DUP4 MSTORE PUSH1 0x80 ADD SWAP1 MSTORE DUP1 MLOAD SWAP2 ADD KECCAK256 SWAP1 JUMP JUMPDEST PUSH1 0x40 MLOAD SWAP1 DUP2 MSTORE PUSH1 0x20 ADD PUSH2 0x315 JUMP JUMPDEST PUSH2 0x397 PUSH2 0x76F JUMP JUMPDEST PUSH1 0x40 MLOAD PUSH2 0x315 SWAP2 SWAP1 PUSH2 0x31C7 JUMP JUMPDEST PUSH2 0x3B7 PUSH2 0x3B2 CALLDATASIZE PUSH1 0x4 PUSH2 0x31DA JUMP JUMPDEST PUSH2 0x801 JUMP JUMPDEST PUSH1 0x40 MLOAD PUSH1 0x1 PUSH1 0x1 PUSH1 0xA0 SHL SUB SWAP1 SWAP2 AND DUP2 MSTORE PUSH1 0x20 ADD PUSH2 0x315 JUMP JUMPDEST PUSH2 0x3E2 PUSH2 0x3DD CALLDATASIZE PUSH1 0x4 PUSH2 0x320F JUMP JUMPDEST PUSH2 0x89B JUMP JUMPDEST STOP JUMPDEST PUSH2 0x381 PUSH2 0x3F2 CALLDATASIZE PUSH1 0x4 PUSH2 0x32DC JUMP JUMPDEST PUSH2 0x9B0 JUMP JUMPDEST PUSH1 0xB SLOAD PUSH2 0x381 JUMP JUMPDEST PUSH2 0x3E2 PUSH2 0x40D CALLDATASIZE PUSH1 0x4 PUSH2 0x3340 JUMP JUMPDEST PUSH2 0xA05 JUMP JUMPDEST PUSH2 0x381 PUSH2 0x420 CALLDATASIZE PUSH1 0x4 PUSH2 0x31DA JUMP JUMPDEST PUSH1 0x0 SWAP1 DUP2 MSTORE PUSH1 0x1 PUSH1 0x20 DUP2 SWAP1 MSTORE PUSH1 0x40 SWAP1 SWAP2 KECCAK256 ADD SLOAD SWAP1 JUMP JUMPDEST PUSH2 0x3E2 PUSH2 0x444 CALLDATASIZE PUSH1 0x4 PUSH2 0x337C JUMP JUMPDEST PUSH2 0xA37 JUMP JUMPDEST PUSH2 0x381 PUSH2 0x457 CALLDATASIZE PUSH1 0x4 PUSH2 0x320F JUMP JUMPDEST PUSH2 0xA59 JUMP JUMPDEST PUSH2 0x397 PUSH2 0x46A CALLDATASIZE PUSH1 0x4 PUSH2 0x33A8 JUMP JUMPDEST PUSH2 0xAEF JUMP JUMPDEST PUSH2 0x3E2 PUSH2 0x47D CALLDATASIZE PUSH1 0x4 PUSH2 0x337C JUMP JUMPDEST PUSH2 0xBB5 JUMP JUMPDEST PUSH2 0x3E2 PUSH2 0xBD7 JUMP JUMPDEST PUSH2 0x3E2 PUSH2 0x498 CALLDATASIZE PUSH1 0x4 PUSH2 0x320F JUMP JUMPDEST PUSH2 0xC7F JUMP JUMPDEST PUSH2 0x3E2 PUSH2 0x4AB CALLDATASIZE PUSH1 0x4 PUSH2 0x3340 JUMP JUMPDEST PUSH2 0xCE3 JUMP JUMPDEST PUSH2 0x3E2 PUSH2 0x4BE CALLDATASIZE PUSH1 0x4 PUSH2 0x31DA JUMP JUMPDEST PUSH2 0xCFE JUMP JUMPDEST PUSH2 0x381 PUSH2 0x4D1 CALLDATASIZE PUSH1 0x4 PUSH2 0x31DA JUMP JUMPDEST PUSH2 0xD78 JUMP JUMPDEST PUSH2 0x3E2 PUSH2 0x4E4 CALLDATASIZE PUSH1 0x4 PUSH2 0x33E5 JUMP JUMPDEST PUSH2 0xE0B JUMP JUMPDEST PUSH1 0xD SLOAD PUSH1 0xFF AND PUSH2 0x309 JUMP JUMPDEST PUSH2 0x3B7 PUSH2 0x502 CALLDATASIZE PUSH1 0x4 PUSH2 0x31DA JUMP JUMPDEST PUSH2 0xF23 JUMP JUMPDEST PUSH2 0x3E2 PUSH2 0x515 CALLDATASIZE PUSH1 0x4 PUSH2 0x3452 JUMP JUMPDEST PUSH2 0xF9A JUMP JUMPDEST PUSH2 0x309 PUSH2 0x528 CALLDATASIZE PUSH1 0x4 PUSH2 0x320F JUMP JUMPDEST PUSH1 0xE PUSH1 0x20 SWAP1 DUP2 MSTORE PUSH1 0x0 SWAP3 DUP4 MSTORE PUSH1 0x40 DUP1 DUP5 KECCAK256 SWAP1 SWAP2 MSTORE SWAP1 DUP3 MSTORE SWAP1 KECCAK256 SLOAD PUSH1 0xFF AND DUP2 JUMP JUMPDEST PUSH2 0x381 PUSH2 0x556 CALLDATASIZE PUSH1 0x4 PUSH2 0x34D0 JUMP JUMPDEST PUSH2 0xFFB JUMP JUMPDEST PUSH1 0x11 SLOAD PUSH2 0x381 JUMP JUMPDEST PUSH2 0x3E2 PUSH2 0x1082 JUMP JUMPDEST PUSH2 0x397 PUSH2 0x579 CALLDATASIZE PUSH1 0x4 PUSH2 0x34EB JUMP JUMPDEST PUSH2 0x10E6 JUMP JUMPDEST PUSH2 0x3E2 PUSH2 0x119E JUMP JUMPDEST PUSH1 0x0 SLOAD PUSH1 0x1 PUSH1 0x1 PUSH1 0xA0 SHL SUB AND PUSH2 0x3B7 JUMP JUMPDEST PUSH2 0x3B7 PUSH2 0x5A5 CALLDATASIZE PUSH1 0x4 PUSH2 0x314D JUMP JUMPDEST PUSH2 0x1242 JUMP JUMPDEST PUSH2 0x309 PUSH2 0x5B8 CALLDATASIZE PUSH1 0x4 PUSH2 0x337C JUMP JUMPDEST PUSH2 0x1261 JUMP JUMPDEST PUSH2 0x397 PUSH2 0x128C JUMP JUMPDEST PUSH2 0x381 PUSH1 0x0 DUP2 JUMP JUMPDEST PUSH2 0x3E2 PUSH2 0x5DB CALLDATASIZE PUSH1 0x4 PUSH2 0x3520 JUMP JUMPDEST PUSH2 0x129B JUMP JUMPDEST PUSH2 0x3E2 PUSH2 0x5EE CALLDATASIZE PUSH1 0x4 PUSH2 0x355C JUMP JUMPDEST PUSH2 0x135F JUMP JUMPDEST PUSH2 0x3E2 PUSH2 0x601 CALLDATASIZE PUSH1 0x4 PUSH2 0x33E5 JUMP JUMPDEST PUSH2 0x14AD JUMP JUMPDEST PUSH2 0x3E2 PUSH2 0x614 CALLDATASIZE PUSH1 0x4 PUSH2 0x35A2 JUMP JUMPDEST PUSH2 0x1722 JUMP JUMPDEST PUSH2 0x3E2 PUSH2 0x627 CALLDATASIZE PUSH1 0x4 PUSH2 0x32DC JUMP JUMPDEST PUSH2 0x1754 JUMP JUMPDEST PUSH2 0x397 PUSH2 0x1814 JUMP JUMPDEST PUSH2 0x397 PUSH2 0x642 CALLDATASIZE PUSH1 0x4 PUSH2 0x31DA JUMP JUMPDEST PUSH2 0x1823 JUMP JUMPDEST PUSH2 0x381 PUSH2 0x655 CALLDATASIZE PUSH1 0x4 PUSH2 0x31DA JUMP JUMPDEST PUSH2 0x18FD JUMP JUMPDEST PUSH2 0x397 PUSH2 0x668 CALLDATASIZE PUSH1 0x4 PUSH2 0x33A8 JUMP JUMPDEST PUSH2 0x1914 JUMP JUMPDEST PUSH2 0x381 PUSH32 0x9F2DF0FED2C77648DE5860A4CC508CD0818C85B8B8A1AB4CEEEF8D981C8956A6 DUP2 JUMP JUMPDEST PUSH2 0x3E2 PUSH2 0x6A2 CALLDATASIZE PUSH1 0x4 PUSH2 0x337C JUMP JUMPDEST PUSH2 0x192E JUMP JUMPDEST PUSH2 0x397 PUSH2 0x6B5 CALLDATASIZE PUSH1 0x4 PUSH2 0x31DA JUMP JUMPDEST PUSH2 0x1938 JUMP JUMPDEST PUSH2 0x381 PUSH32 0x65D7A28E3265B37A6474929F336521B332C1681B933F6CB9F3376673440D862A DUP2 JUMP JUMPDEST PUSH2 0x397 PUSH2 0x195F JUMP JUMPDEST PUSH2 0x309 PUSH2 0x6F7 CALLDATASIZE PUSH1 0x4 PUSH2 0x35FE JUMP JUMPDEST PUSH1 0x1 PUSH1 0x1 PUSH1 0xA0 SHL SUB SWAP2 DUP3 AND PUSH1 0x0 SWAP1 DUP2 MSTORE PUSH1 0x8 PUSH1 0x20 SWAP1 DUP2 MSTORE PUSH1 0x40 DUP1 DUP4 KECCAK256 SWAP4 SWAP1 SWAP5 AND DUP3 MSTORE SWAP2 SWAP1 SWAP2 MSTORE KECCAK256 SLOAD PUSH1 0xFF AND SWAP1 JUMP JUMPDEST PUSH2 0x3E2 PUSH2 0x733 CALLDATASIZE PUSH1 0x4 PUSH2 0x34D0 JUMP JUMPDEST PUSH2 0x196E JUMP JUMPDEST PUSH2 0x381 PUSH2 0x746 CALLDATASIZE PUSH1 0x4 PUSH2 0x34EB JUMP JUMPDEST PUSH2 0x1A36 JUMP JUMPDEST PUSH2 0x3E2 PUSH2 0x759 CALLDATASIZE PUSH1 0x4 PUSH2 0x33A8 JUMP JUMPDEST PUSH2 0x1A5D JUMP JUMPDEST PUSH1 0x0 PUSH2 0x769 DUP3 PUSH2 0x1AC9 JUMP JUMPDEST SWAP3 SWAP2 POP POP JUMP JUMPDEST PUSH1 0x60 PUSH1 0x3 DUP1 SLOAD PUSH2 0x77E SWAP1 PUSH2 0x3628 JUMP JUMPDEST DUP1 PUSH1 0x1F ADD PUSH1 0x20 DUP1 SWAP2 DIV MUL PUSH1 0x20 ADD PUSH1 0x40 MLOAD SWAP1 DUP2 ADD PUSH1 0x40 MSTORE DUP1 SWAP3 SWAP2 SWAP1 DUP2 DUP2 MSTORE PUSH1 0x20 ADD DUP3 DUP1 SLOAD PUSH2 0x7AA SWAP1 PUSH2 0x3628 JUMP JUMPDEST DUP1 ISZERO PUSH2 0x7F7 JUMPI DUP1 PUSH1 0x1F LT PUSH2 0x7CC JUMPI PUSH2 0x100 DUP1 DUP4 SLOAD DIV MUL DUP4 MSTORE SWAP2 PUSH1 0x20 ADD SWAP2 PUSH2 0x7F7 JUMP JUMPDEST DUP3 ADD SWAP2 SWAP1 PUSH1 0x0 MSTORE PUSH1 0x20 PUSH1 0x0 KECCAK256 SWAP1 JUMPDEST DUP2 SLOAD DUP2 MSTORE SWAP1 PUSH1 0x1 ADD SWAP1 PUSH1 0x20 ADD DUP1 DUP4 GT PUSH2 0x7DA JUMPI DUP3 SWAP1 SUB PUSH1 0x1F AND DUP3 ADD SWAP2 JUMPDEST POP POP POP POP POP SWAP1 POP SWAP1 JUMP JUMPDEST PUSH1 0x0 DUP2 DUP2 MSTORE PUSH1 0x5 PUSH1 0x20 MSTORE PUSH1 0x40 DUP2 KECCAK256 SLOAD PUSH1 0x1 PUSH1 0x1 PUSH1 0xA0 SHL SUB AND PUSH2 0x87F JUMPI PUSH1 0x40 MLOAD PUSH3 0x461BCD PUSH1 0xE5 SHL DUP2 MSTORE PUSH1 0x20 PUSH1 0x4 DUP3 ADD MSTORE PUSH1 0x2C PUSH1 0x24 DUP3 ADD MSTORE PUSH32 0x4552433732313A20617070726F76656420717565727920666F72206E6F6E6578 PUSH1 0x44 DUP3 ADD MSTORE PUSH12 0x34B9BA32B73A103A37B5B2B7 PUSH1 0xA1 SHL PUSH1 0x64 DUP3 ADD MSTORE PUSH1 0x84 ADD JUMPDEST PUSH1 0x40 MLOAD DUP1 SWAP2 SUB SWAP1 REVERT JUMPDEST POP PUSH1 0x0 SWAP1 DUP2 MSTORE PUSH1 0x7 PUSH1 0x20 MSTORE PUSH1 0x40 SWAP1 KECCAK256 SLOAD PUSH1 0x1 PUSH1 0x1 PUSH1 0xA0 SHL SUB AND SWAP1 JUMP JUMPDEST PUSH1 0x0 PUSH2 0x8A6 DUP3 PUSH2 0xF23 JUMP JUMPDEST SWAP1 POP DUP1 PUSH1 0x1 PUSH1 0x1 PUSH1 0xA0 SHL SUB AND DUP4 PUSH1 0x1 PUSH1 0x1 PUSH1 0xA0 SHL SUB AND SUB PUSH2 0x913 JUMPI PUSH1 0x40 MLOAD PUSH3 0x461BCD PUSH1 0xE5 SHL DUP2 MSTORE PUSH1 0x20 PUSH1 0x4 DUP3 ADD MSTORE PUSH1 0x21 PUSH1 0x24 DUP3 ADD MSTORE PUSH32 0x4552433732313A20617070726F76616C20746F2063757272656E74206F776E65 PUSH1 0x44 DUP3 ADD MSTORE PUSH1 0x39 PUSH1 0xF9 SHL PUSH1 0x64 DUP3 ADD MSTORE PUSH1 0x84 ADD PUSH2 0x876 JUMP JUMPDEST CALLER PUSH1 0x1 PUSH1 0x1 PUSH1 0xA0 SHL SUB DUP3 AND EQ DUP1 PUSH2 0x92F JUMPI POP PUSH2 0x92F DUP2 CALLER PUSH2 0x6F7 JUMP JUMPDEST PUSH2 0x9A1 JUMPI PUSH1 0x40 MLOAD PUSH3 0x461BCD PUSH1 0xE5 SHL DUP2 MSTORE PUSH1 0x20 PUSH1 0x4 DUP3 ADD MSTORE PUSH1 0x38 PUSH1 0x24 DUP3 ADD MSTORE PUSH32 0x4552433732313A20617070726F76652063616C6C6572206973206E6F74206F77 PUSH1 0x44 DUP3 ADD MSTORE PUSH32 0x6E6572206E6F7220617070726F76656420666F7220616C6C0000000000000000 PUSH1 0x64 DUP3 ADD MSTORE PUSH1 0x84 ADD PUSH2 0x876 JUMP JUMPDEST PUSH2 0x9AB DUP4 DUP4 PUSH2 0x1AEE JUMP JUMPDEST POP POP POP JUMP JUMPDEST PUSH1 0x0 PUSH1 0x14 PUSH2 0x9BD DUP5 PUSH2 0x1B5C JUMP JUMPDEST PUSH1 0x40 MLOAD PUSH2 0x9CA SWAP2 SWAP1 PUSH2 0x3662 JUMP JUMPDEST SWAP1 DUP2 MSTORE PUSH1 0x20 ADD PUSH1 0x40 MLOAD DUP1 SWAP2 SUB SWAP1 KECCAK256 PUSH2 0x9E1 DUP4 PUSH2 0x1B5C JUMP JUMPDEST PUSH1 0x40 MLOAD PUSH2 0x9EE SWAP2 SWAP1 PUSH2 0x3662 JUMP JUMPDEST SWAP1 DUP2 MSTORE PUSH1 0x20 ADD PUSH1 0x40 MLOAD DUP1 SWAP2 SUB SWAP1 KECCAK256 SLOAD SWAP1 POP SWAP3 SWAP2 POP POP JUMP JUMPDEST PUSH2 0xA10 CALLER JUMPDEST DUP3 PUSH2 0x1BD6 JUMP JUMPDEST PUSH2 0xA2C JUMPI PUSH1 0x40 MLOAD PUSH3 0x461BCD PUSH1 0xE5 SHL DUP2 MSTORE PUSH1 0x4 ADD PUSH2 0x876 SWAP1 PUSH2 0x367E JUMP JUMPDEST PUSH2 0x9AB DUP4 DUP4 DUP4 PUSH2 0x1CCD JUMP JUMPDEST PUSH2 0xA41 DUP3 DUP3 PUSH2 0x1E78 JUMP JUMPDEST PUSH1 0x0 DUP3 DUP2 MSTORE PUSH1 0x2 PUSH1 0x20 MSTORE PUSH1 0x40 SWAP1 KECCAK256 PUSH2 0x9AB SWAP1 DUP3 PUSH2 0x1AB4 JUMP JUMPDEST PUSH1 0x0 PUSH2 0xA64 DUP4 PUSH2 0xFFB JUMP JUMPDEST DUP3 LT PUSH2 0xAC6 JUMPI PUSH1 0x40 MLOAD PUSH3 0x461BCD PUSH1 0xE5 SHL DUP2 MSTORE PUSH1 0x20 PUSH1 0x4 DUP3 ADD MSTORE PUSH1 0x2B PUSH1 0x24 DUP3 ADD MSTORE PUSH32 0x455243373231456E756D657261626C653A206F776E657220696E646578206F75 PUSH1 0x44 DUP3 ADD MSTORE PUSH11 0x74206F6620626F756E6473 PUSH1 0xA8 SHL PUSH1 0x64 DUP3 ADD MSTORE PUSH1 0x84 ADD PUSH2 0x876 JUMP JUMPDEST POP PUSH1 0x1 PUSH1 0x1 PUSH1 0xA0 SHL SUB SWAP2 SWAP1 SWAP2 AND PUSH1 0x0 SWAP1 DUP2 MSTORE PUSH1 0x9 PUSH1 0x20 SWAP1 DUP2 MSTORE PUSH1 0x40 DUP1 DUP4 KECCAK256 SWAP4 DUP4 MSTORE SWAP3 SWAP1 MSTORE KECCAK256 SLOAD SWAP1 JUMP JUMPDEST PUSH1 0x0 DUP3 DUP2 MSTORE PUSH1 0x13 PUSH1 0x20 MSTORE PUSH1 0x40 SWAP1 KECCAK256 PUSH1 0x60 SWAP1 PUSH2 0xB09 DUP4 PUSH2 0x1B5C JUMP JUMPDEST PUSH1 0x40 MLOAD PUSH2 0xB16 SWAP2 SWAP1 PUSH2 0x3662 JUMP JUMPDEST SWAP1 DUP2 MSTORE PUSH1 0x20 ADD PUSH1 0x40 MLOAD DUP1 SWAP2 SUB SWAP1 KECCAK256 DUP1 SLOAD PUSH2 0xB2F SWAP1 PUSH2 0x3628 JUMP JUMPDEST DUP1 PUSH1 0x1F ADD PUSH1 0x20 DUP1 SWAP2 DIV MUL PUSH1 0x20 ADD PUSH1 0x40 MLOAD SWAP1 DUP2 ADD PUSH1 0x40 MSTORE DUP1 SWAP3 SWAP2 SWAP1 DUP2 DUP2 MSTORE PUSH1 0x20 ADD DUP3 DUP1 SLOAD PUSH2 0xB5B SWAP1 PUSH2 0x3628 JUMP JUMPDEST DUP1 ISZERO PUSH2 0xBA8 JUMPI DUP1 PUSH1 0x1F LT PUSH2 0xB7D JUMPI PUSH2 0x100 DUP1 DUP4 SLOAD DIV MUL DUP4 MSTORE SWAP2 PUSH1 0x20 ADD SWAP2 PUSH2 0xBA8 JUMP JUMPDEST DUP3 ADD SWAP2 SWAP1 PUSH1 0x0 MSTORE PUSH1 0x20 PUSH1 0x0 KECCAK256 SWAP1 JUMPDEST DUP2 SLOAD DUP2 MSTORE SWAP1 PUSH1 0x1 ADD SWAP1 PUSH1 0x20 ADD DUP1 DUP4 GT PUSH2 0xB8B JUMPI DUP3 SWAP1 SUB PUSH1 0x1F AND DUP3 ADD SWAP2 JUMPDEST POP POP POP POP POP SWAP1 POP SWAP3 SWAP2 POP POP JUMP JUMPDEST PUSH2 0xBBF DUP3 DUP3 PUSH2 0x1E9F JUMP JUMPDEST PUSH1 0x0 DUP3 DUP2 MSTORE PUSH1 0x2 PUSH1 0x20 MSTORE PUSH1 0x40 SWAP1 KECCAK256 PUSH2 0x9AB SWAP1 DUP3 PUSH2 0x1F19 JUMP JUMPDEST PUSH2 0xC01 PUSH32 0x65D7A28E3265B37A6474929F336521B332C1681B933F6CB9F3376673440D862A CALLER PUSH2 0x1261 JUMP JUMPDEST PUSH2 0xC75 JUMPI PUSH1 0x40 DUP1 MLOAD PUSH3 0x461BCD PUSH1 0xE5 SHL DUP2 MSTORE PUSH1 0x20 PUSH1 0x4 DUP3 ADD MSTORE PUSH1 0x24 DUP2 ADD SWAP2 SWAP1 SWAP2 MSTORE PUSH32 0x4552433732315072657365744D696E7465725061757365724175746F49643A20 PUSH1 0x44 DUP3 ADD MSTORE PUSH32 0x6D75737420686176652070617573657220726F6C6520746F20756E7061757365 PUSH1 0x64 DUP3 ADD MSTORE PUSH1 0x84 ADD PUSH2 0x876 JUMP JUMPDEST PUSH2 0xC7D PUSH2 0x1F2E JUMP JUMPDEST JUMP JUMPDEST PUSH2 0xCA9 PUSH32 0x9F2DF0FED2C77648DE5860A4CC508CD0818C85B8B8A1AB4CEEEF8D981C8956A6 CALLER PUSH2 0x1261 JUMP JUMPDEST PUSH2 0xCC5 JUMPI PUSH1 0x40 MLOAD PUSH3 0x461BCD PUSH1 0xE5 SHL DUP2 MSTORE PUSH1 0x4 ADD PUSH2 0x876 SWAP1 PUSH2 0x36CF JUMP JUMPDEST PUSH2 0xCCF DUP3 DUP3 PUSH2 0x1FC1 JUMP JUMPDEST DUP1 PUSH1 0x11 SLOAD LT ISZERO PUSH2 0xCDF JUMPI PUSH1 0x11 DUP2 SWAP1 SSTORE JUMPDEST POP POP JUMP JUMPDEST PUSH2 0x9AB DUP4 DUP4 DUP4 PUSH1 0x40 MLOAD DUP1 PUSH1 0x20 ADD PUSH1 0x40 MSTORE DUP1 PUSH1 0x0 DUP2 MSTORE POP PUSH2 0x1722 JUMP JUMPDEST PUSH2 0xD07 CALLER PUSH2 0xA0A JUMP JUMPDEST PUSH2 0xD6C JUMPI PUSH1 0x40 MLOAD PUSH3 0x461BCD PUSH1 0xE5 SHL DUP2 MSTORE PUSH1 0x20 PUSH1 0x4 DUP3 ADD MSTORE PUSH1 0x30 PUSH1 0x24 DUP3 ADD MSTORE PUSH32 0x4552433732314275726E61626C653A2063616C6C6572206973206E6F74206F77 PUSH1 0x44 DUP3 ADD MSTORE PUSH16 0x1B995C881B9BDC88185C1C1C9BDD9959 PUSH1 0x82 SHL PUSH1 0x64 DUP3 ADD MSTORE PUSH1 0x84 ADD PUSH2 0x876 JUMP JUMPDEST PUSH2 0xD75 DUP2 PUSH2 0x210F JUMP JUMPDEST POP JUMP JUMPDEST PUSH1 0x0 PUSH2 0xD83 PUSH1 0xB SLOAD SWAP1 JUMP JUMPDEST DUP3 LT PUSH2 0xDE6 JUMPI PUSH1 0x40 MLOAD PUSH3 0x461BCD PUSH1 0xE5 SHL DUP2 MSTORE PUSH1 0x20 PUSH1 0x4 DUP3 ADD MSTORE PUSH1 0x2C PUSH1 0x24 DUP3 ADD MSTORE PUSH32 0x455243373231456E756D657261626C653A20676C6F62616C20696E646578206F PUSH1 0x44 DUP3 ADD MSTORE PUSH12 0x7574206F6620626F756E6473 PUSH1 0xA0 SHL PUSH1 0x64 DUP3 ADD MSTORE PUSH1 0x84 ADD PUSH2 0x876 JUMP JUMPDEST PUSH1 0xB DUP3 DUP2 SLOAD DUP2 LT PUSH2 0xDF9 JUMPI PUSH2 0xDF9 PUSH2 0x372C JUMP JUMPDEST SWAP1 PUSH1 0x0 MSTORE PUSH1 0x20 PUSH1 0x0 KECCAK256 ADD SLOAD SWAP1 POP SWAP2 SWAP1 POP JUMP JUMPDEST PUSH1 0x0 PUSH2 0xE16 DUP4 PUSH2 0x1B5C JUMP JUMPDEST SWAP1 POP PUSH1 0x0 DUP5 GT PUSH2 0xE5C JUMPI PUSH1 0x40 MLOAD PUSH3 0x461BCD PUSH1 0xE5 SHL DUP2 MSTORE PUSH1 0x20 PUSH1 0x4 DUP3 ADD MSTORE PUSH1 0x11 PUSH1 0x24 DUP3 ADD MSTORE PUSH17 0x546F6B656E20494420697320656D707479 PUSH1 0x78 SHL PUSH1 0x44 DUP3 ADD MSTORE PUSH1 0x64 ADD PUSH2 0x876 JUMP JUMPDEST PUSH2 0xE67 PUSH1 0x0 CALLER PUSH2 0x1261 JUMP JUMPDEST PUSH2 0xE83 JUMPI PUSH1 0x40 MLOAD PUSH3 0x461BCD PUSH1 0xE5 SHL DUP2 MSTORE PUSH1 0x4 ADD PUSH2 0x876 SWAP1 PUSH2 0x3742 JUMP JUMPDEST DUP2 PUSH1 0x15 PUSH1 0x0 DUP7 DUP2 MSTORE PUSH1 0x20 ADD SWAP1 DUP2 MSTORE PUSH1 0x20 ADD PUSH1 0x0 KECCAK256 DUP3 PUSH1 0x40 MLOAD PUSH2 0xEA5 SWAP2 SWAP1 PUSH2 0x3662 JUMP JUMPDEST SWAP1 DUP2 MSTORE PUSH1 0x20 ADD PUSH1 0x40 MLOAD DUP1 SWAP2 SUB SWAP1 KECCAK256 SWAP1 DUP1 MLOAD SWAP1 PUSH1 0x20 ADD SWAP1 PUSH2 0xEC6 SWAP3 SWAP2 SWAP1 PUSH2 0x308A JUMP JUMPDEST POP DUP2 PUSH1 0x40 MLOAD PUSH2 0xED5 SWAP2 SWAP1 PUSH2 0x3662 JUMP JUMPDEST PUSH1 0x40 MLOAD DUP1 SWAP2 SUB SWAP1 KECCAK256 DUP2 PUSH1 0x40 MLOAD PUSH2 0xEEB SWAP2 SWAP1 PUSH2 0x3662 JUMP JUMPDEST PUSH1 0x40 MLOAD SWAP1 DUP2 SWAP1 SUB DUP2 KECCAK256 SWAP1 DUP7 SWAP1 PUSH32 0xADE921DD51E6A4EAB3CF4D99D430FB0760E5B953386B6196FF7FD65F6D31B065 SWAP1 PUSH1 0x0 SWAP1 LOG4 POP POP POP POP JUMP JUMPDEST PUSH1 0x0 DUP2 DUP2 MSTORE PUSH1 0x5 PUSH1 0x20 MSTORE PUSH1 0x40 DUP2 KECCAK256 SLOAD PUSH1 0x1 PUSH1 0x1 PUSH1 0xA0 SHL SUB AND DUP1 PUSH2 0x769 JUMPI PUSH1 0x40 MLOAD PUSH3 0x461BCD PUSH1 0xE5 SHL DUP2 MSTORE PUSH1 0x20 PUSH1 0x4 DUP3 ADD MSTORE PUSH1 0x29 PUSH1 0x24 DUP3 ADD MSTORE PUSH32 0x4552433732313A206F776E657220717565727920666F72206E6F6E6578697374 PUSH1 0x44 DUP3 ADD MSTORE PUSH9 0x32B73A103A37B5B2B7 PUSH1 0xB9 SHL PUSH1 0x64 DUP3 ADD MSTORE PUSH1 0x84 ADD PUSH2 0x876 JUMP JUMPDEST PUSH2 0xFC4 PUSH32 0x9F2DF0FED2C77648DE5860A4CC508CD0818C85B8B8A1AB4CEEEF8D981C8956A6 CALLER PUSH2 0x1261 JUMP JUMPDEST PUSH2 0xFE0 JUMPI PUSH1 0x40 MLOAD PUSH3 0x461BCD PUSH1 0xE5 SHL DUP2 MSTORE PUSH1 0x4 ADD PUSH2 0x876 SWAP1 PUSH2 0x36CF JUMP JUMPDEST PUSH2 0xFEA DUP5 DUP5 PUSH2 0x1FC1 JUMP JUMPDEST PUSH2 0xFF5 DUP4 DUP4 DUP4 PUSH2 0x14AD JUMP JUMPDEST POP POP POP POP JUMP JUMPDEST PUSH1 0x0 PUSH1 0x1 PUSH1 0x1 PUSH1 0xA0 SHL SUB DUP3 AND PUSH2 0x1066 JUMPI PUSH1 0x40 MLOAD PUSH3 0x461BCD PUSH1 0xE5 SHL DUP2 MSTORE PUSH1 0x20 PUSH1 0x4 DUP3 ADD MSTORE PUSH1 0x2A PUSH1 0x24 DUP3 ADD MSTORE PUSH32 0x4552433732313A2062616C616E636520717565727920666F7220746865207A65 PUSH1 0x44 DUP3 ADD MSTORE PUSH10 0x726F2061646472657373 PUSH1 0xB0 SHL PUSH1 0x64 DUP3 ADD MSTORE PUSH1 0x84 ADD PUSH2 0x876 JUMP JUMPDEST POP PUSH1 0x1 PUSH1 0x1 PUSH1 0xA0 SHL SUB AND PUSH1 0x0 SWAP1 DUP2 MSTORE PUSH1 0x6 PUSH1 0x20 MSTORE PUSH1 0x40 SWAP1 KECCAK256 SLOAD SWAP1 JUMP JUMPDEST PUSH1 0x0 SLOAD PUSH1 0x1 PUSH1 0x1 PUSH1 0xA0 SHL SUB AND CALLER EQ PUSH2 0x10DC JUMPI PUSH1 0x40 MLOAD PUSH3 0x461BCD PUSH1 0xE5 SHL DUP2 MSTORE PUSH1 0x20 PUSH1 0x4 DUP3 ADD DUP2 SWAP1 MSTORE PUSH1 0x24 DUP3 ADD MSTORE PUSH32 0x4F776E61626C653A2063616C6C6572206973206E6F7420746865206F776E6572 PUSH1 0x44 DUP3 ADD MSTORE PUSH1 0x64 ADD PUSH2 0x876 JUMP JUMPDEST PUSH2 0xC7D PUSH1 0x0 PUSH2 0x21B6 JUMP JUMPDEST PUSH1 0x60 PUSH1 0x12 PUSH2 0x10F3 DUP4 PUSH2 0x1B5C JUMP JUMPDEST PUSH1 0x40 MLOAD PUSH2 0x1100 SWAP2 SWAP1 PUSH2 0x3662 JUMP JUMPDEST SWAP1 DUP2 MSTORE PUSH1 0x20 ADD PUSH1 0x40 MLOAD DUP1 SWAP2 SUB SWAP1 KECCAK256 DUP1 SLOAD PUSH2 0x1119 SWAP1 PUSH2 0x3628 JUMP JUMPDEST DUP1 PUSH1 0x1F ADD PUSH1 0x20 DUP1 SWAP2 DIV MUL PUSH1 0x20 ADD PUSH1 0x40 MLOAD SWAP1 DUP2 ADD PUSH1 0x40 MSTORE DUP1 SWAP3 SWAP2 SWAP1 DUP2 DUP2 MSTORE PUSH1 0x20 ADD DUP3 DUP1 SLOAD PUSH2 0x1145 SWAP1 PUSH2 0x3628 JUMP JUMPDEST DUP1 ISZERO PUSH2 0x1192 JUMPI DUP1 PUSH1 0x1F LT PUSH2 0x1167 JUMPI PUSH2 0x100 DUP1 DUP4 SLOAD DIV MUL DUP4 MSTORE SWAP2 PUSH1 0x20 ADD SWAP2 PUSH2 0x1192 JUMP JUMPDEST DUP3 ADD SWAP2 SWAP1 PUSH1 0x0 MSTORE PUSH1 0x20 PUSH1 0x0 KECCAK256 SWAP1 JUMPDEST DUP2 SLOAD DUP2 MSTORE SWAP1 PUSH1 0x1 ADD SWAP1 PUSH1 0x20 ADD DUP1 DUP4 GT PUSH2 0x1175 JUMPI DUP3 SWAP1 SUB PUSH1 0x1F AND DUP3 ADD SWAP2 JUMPDEST POP POP POP POP POP SWAP1 POP SWAP2 SWAP1 POP JUMP JUMPDEST PUSH2 0x11C8 PUSH32 0x65D7A28E3265B37A6474929F336521B332C1681B933F6CB9F3376673440D862A CALLER PUSH2 0x1261 JUMP JUMPDEST PUSH2 0x123A JUMPI PUSH1 0x40 MLOAD PUSH3 0x461BCD PUSH1 0xE5 SHL DUP2 MSTORE PUSH1 0x20 PUSH1 0x4 DUP3 ADD MSTORE PUSH1 0x3E PUSH1 0x24 DUP3 ADD MSTORE PUSH32 0x4552433732315072657365744D696E7465725061757365724175746F49643A20 PUSH1 0x44 DUP3 ADD MSTORE PUSH32 0x6D75737420686176652070617573657220726F6C6520746F2070617573650000 PUSH1 0x64 DUP3 ADD MSTORE PUSH1 0x84 ADD PUSH2 0x876 JUMP JUMPDEST PUSH2 0xC7D PUSH2 0x2206 JUMP JUMPDEST PUSH1 0x0 DUP3 DUP2 MSTORE PUSH1 0x2 PUSH1 0x20 MSTORE PUSH1 0x40 DUP2 KECCAK256 PUSH2 0x125A SWAP1 DUP4 PUSH2 0x2281 JUMP JUMPDEST SWAP4 SWAP3 POP POP POP JUMP JUMPDEST PUSH1 0x0 SWAP2 DUP3 MSTORE PUSH1 0x1 PUSH1 0x20 SWAP1 DUP2 MSTORE PUSH1 0x40 DUP1 DUP5 KECCAK256 PUSH1 0x1 PUSH1 0x1 PUSH1 0xA0 SHL SUB SWAP4 SWAP1 SWAP4 AND DUP5 MSTORE SWAP2 SWAP1 MSTORE SWAP1 KECCAK256 SLOAD PUSH1 0xFF AND SWAP1 JUMP JUMPDEST PUSH1 0x60 PUSH1 0x4 DUP1 SLOAD PUSH2 0x77E SWAP1 PUSH2 0x3628 JUMP JUMPDEST CALLER PUSH1 0x1 PUSH1 0x1 PUSH1 0xA0 SHL SUB DUP4 AND SUB PUSH2 0x12F3 JUMPI PUSH1 0x40 MLOAD PUSH3 0x461BCD PUSH1 0xE5 SHL DUP2 MSTORE PUSH1 0x20 PUSH1 0x4 DUP3 ADD MSTORE PUSH1 0x19 PUSH1 0x24 DUP3 ADD MSTORE PUSH32 0x4552433732313A20617070726F766520746F2063616C6C657200000000000000 PUSH1 0x44 DUP3 ADD MSTORE PUSH1 0x64 ADD PUSH2 0x876 JUMP JUMPDEST CALLER PUSH1 0x0 DUP2 DUP2 MSTORE PUSH1 0x8 PUSH1 0x20 SWAP1 DUP2 MSTORE PUSH1 0x40 DUP1 DUP4 KECCAK256 PUSH1 0x1 PUSH1 0x1 PUSH1 0xA0 SHL SUB DUP8 AND DUP1 DUP6 MSTORE SWAP1 DUP4 MSTORE SWAP3 DUP2 SWAP1 KECCAK256 DUP1 SLOAD PUSH1 0xFF NOT AND DUP7 ISZERO ISZERO SWAP1 DUP2 OR SWAP1 SWAP2 SSTORE SWAP1 MLOAD SWAP1 DUP2 MSTORE SWAP2 SWAP3 SWAP2 PUSH32 0x17307EAB39AB6107E8899845AD3D59BD9653F200F220920489CA2B5937696C31 SWAP2 ADD PUSH1 0x40 MLOAD DUP1 SWAP2 SUB SWAP1 LOG3 POP POP JUMP JUMPDEST PUSH1 0x0 PUSH2 0x136A DUP5 PUSH2 0xF23 JUMP JUMPDEST PUSH1 0x1 PUSH1 0x1 PUSH1 0xA0 SHL SUB DUP2 AND PUSH1 0x0 SWAP1 DUP2 MSTORE PUSH1 0xE PUSH1 0x20 SWAP1 DUP2 MSTORE PUSH1 0x40 DUP1 DUP4 KECCAK256 DUP8 DUP5 MSTORE SWAP1 SWAP2 MSTORE SWAP1 KECCAK256 SLOAD SWAP1 SWAP2 POP PUSH1 0xFF AND ISZERO PUSH2 0x13FB JUMPI PUSH1 0x40 MLOAD PUSH3 0x461BCD PUSH1 0xE5 SHL DUP2 MSTORE PUSH1 0x20 PUSH1 0x4 DUP3 ADD MSTORE PUSH1 0x31 PUSH1 0x24 DUP3 ADD MSTORE PUSH32 0x455243373231436C61696D61626C653A2054686973206E6F6E63652068617320 PUSH1 0x44 DUP3 ADD MSTORE PUSH17 0x185B1C9958591E481899595B881D5CD959 PUSH1 0x7A SHL PUSH1 0x64 DUP3 ADD MSTORE PUSH1 0x84 ADD PUSH2 0x876 JUMP JUMPDEST PUSH2 0x1407 DUP2 DUP4 DUP7 DUP7 PUSH2 0x228D JUMP JUMPDEST PUSH2 0x146E JUMPI PUSH1 0x40 MLOAD PUSH3 0x461BCD PUSH1 0xE5 SHL DUP2 MSTORE PUSH1 0x20 PUSH1 0x4 DUP3 ADD MSTORE PUSH1 0x32 PUSH1 0x24 DUP3 ADD MSTORE PUSH32 0x455243373231436C61696D61626C653A20436C61696D546F6B656E207369676E PUSH1 0x44 DUP3 ADD MSTORE PUSH18 0x185D1D5C99481A5CC81B9BDD081D985B1A59 PUSH1 0x72 SHL PUSH1 0x64 DUP3 ADD MSTORE PUSH1 0x84 ADD PUSH2 0x876 JUMP JUMPDEST PUSH1 0x1 PUSH1 0x1 PUSH1 0xA0 SHL SUB DUP2 AND PUSH1 0x0 SWAP1 DUP2 MSTORE PUSH1 0xE PUSH1 0x20 SWAP1 DUP2 MSTORE PUSH1 0x40 DUP1 DUP4 KECCAK256 DUP7 DUP5 MSTORE SWAP1 SWAP2 MSTORE SWAP1 KECCAK256 DUP1 SLOAD PUSH1 0xFF NOT AND PUSH1 0x1 OR SWAP1 SSTORE PUSH2 0xFF5 DUP2 PUSH2 0x14A7 CALLER SWAP1 JUMP JUMPDEST DUP7 PUSH2 0x1CCD JUMP JUMPDEST PUSH1 0x0 PUSH2 0x14B8 DUP4 PUSH2 0x1B5C JUMP JUMPDEST SWAP1 POP PUSH1 0x0 PUSH2 0x14C5 DUP4 PUSH2 0x1B5C JUMP JUMPDEST SWAP1 POP PUSH1 0x0 DUP6 GT PUSH2 0x150B JUMPI PUSH1 0x40 MLOAD PUSH3 0x461BCD PUSH1 0xE5 SHL DUP2 MSTORE PUSH1 0x20 PUSH1 0x4 DUP3 ADD MSTORE PUSH1 0x11 PUSH1 0x24 DUP3 ADD MSTORE PUSH17 0x546F6B656E20494420697320656D707479 PUSH1 0x78 SHL PUSH1 0x44 DUP3 ADD MSTORE PUSH1 0x64 ADD PUSH2 0x876 JUMP JUMPDEST PUSH1 0x0 DUP6 DUP2 MSTORE PUSH1 0x13 PUSH1 0x20 MSTORE PUSH1 0x40 SWAP1 DUP2 SWAP1 KECCAK256 SWAP1 MLOAD PUSH2 0x1528 SWAP1 DUP5 SWAP1 PUSH2 0x3662 JUMP JUMPDEST SWAP1 DUP2 MSTORE PUSH1 0x20 ADD PUSH1 0x40 MLOAD DUP1 SWAP2 SUB SWAP1 KECCAK256 DUP1 SLOAD PUSH2 0x1541 SWAP1 PUSH2 0x3628 JUMP JUMPDEST ISZERO SWAP1 POP DUP1 ISZERO PUSH2 0x1551 JUMPI POP PUSH1 0x0 DUP3 MLOAD GT JUMPDEST PUSH2 0x159D JUMPI PUSH1 0x40 MLOAD PUSH3 0x461BCD PUSH1 0xE5 SHL DUP2 MSTORE PUSH1 0x20 PUSH1 0x4 DUP3 ADD MSTORE PUSH1 0x1D PUSH1 0x24 DUP3 ADD MSTORE PUSH32 0x45787465726E616C20494420697320616C726561647920736574207570000000 PUSH1 0x44 DUP3 ADD MSTORE PUSH1 0x64 ADD PUSH2 0x876 JUMP JUMPDEST PUSH1 0x14 DUP3 PUSH1 0x40 MLOAD PUSH2 0x15AD SWAP2 SWAP1 PUSH2 0x3662 JUMP JUMPDEST SWAP1 DUP2 MSTORE PUSH1 0x20 ADD PUSH1 0x40 MLOAD DUP1 SWAP2 SUB SWAP1 KECCAK256 DUP2 PUSH1 0x40 MLOAD PUSH2 0x15C9 SWAP2 SWAP1 PUSH2 0x3662 JUMP JUMPDEST SWAP1 DUP2 MSTORE PUSH1 0x20 ADD PUSH1 0x40 MLOAD DUP1 SWAP2 SUB SWAP1 KECCAK256 SLOAD PUSH1 0x0 EQ PUSH2 0x161D JUMPI PUSH1 0x40 MLOAD PUSH3 0x461BCD PUSH1 0xE5 SHL DUP2 MSTORE PUSH1 0x20 PUSH1 0x4 DUP3 ADD MSTORE PUSH1 0x13 PUSH1 0x24 DUP3 ADD MSTORE PUSH19 0x56616C7565206973206E6F7420756E69717565 PUSH1 0x68 SHL PUSH1 0x44 DUP3 ADD MSTORE PUSH1 0x64 ADD PUSH2 0x876 JUMP JUMPDEST PUSH2 0x1628 PUSH1 0x0 CALLER PUSH2 0x1261 JUMP JUMPDEST PUSH2 0x1644 JUMPI PUSH1 0x40 MLOAD PUSH3 0x461BCD PUSH1 0xE5 SHL DUP2 MSTORE PUSH1 0x4 ADD PUSH2 0x876 SWAP1 PUSH2 0x3742 JUMP JUMPDEST DUP3 PUSH1 0x13 PUSH1 0x0 DUP8 DUP2 MSTORE PUSH1 0x20 ADD SWAP1 DUP2 MSTORE PUSH1 0x20 ADD PUSH1 0x0 KECCAK256 DUP4 PUSH1 0x40 MLOAD PUSH2 0x1666 SWAP2 SWAP1 PUSH2 0x3662 JUMP JUMPDEST SWAP1 DUP2 MSTORE PUSH1 0x20 ADD PUSH1 0x40 MLOAD DUP1 SWAP2 SUB SWAP1 KECCAK256 SWAP1 DUP1 MLOAD SWAP1 PUSH1 0x20 ADD SWAP1 PUSH2 0x1687 SWAP3 SWAP2 SWAP1 PUSH2 0x308A JUMP JUMPDEST POP DUP5 PUSH1 0x14 DUP4 PUSH1 0x40 MLOAD PUSH2 0x1699 SWAP2 SWAP1 PUSH2 0x3662 JUMP JUMPDEST SWAP1 DUP2 MSTORE PUSH1 0x20 ADD PUSH1 0x40 MLOAD DUP1 SWAP2 SUB SWAP1 KECCAK256 DUP3 PUSH1 0x40 MLOAD PUSH2 0x16B5 SWAP2 SWAP1 PUSH2 0x3662 JUMP JUMPDEST SWAP1 DUP2 MSTORE PUSH1 0x40 MLOAD SWAP1 DUP2 SWAP1 SUB PUSH1 0x20 ADD DUP2 KECCAK256 SWAP2 SWAP1 SWAP2 SSTORE PUSH2 0x16D3 SWAP1 DUP5 SWAP1 PUSH2 0x3662 JUMP JUMPDEST PUSH1 0x40 MLOAD DUP1 SWAP2 SUB SWAP1 KECCAK256 DUP3 PUSH1 0x40 MLOAD PUSH2 0x16E9 SWAP2 SWAP1 PUSH2 0x3662 JUMP JUMPDEST PUSH1 0x40 MLOAD SWAP1 DUP2 SWAP1 SUB DUP2 KECCAK256 SWAP1 DUP8 SWAP1 PUSH32 0x81E87B824090F08A616C9BFB3DC374AD3DE0F2CAE5F6E747AC3E1C81BD144E19 SWAP1 PUSH1 0x0 SWAP1 LOG4 POP POP POP POP POP JUMP JUMPDEST PUSH2 0x172C CALLER DUP4 PUSH2 0x1BD6 JUMP JUMPDEST PUSH2 0x1748 JUMPI PUSH1 0x40 MLOAD PUSH3 0x461BCD PUSH1 0xE5 SHL DUP2 MSTORE PUSH1 0x4 ADD PUSH2 0x876 SWAP1 PUSH2 0x367E JUMP JUMPDEST PUSH2 0xFF5 DUP5 DUP5 DUP5 DUP5 PUSH2 0x2365 JUMP JUMPDEST PUSH1 0x0 PUSH2 0x175F DUP4 PUSH2 0x1B5C JUMP JUMPDEST SWAP1 POP PUSH2 0x176C PUSH1 0x0 CALLER PUSH2 0x1261 JUMP JUMPDEST PUSH2 0x1788 JUMPI PUSH1 0x40 MLOAD PUSH3 0x461BCD PUSH1 0xE5 SHL DUP2 MSTORE PUSH1 0x4 ADD PUSH2 0x876 SWAP1 PUSH2 0x3742 JUMP JUMPDEST DUP2 PUSH1 0x12 DUP3 PUSH1 0x40 MLOAD PUSH2 0x1799 SWAP2 SWAP1 PUSH2 0x3662 JUMP JUMPDEST SWAP1 DUP2 MSTORE PUSH1 0x20 ADD PUSH1 0x40 MLOAD DUP1 SWAP2 SUB SWAP1 KECCAK256 SWAP1 DUP1 MLOAD SWAP1 PUSH1 0x20 ADD SWAP1 PUSH2 0x17BA SWAP3 SWAP2 SWAP1 PUSH2 0x308A JUMP JUMPDEST POP DUP2 PUSH1 0x40 MLOAD PUSH2 0x17C9 SWAP2 SWAP1 PUSH2 0x3662 JUMP JUMPDEST PUSH1 0x40 MLOAD DUP1 SWAP2 SUB SWAP1 KECCAK256 DUP2 PUSH1 0x40 MLOAD PUSH2 0x17DF SWAP2 SWAP1 PUSH2 0x3662 JUMP JUMPDEST PUSH1 0x40 MLOAD SWAP1 DUP2 SWAP1 SUB DUP2 KECCAK256 SWAP1 PUSH32 0xDA203C13CE16CBAF7EE9A2A14F5088F006D4816BFF66414E3B7E546408B141CF SWAP1 PUSH1 0x0 SWAP1 LOG3 POP POP POP JUMP JUMPDEST PUSH1 0x60 PUSH1 0xF DUP1 SLOAD PUSH2 0x77E SWAP1 PUSH2 0x3628 JUMP JUMPDEST PUSH1 0x0 DUP2 DUP2 MSTORE PUSH1 0x5 PUSH1 0x20 MSTORE PUSH1 0x40 SWAP1 KECCAK256 SLOAD PUSH1 0x60 SWAP1 PUSH1 0x1 PUSH1 0x1 PUSH1 0xA0 SHL SUB AND PUSH2 0x18A2 JUMPI PUSH1 0x40 MLOAD PUSH3 0x461BCD PUSH1 0xE5 SHL DUP2 MSTORE PUSH1 0x20 PUSH1 0x4 DUP3 ADD MSTORE PUSH1 0x2F PUSH1 0x24 DUP3 ADD MSTORE PUSH32 0x4552433732314D657461646174613A2055524920717565727920666F72206E6F PUSH1 0x44 DUP3 ADD MSTORE PUSH15 0x3732BC34B9BA32B73A103A37B5B2B7 PUSH1 0x89 SHL PUSH1 0x64 DUP3 ADD MSTORE PUSH1 0x84 ADD PUSH2 0x876 JUMP JUMPDEST PUSH1 0x0 PUSH2 0x18AC PUSH2 0x1814 JUMP JUMPDEST SWAP1 POP PUSH1 0x0 DUP2 MLOAD GT PUSH2 0x18CC JUMPI PUSH1 0x40 MLOAD DUP1 PUSH1 0x20 ADD PUSH1 0x40 MSTORE DUP1 PUSH1 0x0 DUP2 MSTORE POP PUSH2 0x125A JUMP JUMPDEST DUP1 PUSH2 0x18D6 DUP5 PUSH2 0x2398 JUMP JUMPDEST PUSH1 0x40 MLOAD PUSH1 0x20 ADD PUSH2 0x18E7 SWAP3 SWAP2 SWAP1 PUSH2 0x3789 JUMP JUMPDEST PUSH1 0x40 MLOAD PUSH1 0x20 DUP2 DUP4 SUB SUB DUP2 MSTORE SWAP1 PUSH1 0x40 MSTORE SWAP4 SWAP3 POP POP POP JUMP JUMPDEST PUSH1 0x0 DUP2 DUP2 MSTORE PUSH1 0x2 PUSH1 0x20 MSTORE PUSH1 0x40 DUP2 KECCAK256 PUSH2 0x769 SWAP1 PUSH2 0x2499 JUMP JUMPDEST PUSH1 0x0 DUP3 DUP2 MSTORE PUSH1 0x15 PUSH1 0x20 MSTORE PUSH1 0x40 SWAP1 KECCAK256 PUSH1 0x60 SWAP1 PUSH2 0xB09 DUP4 PUSH2 0x1B5C JUMP JUMPDEST PUSH2 0xBBF DUP3 DUP3 PUSH2 0x24A3 JUMP JUMPDEST PUSH1 0x0 DUP2 DUP2 MSTORE PUSH1 0x13 PUSH1 0x20 MSTORE PUSH1 0x40 SWAP1 DUP2 SWAP1 KECCAK256 SWAP1 MLOAD PUSH3 0x4E4643 PUSH1 0xE8 SHL DUP2 MSTORE PUSH1 0x60 SWAP2 SWAP1 PUSH1 0x3 ADD PUSH2 0x1100 JUMP JUMPDEST PUSH1 0x60 PUSH1 0x10 DUP1 SLOAD PUSH2 0x77E SWAP1 PUSH2 0x3628 JUMP JUMPDEST PUSH1 0x0 SLOAD PUSH1 0x1 PUSH1 0x1 PUSH1 0xA0 SHL SUB AND CALLER EQ PUSH2 0x19C8 JUMPI PUSH1 0x40 MLOAD PUSH3 0x461BCD PUSH1 0xE5 SHL DUP2 MSTORE PUSH1 0x20 PUSH1 0x4 DUP3 ADD DUP2 SWAP1 MSTORE PUSH1 0x24 DUP3 ADD MSTORE PUSH32 0x4F776E61626C653A2063616C6C6572206973206E6F7420746865206F776E6572 PUSH1 0x44 DUP3 ADD MSTORE PUSH1 0x64 ADD PUSH2 0x876 JUMP JUMPDEST PUSH1 0x1 PUSH1 0x1 PUSH1 0xA0 SHL SUB DUP2 AND PUSH2 0x1A2D JUMPI PUSH1 0x40 MLOAD PUSH3 0x461BCD PUSH1 0xE5 SHL DUP2 MSTORE PUSH1 0x20 PUSH1 0x4 DUP3 ADD MSTORE PUSH1 0x26 PUSH1 0x24 DUP3 ADD MSTORE PUSH32 0x4F776E61626C653A206E6577206F776E657220697320746865207A65726F2061 PUSH1 0x44 DUP3 ADD MSTORE PUSH6 0x646472657373 PUSH1 0xD0 SHL PUSH1 0x64 DUP3 ADD MSTORE PUSH1 0x84 ADD PUSH2 0x876 JUMP JUMPDEST PUSH2 0xD75 DUP2 PUSH2 0x21B6 JUMP JUMPDEST PUSH1 0x0 PUSH2 0x769 PUSH1 0x40 MLOAD DUP1 PUSH1 0x40 ADD PUSH1 0x40 MSTORE DUP1 PUSH1 0x3 DUP2 MSTORE PUSH1 0x20 ADD PUSH3 0x4E4643 PUSH1 0xE8 SHL DUP2 MSTORE POP DUP4 PUSH2 0x9B0 JUMP JUMPDEST PUSH2 0x1A68 PUSH1 0x0 CALLER PUSH2 0x1261 JUMP JUMPDEST PUSH2 0x1A84 JUMPI PUSH1 0x40 MLOAD PUSH3 0x461BCD PUSH1 0xE5 SHL DUP2 MSTORE PUSH1 0x4 ADD PUSH2 0x876 SWAP1 PUSH2 0x3742 JUMP JUMPDEST PUSH2 0xCDF DUP3 PUSH1 0x40 MLOAD DUP1 PUSH1 0x40 ADD PUSH1 0x40 MSTORE DUP1 PUSH1 0x3 DUP2 MSTORE PUSH1 0x20 ADD PUSH3 0x4E4643 PUSH1 0xE8 SHL DUP2 MSTORE POP DUP4 PUSH2 0x14AD JUMP JUMPDEST PUSH2 0xCDF DUP3 DUP3 PUSH2 0x24CA JUMP JUMPDEST PUSH1 0x0 PUSH2 0x125A DUP4 PUSH1 0x1 PUSH1 0x1 PUSH1 0xA0 SHL SUB DUP5 AND PUSH2 0x2535 JUMP JUMPDEST PUSH1 0x0 PUSH1 0x1 PUSH1 0x1 PUSH1 0xE0 SHL SUB NOT DUP3 AND PUSH4 0x780E9D63 PUSH1 0xE0 SHL EQ DUP1 PUSH2 0x769 JUMPI POP PUSH2 0x769 DUP3 PUSH2 0x2584 JUMP JUMPDEST PUSH1 0x0 DUP2 DUP2 MSTORE PUSH1 0x7 PUSH1 0x20 MSTORE PUSH1 0x40 SWAP1 KECCAK256 DUP1 SLOAD PUSH1 0x1 PUSH1 0x1 PUSH1 0xA0 SHL SUB NOT AND PUSH1 0x1 PUSH1 0x1 PUSH1 0xA0 SHL SUB DUP5 AND SWAP1 DUP2 OR SWAP1 SWAP2 SSTORE DUP2 SWAP1 PUSH2 0x1B23 DUP3 PUSH2 0xF23 JUMP JUMPDEST PUSH1 0x1 PUSH1 0x1 PUSH1 0xA0 SHL SUB AND PUSH32 0x8C5BE1E5EBEC7D5BD14F71427D1E84F3DD0314C0F7B2291E5B200AC8C7C3B925 PUSH1 0x40 MLOAD PUSH1 0x40 MLOAD DUP1 SWAP2 SUB SWAP1 LOG4 POP POP JUMP JUMPDEST PUSH1 0x60 DUP2 PUSH1 0x0 JUMPDEST DUP2 MLOAD DUP2 LT ISZERO PUSH2 0x1BCF JUMPI PUSH2 0x1B94 DUP3 DUP3 DUP2 MLOAD DUP2 LT PUSH2 0x1B80 JUMPI PUSH2 0x1B80 PUSH2 0x372C JUMP JUMPDEST ADD PUSH1 0x20 ADD MLOAD PUSH1 0x1 PUSH1 0x1 PUSH1 0xF8 SHL SUB NOT AND PUSH2 0x25C4 JUMP JUMPDEST DUP3 DUP3 DUP2 MLOAD DUP2 LT PUSH2 0x1BA6 JUMPI PUSH2 0x1BA6 PUSH2 0x372C JUMP JUMPDEST PUSH1 0x20 ADD ADD SWAP1 PUSH1 0x1 PUSH1 0x1 PUSH1 0xF8 SHL SUB NOT AND SWAP1 DUP2 PUSH1 0x0 BYTE SWAP1 MSTORE8 POP DUP1 PUSH2 0x1BC7 DUP2 PUSH2 0x37CE JUMP JUMPDEST SWAP2 POP POP PUSH2 0x1B62 JUMP JUMPDEST POP SWAP3 SWAP2 POP POP JUMP JUMPDEST PUSH1 0x0 DUP2 DUP2 MSTORE PUSH1 0x5 PUSH1 0x20 MSTORE PUSH1 0x40 DUP2 KECCAK256 SLOAD PUSH1 0x1 PUSH1 0x1 PUSH1 0xA0 SHL SUB AND PUSH2 0x1C4F JUMPI PUSH1 0x40 MLOAD PUSH3 0x461BCD PUSH1 0xE5 SHL DUP2 MSTORE PUSH1 0x20 PUSH1 0x4 DUP3 ADD MSTORE PUSH1 0x2C PUSH1 0x24 DUP3 ADD MSTORE PUSH32 0x4552433732313A206F70657261746F7220717565727920666F72206E6F6E6578 PUSH1 0x44 DUP3 ADD MSTORE PUSH12 0x34B9BA32B73A103A37B5B2B7 PUSH1 0xA1 SHL PUSH1 0x64 DUP3 ADD MSTORE PUSH1 0x84 ADD PUSH2 0x876 JUMP JUMPDEST PUSH1 0x0 PUSH2 0x1C5A DUP4 PUSH2 0xF23 JUMP JUMPDEST SWAP1 POP DUP1 PUSH1 0x1 PUSH1 0x1 PUSH1 0xA0 SHL SUB AND DUP5 PUSH1 0x1 PUSH1 0x1 PUSH1 0xA0 SHL SUB AND EQ DUP1 PUSH2 0x1C95 JUMPI POP DUP4 PUSH1 0x1 PUSH1 0x1 PUSH1 0xA0 SHL SUB AND PUSH2 0x1C8A DUP5 PUSH2 0x801 JUMP JUMPDEST PUSH1 0x1 PUSH1 0x1 PUSH1 0xA0 SHL SUB AND EQ JUMPDEST DUP1 PUSH2 0x1CC5 JUMPI POP PUSH1 0x1 PUSH1 0x1 PUSH1 0xA0 SHL SUB DUP1 DUP3 AND PUSH1 0x0 SWAP1 DUP2 MSTORE PUSH1 0x8 PUSH1 0x20 SWAP1 DUP2 MSTORE PUSH1 0x40 DUP1 DUP4 KECCAK256 SWAP4 DUP9 AND DUP4 MSTORE SWAP3 SWAP1 MSTORE KECCAK256 SLOAD PUSH1 0xFF AND JUMPDEST SWAP5 SWAP4 POP POP POP POP JUMP JUMPDEST DUP3 PUSH1 0x1 PUSH1 0x1 PUSH1 0xA0 SHL SUB AND PUSH2 0x1CE0 DUP3 PUSH2 0xF23 JUMP JUMPDEST PUSH1 0x1 PUSH1 0x1 PUSH1 0xA0 SHL SUB AND EQ PUSH2 0x1D48 JUMPI PUSH1 0x40 MLOAD PUSH3 0x461BCD PUSH1 0xE5 SHL DUP2 MSTORE PUSH1 0x20 PUSH1 0x4 DUP3 ADD MSTORE PUSH1 0x29 PUSH1 0x24 DUP3 ADD MSTORE PUSH32 0x4552433732313A207472616E73666572206F6620746F6B656E20746861742069 PUSH1 0x44 DUP3 ADD MSTORE PUSH9 0x39903737BA1037BBB7 PUSH1 0xB9 SHL PUSH1 0x64 DUP3 ADD MSTORE PUSH1 0x84 ADD PUSH2 0x876 JUMP JUMPDEST PUSH1 0x1 PUSH1 0x1 PUSH1 0xA0 SHL SUB DUP3 AND PUSH2 0x1DAA JUMPI PUSH1 0x40 MLOAD PUSH3 0x461BCD PUSH1 0xE5 SHL DUP2 MSTORE PUSH1 0x20 PUSH1 0x4 DUP3 ADD MSTORE PUSH1 0x24 DUP1 DUP3 ADD MSTORE PUSH32 0x4552433732313A207472616E7366657220746F20746865207A65726F20616464 PUSH1 0x44 DUP3 ADD MSTORE PUSH4 0x72657373 PUSH1 0xE0 SHL PUSH1 0x64 DUP3 ADD MSTORE PUSH1 0x84 ADD PUSH2 0x876 JUMP JUMPDEST PUSH2 0x1DB5 DUP4 DUP4 DUP4 PUSH2 0x2613 JUMP JUMPDEST PUSH2 0x1DC0 PUSH1 0x0 DUP3 PUSH2 0x1AEE JUMP JUMPDEST PUSH1 0x1 PUSH1 0x1 PUSH1 0xA0 SHL SUB DUP4 AND PUSH1 0x0 SWAP1 DUP2 MSTORE PUSH1 0x6 PUSH1 0x20 MSTORE PUSH1 0x40 DUP2 KECCAK256 DUP1 SLOAD PUSH1 0x1 SWAP3 SWAP1 PUSH2 0x1DE9 SWAP1 DUP5 SWAP1 PUSH2 0x37E7 JUMP JUMPDEST SWAP1 SWAP2 SSTORE POP POP PUSH1 0x1 PUSH1 0x1 PUSH1 0xA0 SHL SUB DUP3 AND PUSH1 0x0 SWAP1 DUP2 MSTORE PUSH1 0x6 PUSH1 0x20 MSTORE PUSH1 0x40 DUP2 KECCAK256 DUP1 SLOAD PUSH1 0x1 SWAP3 SWAP1 PUSH2 0x1E17 SWAP1 DUP5 SWAP1 PUSH2 0x37FE JUMP JUMPDEST SWAP1 SWAP2 SSTORE POP POP PUSH1 0x0 DUP2 DUP2 MSTORE PUSH1 0x5 PUSH1 0x20 MSTORE PUSH1 0x40 DUP1 DUP3 KECCAK256 DUP1 SLOAD PUSH1 0x1 PUSH1 0x1 PUSH1 0xA0 SHL SUB NOT AND PUSH1 0x1 PUSH1 0x1 PUSH1 0xA0 SHL SUB DUP7 DUP2 AND SWAP2 DUP3 OR SWAP1 SWAP3 SSTORE SWAP2 MLOAD DUP5 SWAP4 SWAP2 DUP8 AND SWAP2 PUSH32 0xDDF252AD1BE2C89B69C2B068FC378DAA952BA7F163C4A11628F55A4DF523B3EF SWAP2 LOG4 POP POP POP JUMP JUMPDEST PUSH1 0x0 DUP3 DUP2 MSTORE PUSH1 0x1 PUSH1 0x20 DUP2 SWAP1 MSTORE PUSH1 0x40 SWAP1 SWAP2 KECCAK256 ADD SLOAD PUSH2 0x1E95 DUP2 CALLER PUSH2 0x261E JUMP JUMPDEST PUSH2 0x9AB DUP4 DUP4 PUSH2 0x24CA JUMP JUMPDEST PUSH1 0x1 PUSH1 0x1 PUSH1 0xA0 SHL SUB DUP2 AND CALLER EQ PUSH2 0x1F0F JUMPI PUSH1 0x40 MLOAD PUSH3 0x461BCD PUSH1 0xE5 SHL DUP2 MSTORE PUSH1 0x20 PUSH1 0x4 DUP3 ADD MSTORE PUSH1 0x2F PUSH1 0x24 DUP3 ADD MSTORE PUSH32 0x416363657373436F6E74726F6C3A2063616E206F6E6C792072656E6F756E6365 PUSH1 0x44 DUP3 ADD MSTORE PUSH15 0x103937B632B9903337B91039B2B633 PUSH1 0x89 SHL PUSH1 0x64 DUP3 ADD MSTORE PUSH1 0x84 ADD PUSH2 0x876 JUMP JUMPDEST PUSH2 0xCDF DUP3 DUP3 PUSH2 0x2682 JUMP JUMPDEST PUSH1 0x0 PUSH2 0x125A DUP4 PUSH1 0x1 PUSH1 0x1 PUSH1 0xA0 SHL SUB DUP5 AND PUSH2 0x26E9 JUMP JUMPDEST PUSH1 0xD SLOAD PUSH1 0xFF AND PUSH2 0x1F77 JUMPI PUSH1 0x40 MLOAD PUSH3 0x461BCD PUSH1 0xE5 SHL DUP2 MSTORE PUSH1 0x20 PUSH1 0x4 DUP3 ADD MSTORE PUSH1 0x14 PUSH1 0x24 DUP3 ADD MSTORE PUSH20 0x14185D5CD8589B194E881B9BDD081C185D5CD959 PUSH1 0x62 SHL PUSH1 0x44 DUP3 ADD MSTORE PUSH1 0x64 ADD PUSH2 0x876 JUMP JUMPDEST PUSH1 0xD DUP1 SLOAD PUSH1 0xFF NOT AND SWAP1 SSTORE PUSH32 0x5DB9EE0A495BF2E6FF9C91A7834C1BA4FDD244A5E8AA4E537BD38AEAE4B073AA CALLER JUMPDEST PUSH1 0x40 MLOAD PUSH1 0x1 PUSH1 0x1 PUSH1 0xA0 SHL SUB SWAP1 SWAP2 AND DUP2 MSTORE PUSH1 0x20 ADD PUSH1 0x40 MLOAD DUP1 SWAP2 SUB SWAP1 LOG1 JUMP JUMPDEST PUSH1 0x1 PUSH1 0x1 PUSH1 0xA0 SHL SUB DUP3 AND PUSH2 0x2017 JUMPI PUSH1 0x40 MLOAD PUSH3 0x461BCD PUSH1 0xE5 SHL DUP2 MSTORE PUSH1 0x20 PUSH1 0x4 DUP3 ADD DUP2 SWAP1 MSTORE PUSH1 0x24 DUP3 ADD MSTORE PUSH32 0x4552433732313A206D696E7420746F20746865207A65726F2061646472657373 PUSH1 0x44 DUP3 ADD MSTORE PUSH1 0x64 ADD PUSH2 0x876 JUMP JUMPDEST PUSH1 0x0 DUP2 DUP2 MSTORE PUSH1 0x5 PUSH1 0x20 MSTORE PUSH1 0x40 SWAP1 KECCAK256 SLOAD PUSH1 0x1 PUSH1 0x1 PUSH1 0xA0 SHL SUB AND ISZERO PUSH2 0x207C JUMPI PUSH1 0x40 MLOAD PUSH3 0x461BCD PUSH1 0xE5 SHL DUP2 MSTORE PUSH1 0x20 PUSH1 0x4 DUP3 ADD MSTORE PUSH1 0x1C PUSH1 0x24 DUP3 ADD MSTORE PUSH32 0x4552433732313A20746F6B656E20616C7265616479206D696E74656400000000 PUSH1 0x44 DUP3 ADD MSTORE PUSH1 0x64 ADD PUSH2 0x876 JUMP JUMPDEST PUSH2 0x2088 PUSH1 0x0 DUP4 DUP4 PUSH2 0x2613 JUMP JUMPDEST PUSH1 0x1 PUSH1 0x1 PUSH1 0xA0 SHL SUB DUP3 AND PUSH1 0x0 SWAP1 DUP2 MSTORE PUSH1 0x6 PUSH1 0x20 MSTORE PUSH1 0x40 DUP2 KECCAK256 DUP1 SLOAD PUSH1 0x1 SWAP3 SWAP1 PUSH2 0x20B1 SWAP1 DUP5 SWAP1 PUSH2 0x37FE JUMP JUMPDEST SWAP1 SWAP2 SSTORE POP POP PUSH1 0x0 DUP2 DUP2 MSTORE PUSH1 0x5 PUSH1 0x20 MSTORE PUSH1 0x40 DUP1 DUP3 KECCAK256 DUP1 SLOAD PUSH1 0x1 PUSH1 0x1 PUSH1 0xA0 SHL SUB NOT AND PUSH1 0x1 PUSH1 0x1 PUSH1 0xA0 SHL SUB DUP7 AND SWAP1 DUP2 OR SWAP1 SWAP2 SSTORE SWAP1 MLOAD DUP4 SWAP3 SWAP1 PUSH32 0xDDF252AD1BE2C89B69C2B068FC378DAA952BA7F163C4A11628F55A4DF523B3EF SWAP1 DUP3 SWAP1 LOG4 POP POP JUMP JUMPDEST PUSH1 0x0 PUSH2 0x211A DUP3 PUSH2 0xF23 JUMP JUMPDEST SWAP1 POP PUSH2 0x2128 DUP2 PUSH1 0x0 DUP5 PUSH2 0x2613 JUMP JUMPDEST PUSH2 0x2133 PUSH1 0x0 DUP4 PUSH2 0x1AEE JUMP JUMPDEST PUSH1 0x1 PUSH1 0x1 PUSH1 0xA0 SHL SUB DUP2 AND PUSH1 0x0 SWAP1 DUP2 MSTORE PUSH1 0x6 PUSH1 0x20 MSTORE PUSH1 0x40 DUP2 KECCAK256 DUP1 SLOAD PUSH1 0x1 SWAP3 SWAP1 PUSH2 0x215C SWAP1 DUP5 SWAP1 PUSH2 0x37E7 JUMP JUMPDEST SWAP1 SWAP2 SSTORE POP POP PUSH1 0x0 DUP3 DUP2 MSTORE PUSH1 0x5 PUSH1 0x20 MSTORE PUSH1 0x40 DUP1 DUP3 KECCAK256 DUP1 SLOAD PUSH1 0x1 PUSH1 0x1 PUSH1 0xA0 SHL SUB NOT AND SWAP1 SSTORE MLOAD DUP4 SWAP2 SWAP1 PUSH1 0x1 PUSH1 0x1 PUSH1 0xA0 SHL SUB DUP5 AND SWAP1 PUSH32 0xDDF252AD1BE2C89B69C2B068FC378DAA952BA7F163C4A11628F55A4DF523B3EF SWAP1 DUP4 SWAP1 LOG4 POP POP JUMP JUMPDEST PUSH1 0x0 DUP1 SLOAD PUSH1 0x1 PUSH1 0x1 PUSH1 0xA0 SHL SUB DUP4 DUP2 AND PUSH1 0x1 PUSH1 0x1 PUSH1 0xA0 SHL SUB NOT DUP4 AND DUP2 OR DUP5 SSTORE PUSH1 0x40 MLOAD SWAP2 SWAP1 SWAP3 AND SWAP3 DUP4 SWAP2 PUSH32 0x8BE0079C531659141344CD1FD0A4F28419497F9722A3DAAFE3B4186F6B6457E0 SWAP2 SWAP1 LOG3 POP POP JUMP JUMPDEST PUSH1 0xD SLOAD PUSH1 0xFF AND ISZERO PUSH2 0x224C JUMPI PUSH1 0x40 MLOAD PUSH3 0x461BCD PUSH1 0xE5 SHL DUP2 MSTORE PUSH1 0x20 PUSH1 0x4 DUP3 ADD MSTORE PUSH1 0x10 PUSH1 0x24 DUP3 ADD MSTORE PUSH16 0x14185D5CD8589B194E881C185D5CD959 PUSH1 0x82 SHL PUSH1 0x44 DUP3 ADD MSTORE PUSH1 0x64 ADD PUSH2 0x876 JUMP JUMPDEST PUSH1 0xD DUP1 SLOAD PUSH1 0xFF NOT AND PUSH1 0x1 OR SWAP1 SSTORE PUSH32 0x62E78CEA01BEE320CD4E420270B5EA74000D11B0C9F74754EBDBFC544B05A258 PUSH2 0x1FA4 CALLER SWAP1 JUMP JUMPDEST PUSH1 0x0 PUSH2 0x125A DUP4 DUP4 PUSH2 0x27DC JUMP JUMPDEST PUSH1 0x40 MLOAD PUSH2 0x165F PUSH1 0xEE SHL DUP2 MSTORE PUSH1 0x4 DUP2 ADD DUP4 SWAP1 MSTORE PUSH1 0x24 DUP2 ADD DUP3 SWAP1 MSTORE PUSH1 0x0 SWAP1 DUP2 SWAP1 PUSH2 0x234E SWAP1 ADDRESS SWAP1 PUSH4 0x597C000 SWAP1 PUSH1 0x44 ADD PUSH1 0x20 PUSH1 0x40 MLOAD DUP1 DUP4 SUB DUP2 DUP7 GAS STATICCALL ISZERO DUP1 ISZERO PUSH2 0x22D7 JUMPI RETURNDATASIZE PUSH1 0x0 DUP1 RETURNDATACOPY RETURNDATASIZE PUSH1 0x0 REVERT JUMPDEST POP POP POP POP PUSH1 0x40 MLOAD RETURNDATASIZE PUSH1 0x1F NOT PUSH1 0x1F DUP3 ADD AND DUP3 ADD DUP1 PUSH1 0x40 MSTORE POP DUP2 ADD SWAP1 PUSH2 0x22FB SWAP2 SWAP1 PUSH2 0x3816 JUMP JUMPDEST PUSH1 0x40 MLOAD PUSH32 0x19457468657265756D205369676E6564204D6573736167653A0A333200000000 PUSH1 0x20 DUP3 ADD MSTORE PUSH1 0x3C DUP2 ADD DUP3 SWAP1 MSTORE PUSH1 0x0 SWAP1 PUSH1 0x5C ADD PUSH1 0x40 MLOAD PUSH1 0x20 DUP2 DUP4 SUB SUB DUP2 MSTORE SWAP1 PUSH1 0x40 MSTORE DUP1 MLOAD SWAP1 PUSH1 0x20 ADD KECCAK256 SWAP1 POP SWAP2 SWAP1 POP JUMP JUMPDEST SWAP1 POP PUSH2 0x235B DUP7 DUP3 DUP8 PUSH2 0x2806 JUMP JUMPDEST SWAP7 SWAP6 POP POP POP POP POP POP JUMP JUMPDEST PUSH2 0x2370 DUP5 DUP5 DUP5 PUSH2 0x1CCD JUMP JUMPDEST PUSH2 0x237C DUP5 DUP5 DUP5 DUP5 PUSH2 0x2952 JUMP JUMPDEST PUSH2 0xFF5 JUMPI PUSH1 0x40 MLOAD PUSH3 0x461BCD PUSH1 0xE5 SHL DUP2 MSTORE PUSH1 0x4 ADD PUSH2 0x876 SWAP1 PUSH2 0x382F JUMP JUMPDEST PUSH1 0x60 DUP2 PUSH1 0x0 SUB PUSH2 0x23BF JUMPI POP POP PUSH1 0x40 DUP1 MLOAD DUP1 DUP3 ADD SWAP1 SWAP2 MSTORE PUSH1 0x1 DUP2 MSTORE PUSH1 0x3 PUSH1 0xFC SHL PUSH1 0x20 DUP3 ADD MSTORE SWAP1 JUMP JUMPDEST DUP2 PUSH1 0x0 JUMPDEST DUP2 ISZERO PUSH2 0x23E9 JUMPI DUP1 PUSH2 0x23D3 DUP2 PUSH2 0x37CE JUMP JUMPDEST SWAP2 POP PUSH2 0x23E2 SWAP1 POP PUSH1 0xA DUP4 PUSH2 0x3897 JUMP JUMPDEST SWAP2 POP PUSH2 0x23C3 JUMP JUMPDEST PUSH1 0x0 DUP2 PUSH8 0xFFFFFFFFFFFFFFFF DUP2 GT ISZERO PUSH2 0x2404 JUMPI PUSH2 0x2404 PUSH2 0x3239 JUMP JUMPDEST PUSH1 0x40 MLOAD SWAP1 DUP1 DUP3 MSTORE DUP1 PUSH1 0x1F ADD PUSH1 0x1F NOT AND PUSH1 0x20 ADD DUP3 ADD PUSH1 0x40 MSTORE DUP1 ISZERO PUSH2 0x242E JUMPI PUSH1 0x20 DUP3 ADD DUP2 DUP1 CALLDATASIZE DUP4 CALLDATACOPY ADD SWAP1 POP JUMPDEST POP SWAP1 POP JUMPDEST DUP5 ISZERO PUSH2 0x1CC5 JUMPI PUSH2 0x2443 PUSH1 0x1 DUP4 PUSH2 0x37E7 JUMP JUMPDEST SWAP2 POP PUSH2 0x2450 PUSH1 0xA DUP7 PUSH2 0x38AB JUMP JUMPDEST PUSH2 0x245B SWAP1 PUSH1 0x30 PUSH2 0x37FE JUMP JUMPDEST PUSH1 0xF8 SHL DUP2 DUP4 DUP2 MLOAD DUP2 LT PUSH2 0x2470 JUMPI PUSH2 0x2470 PUSH2 0x372C JUMP JUMPDEST PUSH1 0x20 ADD ADD SWAP1 PUSH1 0x1 PUSH1 0x1 PUSH1 0xF8 SHL SUB NOT AND SWAP1 DUP2 PUSH1 0x0 BYTE SWAP1 MSTORE8 POP PUSH2 0x2492 PUSH1 0xA DUP7 PUSH2 0x3897 JUMP JUMPDEST SWAP5 POP PUSH2 0x2432 JUMP JUMPDEST PUSH1 0x0 PUSH2 0x769 DUP3 SLOAD SWAP1 JUMP JUMPDEST PUSH1 0x0 DUP3 DUP2 MSTORE PUSH1 0x1 PUSH1 0x20 DUP2 SWAP1 MSTORE PUSH1 0x40 SWAP1 SWAP2 KECCAK256 ADD SLOAD PUSH2 0x24C0 DUP2 CALLER PUSH2 0x261E JUMP JUMPDEST PUSH2 0x9AB DUP4 DUP4 PUSH2 0x2682 JUMP JUMPDEST PUSH2 0x24D4 DUP3 DUP3 PUSH2 0x1261 JUMP JUMPDEST PUSH2 0xCDF JUMPI PUSH1 0x0 DUP3 DUP2 MSTORE PUSH1 0x1 PUSH1 0x20 DUP2 DUP2 MSTORE PUSH1 0x40 DUP1 DUP5 KECCAK256 PUSH1 0x1 PUSH1 0x1 PUSH1 0xA0 SHL SUB DUP7 AND DUP1 DUP7 MSTORE SWAP3 MSTORE DUP1 DUP5 KECCAK256 DUP1 SLOAD PUSH1 0xFF NOT AND SWAP1 SWAP4 OR SWAP1 SWAP3 SSTORE SWAP1 MLOAD CALLER SWAP3 DUP6 SWAP2 PUSH32 0x2F8788117E7EFF1D82E926EC794901D17C78024A50270940304540A733656F0D SWAP2 SWAP1 LOG4 POP POP JUMP JUMPDEST PUSH1 0x0 DUP2 DUP2 MSTORE PUSH1 0x1 DUP4 ADD PUSH1 0x20 MSTORE PUSH1 0x40 DUP2 KECCAK256 SLOAD PUSH2 0x257C JUMPI POP DUP2 SLOAD PUSH1 0x1 DUP2 DUP2 ADD DUP5 SSTORE PUSH1 0x0 DUP5 DUP2 MSTORE PUSH1 0x20 DUP1 DUP3 KECCAK256 SWAP1 SWAP4 ADD DUP5 SWAP1 SSTORE DUP5 SLOAD DUP5 DUP3 MSTORE DUP3 DUP7 ADD SWAP1 SWAP4 MSTORE PUSH1 0x40 SWAP1 KECCAK256 SWAP2 SWAP1 SWAP2 SSTORE PUSH2 0x769 JUMP JUMPDEST POP PUSH1 0x0 PUSH2 0x769 JUMP JUMPDEST PUSH1 0x0 PUSH1 0x1 PUSH1 0x1 PUSH1 0xE0 SHL SUB NOT DUP3 AND PUSH4 0x80AC58CD PUSH1 0xE0 SHL EQ DUP1 PUSH2 0x25B5 JUMPI POP PUSH1 0x1 PUSH1 0x1 PUSH1 0xE0 SHL SUB NOT DUP3 AND PUSH4 0x5B5E139F PUSH1 0xE0 SHL EQ JUMPDEST DUP1 PUSH2 0x769 JUMPI POP PUSH2 0x769 DUP3 PUSH2 0x2A50 JUMP JUMPDEST PUSH1 0x0 PUSH1 0x61 PUSH1 0xF8 SHL PUSH1 0x1 PUSH1 0x1 PUSH1 0xF8 SHL SUB NOT DUP4 AND LT DUP1 ISZERO SWAP1 PUSH2 0x25F2 JUMPI POP PUSH1 0x3D PUSH1 0xF9 SHL PUSH1 0x1 PUSH1 0x1 PUSH1 0xF8 SHL SUB NOT DUP4 AND GT ISZERO JUMPDEST ISZERO PUSH2 0x260F JUMPI PUSH2 0x2606 PUSH1 0x20 PUSH1 0xF8 DUP5 SWAP1 SHR PUSH2 0x38BF JUMP JUMPDEST PUSH1 0xF8 SHL SWAP3 SWAP2 POP POP JUMP JUMPDEST POP SWAP1 JUMP JUMPDEST PUSH2 0x9AB DUP4 DUP4 DUP4 PUSH2 0x2A75 JUMP JUMPDEST PUSH2 0x2628 DUP3 DUP3 PUSH2 0x1261 JUMP JUMPDEST PUSH2 0xCDF JUMPI PUSH2 0x2640 DUP2 PUSH1 0x1 PUSH1 0x1 PUSH1 0xA0 SHL SUB AND PUSH1 0x14 PUSH2 0x2AE7 JUMP JUMPDEST PUSH2 0x264B DUP4 PUSH1 0x20 PUSH2 0x2AE7 JUMP JUMPDEST PUSH1 0x40 MLOAD PUSH1 0x20 ADD PUSH2 0x265C SWAP3 SWAP2 SWAP1 PUSH2 0x38E2 JUMP JUMPDEST PUSH1 0x40 DUP1 MLOAD PUSH1 0x1F NOT DUP2 DUP5 SUB ADD DUP2 MSTORE SWAP1 DUP3 SWAP1 MSTORE PUSH3 0x461BCD PUSH1 0xE5 SHL DUP3 MSTORE PUSH2 0x876 SWAP2 PUSH1 0x4 ADD PUSH2 0x31C7 JUMP JUMPDEST PUSH2 0x268C DUP3 DUP3 PUSH2 0x1261 JUMP JUMPDEST ISZERO PUSH2 0xCDF JUMPI PUSH1 0x0 DUP3 DUP2 MSTORE PUSH1 0x1 PUSH1 0x20 SWAP1 DUP2 MSTORE PUSH1 0x40 DUP1 DUP4 KECCAK256 PUSH1 0x1 PUSH1 0x1 PUSH1 0xA0 SHL SUB DUP6 AND DUP1 DUP6 MSTORE SWAP3 MSTORE DUP1 DUP4 KECCAK256 DUP1 SLOAD PUSH1 0xFF NOT AND SWAP1 SSTORE MLOAD CALLER SWAP3 DUP6 SWAP2 PUSH32 0xF6391F5C32D9C69D2A47EA670B442974B53935D1EDC7FD64EB21E047A839171B SWAP2 SWAP1 LOG4 POP POP JUMP JUMPDEST PUSH1 0x0 DUP2 DUP2 MSTORE PUSH1 0x1 DUP4 ADD PUSH1 0x20 MSTORE PUSH1 0x40 DUP2 KECCAK256 SLOAD DUP1 ISZERO PUSH2 0x27D2 JUMPI PUSH1 0x0 PUSH2 0x270D PUSH1 0x1 DUP4 PUSH2 0x37E7 JUMP JUMPDEST DUP6 SLOAD SWAP1 SWAP2 POP PUSH1 0x0 SWAP1 PUSH2 0x2721 SWAP1 PUSH1 0x1 SWAP1 PUSH2 0x37E7 JUMP JUMPDEST SWAP1 POP DUP2 DUP2 EQ PUSH2 0x2786 JUMPI PUSH1 0x0 DUP7 PUSH1 0x0 ADD DUP3 DUP2 SLOAD DUP2 LT PUSH2 0x2741 JUMPI PUSH2 0x2741 PUSH2 0x372C JUMP JUMPDEST SWAP1 PUSH1 0x0 MSTORE PUSH1 0x20 PUSH1 0x0 KECCAK256 ADD SLOAD SWAP1 POP DUP1 DUP8 PUSH1 0x0 ADD DUP5 DUP2 SLOAD DUP2 LT PUSH2 0x2764 JUMPI PUSH2 0x2764 PUSH2 0x372C JUMP JUMPDEST PUSH1 0x0 SWAP2 DUP3 MSTORE PUSH1 0x20 DUP1 DUP4 KECCAK256 SWAP1 SWAP2 ADD SWAP3 SWAP1 SWAP3 SSTORE SWAP2 DUP3 MSTORE PUSH1 0x1 DUP9 ADD SWAP1 MSTORE PUSH1 0x40 SWAP1 KECCAK256 DUP4 SWAP1 SSTORE JUMPDEST DUP6 SLOAD DUP7 SWAP1 DUP1 PUSH2 0x2797 JUMPI PUSH2 0x2797 PUSH2 0x3957 JUMP JUMPDEST PUSH1 0x1 SWAP1 SUB DUP2 DUP2 SWAP1 PUSH1 0x0 MSTORE PUSH1 0x20 PUSH1 0x0 KECCAK256 ADD PUSH1 0x0 SWAP1 SSTORE SWAP1 SSTORE DUP6 PUSH1 0x1 ADD PUSH1 0x0 DUP7 DUP2 MSTORE PUSH1 0x20 ADD SWAP1 DUP2 MSTORE PUSH1 0x20 ADD PUSH1 0x0 KECCAK256 PUSH1 0x0 SWAP1 SSTORE PUSH1 0x1 SWAP4 POP POP POP POP PUSH2 0x769 JUMP JUMPDEST PUSH1 0x0 SWAP2 POP POP PUSH2 0x769 JUMP JUMPDEST PUSH1 0x0 DUP3 PUSH1 0x0 ADD DUP3 DUP2 SLOAD DUP2 LT PUSH2 0x27F3 JUMPI PUSH2 0x27F3 PUSH2 0x372C JUMP JUMPDEST SWAP1 PUSH1 0x0 MSTORE PUSH1 0x20 PUSH1 0x0 KECCAK256 ADD SLOAD SWAP1 POP SWAP3 SWAP2 POP POP JUMP JUMPDEST PUSH1 0x0 DUP1 PUSH1 0x0 PUSH2 0x2815 DUP6 DUP6 PUSH2 0x2C83 JUMP JUMPDEST SWAP1 SWAP3 POP SWAP1 POP PUSH1 0x0 DUP2 PUSH1 0x4 DUP2 GT ISZERO PUSH2 0x282E JUMPI PUSH2 0x282E PUSH2 0x396D JUMP JUMPDEST EQ DUP1 ISZERO PUSH2 0x284C JUMPI POP DUP6 PUSH1 0x1 PUSH1 0x1 PUSH1 0xA0 SHL SUB AND DUP3 PUSH1 0x1 PUSH1 0x1 PUSH1 0xA0 SHL SUB AND EQ JUMPDEST ISZERO PUSH2 0x285C JUMPI PUSH1 0x1 SWAP3 POP POP POP PUSH2 0x125A JUMP JUMPDEST PUSH1 0x0 DUP1 DUP8 PUSH1 0x1 PUSH1 0x1 PUSH1 0xA0 SHL SUB AND PUSH4 0x1626BA7E PUSH1 0xE0 SHL DUP9 DUP9 PUSH1 0x40 MLOAD PUSH1 0x24 ADD PUSH2 0x2884 SWAP3 SWAP2 SWAP1 PUSH2 0x3983 JUMP JUMPDEST PUSH1 0x40 DUP1 MLOAD PUSH1 0x1F NOT DUP2 DUP5 SUB ADD DUP2 MSTORE SWAP2 DUP2 MSTORE PUSH1 0x20 DUP3 ADD DUP1 MLOAD PUSH1 0x1 PUSH1 0x1 PUSH1 0xE0 SHL SUB AND PUSH1 0x1 PUSH1 0x1 PUSH1 0xE0 SHL SUB NOT SWAP1 SWAP5 AND SWAP4 SWAP1 SWAP4 OR SWAP1 SWAP3 MSTORE SWAP1 MLOAD PUSH2 0x28C2 SWAP2 SWAP1 PUSH2 0x3662 JUMP JUMPDEST PUSH1 0x0 PUSH1 0x40 MLOAD DUP1 DUP4 SUB DUP2 DUP6 GAS STATICCALL SWAP2 POP POP RETURNDATASIZE DUP1 PUSH1 0x0 DUP2 EQ PUSH2 0x28FD JUMPI PUSH1 0x40 MLOAD SWAP2 POP PUSH1 0x1F NOT PUSH1 0x3F RETURNDATASIZE ADD AND DUP3 ADD PUSH1 0x40 MSTORE RETURNDATASIZE DUP3 MSTORE RETURNDATASIZE PUSH1 0x0 PUSH1 0x20 DUP5 ADD RETURNDATACOPY PUSH2 0x2902 JUMP JUMPDEST PUSH1 0x60 SWAP2 POP JUMPDEST POP SWAP2 POP SWAP2 POP DUP2 DUP1 ISZERO PUSH2 0x2915 JUMPI POP DUP1 MLOAD PUSH1 0x20 EQ JUMPDEST DUP1 ISZERO PUSH2 0x2946 JUMPI POP DUP1 MLOAD PUSH4 0xB135D3F PUSH1 0xE1 SHL SWAP1 PUSH2 0x293A SWAP1 DUP4 ADD PUSH1 0x20 SWAP1 DUP2 ADD SWAP1 DUP5 ADD PUSH2 0x399C JUMP JUMPDEST PUSH1 0x1 PUSH1 0x1 PUSH1 0xE0 SHL SUB NOT AND EQ JUMPDEST SWAP9 SWAP8 POP POP POP POP POP POP POP POP JUMP JUMPDEST PUSH1 0x0 PUSH1 0x1 PUSH1 0x1 PUSH1 0xA0 SHL SUB DUP5 AND EXTCODESIZE ISZERO PUSH2 0x2A48 JUMPI PUSH1 0x40 MLOAD PUSH4 0xA85BD01 PUSH1 0xE1 SHL DUP2 MSTORE PUSH1 0x1 PUSH1 0x1 PUSH1 0xA0 SHL SUB DUP6 AND SWAP1 PUSH4 0x150B7A02 SWAP1 PUSH2 0x2996 SWAP1 CALLER SWAP1 DUP10 SWAP1 DUP9 SWAP1 DUP9 SWAP1 PUSH1 0x4 ADD PUSH2 0x39B9 JUMP JUMPDEST PUSH1 0x20 PUSH1 0x40 MLOAD DUP1 DUP4 SUB DUP2 PUSH1 0x0 DUP8 GAS CALL SWAP3 POP POP POP DUP1 ISZERO PUSH2 0x29D1 JUMPI POP PUSH1 0x40 DUP1 MLOAD PUSH1 0x1F RETURNDATASIZE SWAP1 DUP2 ADD PUSH1 0x1F NOT AND DUP3 ADD SWAP1 SWAP3 MSTORE PUSH2 0x29CE SWAP2 DUP2 ADD SWAP1 PUSH2 0x399C JUMP JUMPDEST PUSH1 0x1 JUMPDEST PUSH2 0x2A2E JUMPI RETURNDATASIZE DUP1 DUP1 ISZERO PUSH2 0x29FF JUMPI PUSH1 0x40 MLOAD SWAP2 POP PUSH1 0x1F NOT PUSH1 0x3F RETURNDATASIZE ADD AND DUP3 ADD PUSH1 0x40 MSTORE RETURNDATASIZE DUP3 MSTORE RETURNDATASIZE PUSH1 0x0 PUSH1 0x20 DUP5 ADD RETURNDATACOPY PUSH2 0x2A04 JUMP JUMPDEST PUSH1 0x60 SWAP2 POP JUMPDEST POP DUP1 MLOAD PUSH1 0x0 SUB PUSH2 0x2A26 JUMPI PUSH1 0x40 MLOAD PUSH3 0x461BCD PUSH1 0xE5 SHL DUP2 MSTORE PUSH1 0x4 ADD PUSH2 0x876 SWAP1 PUSH2 0x382F JUMP JUMPDEST DUP1 MLOAD DUP2 PUSH1 0x20 ADD REVERT JUMPDEST PUSH1 0x1 PUSH1 0x1 PUSH1 0xE0 SHL SUB NOT AND PUSH4 0xA85BD01 PUSH1 0xE1 SHL EQ SWAP1 POP PUSH2 0x1CC5 JUMP JUMPDEST POP PUSH1 0x1 PUSH2 0x1CC5 JUMP JUMPDEST PUSH1 0x0 PUSH1 0x1 PUSH1 0x1 PUSH1 0xE0 SHL SUB NOT DUP3 AND PUSH4 0x5A05180F PUSH1 0xE0 SHL EQ DUP1 PUSH2 0x769 JUMPI POP PUSH2 0x769 DUP3 PUSH2 0x2CF1 JUMP JUMPDEST PUSH2 0x2A80 DUP4 DUP4 DUP4 PUSH2 0x2D26 JUMP JUMPDEST PUSH1 0xD SLOAD PUSH1 0xFF AND ISZERO PUSH2 0x9AB JUMPI PUSH1 0x40 MLOAD PUSH3 0x461BCD PUSH1 0xE5 SHL DUP2 MSTORE PUSH1 0x20 PUSH1 0x4 DUP3 ADD MSTORE PUSH1 0x2B PUSH1 0x24 DUP3 ADD MSTORE PUSH32 0x4552433732315061757361626C653A20746F6B656E207472616E736665722077 PUSH1 0x44 DUP3 ADD MSTORE PUSH11 0x1A1A5B19481C185D5CD959 PUSH1 0xAA SHL PUSH1 0x64 DUP3 ADD MSTORE PUSH1 0x84 ADD PUSH2 0x876 JUMP JUMPDEST PUSH1 0x60 PUSH1 0x0 PUSH2 0x2AF6 DUP4 PUSH1 0x2 PUSH2 0x39EC JUMP JUMPDEST PUSH2 0x2B01 SWAP1 PUSH1 0x2 PUSH2 0x37FE JUMP JUMPDEST PUSH8 0xFFFFFFFFFFFFFFFF DUP2 GT ISZERO PUSH2 0x2B19 JUMPI PUSH2 0x2B19 PUSH2 0x3239 JUMP JUMPDEST PUSH1 0x40 MLOAD SWAP1 DUP1 DUP3 MSTORE DUP1 PUSH1 0x1F ADD PUSH1 0x1F NOT AND PUSH1 0x20 ADD DUP3 ADD PUSH1 0x40 MSTORE DUP1 ISZERO PUSH2 0x2B43 JUMPI PUSH1 0x20 DUP3 ADD DUP2 DUP1 CALLDATASIZE DUP4 CALLDATACOPY ADD SWAP1 POP JUMPDEST POP SWAP1 POP PUSH1 0x3 PUSH1 0xFC SHL DUP2 PUSH1 0x0 DUP2 MLOAD DUP2 LT PUSH2 0x2B5E JUMPI PUSH2 0x2B5E PUSH2 0x372C JUMP JUMPDEST PUSH1 0x20 ADD ADD SWAP1 PUSH1 0x1 PUSH1 0x1 PUSH1 0xF8 SHL SUB NOT AND SWAP1 DUP2 PUSH1 0x0 BYTE SWAP1 MSTORE8 POP PUSH1 0xF PUSH1 0xFB SHL DUP2 PUSH1 0x1 DUP2 MLOAD DUP2 LT PUSH2 0x2B8D JUMPI PUSH2 0x2B8D PUSH2 0x372C JUMP JUMPDEST PUSH1 0x20 ADD ADD SWAP1 PUSH1 0x1 PUSH1 0x1 PUSH1 0xF8 SHL SUB NOT AND SWAP1 DUP2 PUSH1 0x0 BYTE SWAP1 MSTORE8 POP PUSH1 0x0 PUSH2 0x2BB1 DUP5 PUSH1 0x2 PUSH2 0x39EC JUMP JUMPDEST PUSH2 0x2BBC SWAP1 PUSH1 0x1 PUSH2 0x37FE JUMP JUMPDEST SWAP1 POP JUMPDEST PUSH1 0x1 DUP2 GT ISZERO PUSH2 0x2C34 JUMPI PUSH16 0x181899199A1A9B1B9C1CB0B131B232B3 PUSH1 0x81 SHL DUP6 PUSH1 0xF AND PUSH1 0x10 DUP2 LT PUSH2 0x2BF0 JUMPI PUSH2 0x2BF0 PUSH2 0x372C JUMP JUMPDEST BYTE PUSH1 0xF8 SHL DUP3 DUP3 DUP2 MLOAD DUP2 LT PUSH2 0x2C06 JUMPI PUSH2 0x2C06 PUSH2 0x372C JUMP JUMPDEST PUSH1 0x20 ADD ADD SWAP1 PUSH1 0x1 PUSH1 0x1 PUSH1 0xF8 SHL SUB NOT AND SWAP1 DUP2 PUSH1 0x0 BYTE SWAP1 MSTORE8 POP PUSH1 0x4 SWAP5 SWAP1 SWAP5 SHR SWAP4 PUSH2 0x2C2D DUP2 PUSH2 0x3A0B JUMP JUMPDEST SWAP1 POP PUSH2 0x2BBF JUMP JUMPDEST POP DUP4 ISZERO PUSH2 0x125A JUMPI PUSH1 0x40 MLOAD PUSH3 0x461BCD PUSH1 0xE5 SHL DUP2 MSTORE PUSH1 0x20 PUSH1 0x4 DUP3 ADD DUP2 SWAP1 MSTORE PUSH1 0x24 DUP3 ADD MSTORE PUSH32 0x537472696E67733A20686578206C656E67746820696E73756666696369656E74 PUSH1 0x44 DUP3 ADD MSTORE PUSH1 0x64 ADD PUSH2 0x876 JUMP JUMPDEST PUSH1 0x0 DUP1 DUP3 MLOAD PUSH1 0x41 SUB PUSH2 0x2CB9 JUMPI PUSH1 0x20 DUP4 ADD MLOAD PUSH1 0x40 DUP5 ADD MLOAD PUSH1 0x60 DUP6 ADD MLOAD PUSH1 0x0 BYTE PUSH2 0x2CAD DUP8 DUP3 DUP6 DUP6 PUSH2 0x2DDE JUMP JUMPDEST SWAP5 POP SWAP5 POP POP POP POP PUSH2 0x2CEA JUMP JUMPDEST DUP3 MLOAD PUSH1 0x40 SUB PUSH2 0x2CE2 JUMPI PUSH1 0x20 DUP4 ADD MLOAD PUSH1 0x40 DUP5 ADD MLOAD PUSH2 0x2CD7 DUP7 DUP4 DUP4 PUSH2 0x2ECB JUMP JUMPDEST SWAP4 POP SWAP4 POP POP POP PUSH2 0x2CEA JUMP JUMPDEST POP PUSH1 0x0 SWAP1 POP PUSH1 0x2 JUMPDEST SWAP3 POP SWAP3 SWAP1 POP JUMP JUMPDEST PUSH1 0x0 PUSH1 0x1 PUSH1 0x1 PUSH1 0xE0 SHL SUB NOT DUP3 AND PUSH4 0x7965DB0B PUSH1 0xE0 SHL EQ DUP1 PUSH2 0x769 JUMPI POP PUSH4 0x1FFC9A7 PUSH1 0xE0 SHL PUSH1 0x1 PUSH1 0x1 PUSH1 0xE0 SHL SUB NOT DUP4 AND EQ PUSH2 0x769 JUMP JUMPDEST PUSH1 0x1 PUSH1 0x1 PUSH1 0xA0 SHL SUB DUP4 AND PUSH2 0x2D81 JUMPI PUSH2 0x2D7C DUP2 PUSH1 0xB DUP1 SLOAD PUSH1 0x0 DUP4 DUP2 MSTORE PUSH1 0xC PUSH1 0x20 MSTORE PUSH1 0x40 DUP2 KECCAK256 DUP3 SWAP1 SSTORE PUSH1 0x1 DUP3 ADD DUP4 SSTORE SWAP2 SWAP1 SWAP2 MSTORE PUSH32 0x175B7A638427703F0DBE7BB9BBF987A2551717B34E79F33B5B1008D1FA01DB9 ADD SSTORE JUMP JUMPDEST PUSH2 0x2DA4 JUMP JUMPDEST DUP2 PUSH1 0x1 PUSH1 0x1 PUSH1 0xA0 SHL SUB AND DUP4 PUSH1 0x1 PUSH1 0x1 PUSH1 0xA0 SHL SUB AND EQ PUSH2 0x2DA4 JUMPI PUSH2 0x2DA4 DUP4 DUP3 PUSH2 0x2EFA JUMP JUMPDEST PUSH1 0x1 PUSH1 0x1 PUSH1 0xA0 SHL SUB DUP3 AND PUSH2 0x2DBB JUMPI PUSH2 0x9AB DUP2 PUSH2 0x2F97 JUMP JUMPDEST DUP3 PUSH1 0x1 PUSH1 0x1 PUSH1 0xA0 SHL SUB AND DUP3 PUSH1 0x1 PUSH1 0x1 PUSH1 0xA0 SHL SUB AND EQ PUSH2 0x9AB JUMPI PUSH2 0x9AB DUP3 DUP3 PUSH2 0x3046 JUMP JUMPDEST PUSH1 0x0 DUP1 PUSH32 0x7FFFFFFFFFFFFFFFFFFFFFFFFFFFFFFF5D576E7357A4501DDFE92F46681B20A0 DUP4 GT ISZERO PUSH2 0x2E15 JUMPI POP PUSH1 0x0 SWAP1 POP PUSH1 0x3 PUSH2 0x2EC2 JUMP JUMPDEST DUP5 PUSH1 0xFF AND PUSH1 0x1B EQ ISZERO DUP1 ISZERO PUSH2 0x2E2D JUMPI POP DUP5 PUSH1 0xFF AND PUSH1 0x1C EQ ISZERO JUMPDEST ISZERO PUSH2 0x2E3E JUMPI POP PUSH1 0x0 SWAP1 POP PUSH1 0x4 PUSH2 0x2EC2 JUMP JUMPDEST PUSH1 0x40 DUP1 MLOAD PUSH1 0x0 DUP1 DUP3 MSTORE PUSH1 0x20 DUP3 ADD DUP1 DUP5 MSTORE DUP10 SWAP1 MSTORE PUSH1 0xFF DUP9 AND SWAP3 DUP3 ADD SWAP3 SWAP1 SWAP3 MSTORE PUSH1 0x60 DUP2 ADD DUP7 SWAP1 MSTORE PUSH1 0x80 DUP2 ADD DUP6 SWAP1 MSTORE PUSH1 0x1 SWAP1 PUSH1 0xA0 ADD PUSH1 0x20 PUSH1 0x40 MLOAD PUSH1 0x20 DUP2 SUB SWAP1 DUP1 DUP5 SUB SWAP1 DUP6 GAS STATICCALL ISZERO DUP1 ISZERO PUSH2 0x2E92 JUMPI RETURNDATASIZE PUSH1 0x0 DUP1 RETURNDATACOPY RETURNDATASIZE PUSH1 0x0 REVERT JUMPDEST POP POP PUSH1 0x40 MLOAD PUSH1 0x1F NOT ADD MLOAD SWAP2 POP POP PUSH1 0x1 PUSH1 0x1 PUSH1 0xA0 SHL SUB DUP2 AND PUSH2 0x2EBB JUMPI PUSH1 0x0 PUSH1 0x1 SWAP3 POP SWAP3 POP POP PUSH2 0x2EC2 JUMP JUMPDEST SWAP2 POP PUSH1 0x0 SWAP1 POP JUMPDEST SWAP5 POP SWAP5 SWAP3 POP POP POP JUMP JUMPDEST PUSH1 0x0 DUP1 PUSH1 0x1 PUSH1 0x1 PUSH1 0xFF SHL SUB DUP4 AND PUSH1 0xFF DUP5 SWAP1 SHR PUSH1 0x1B ADD PUSH2 0x2EEC DUP8 DUP3 DUP9 DUP6 PUSH2 0x2DDE JUMP JUMPDEST SWAP4 POP SWAP4 POP POP POP SWAP4 POP SWAP4 SWAP2 POP POP JUMP JUMPDEST PUSH1 0x0 PUSH1 0x1 PUSH2 0x2F07 DUP5 PUSH2 0xFFB JUMP JUMPDEST PUSH2 0x2F11 SWAP2 SWAP1 PUSH2 0x37E7 JUMP JUMPDEST PUSH1 0x0 DUP4 DUP2 MSTORE PUSH1 0xA PUSH1 0x20 MSTORE PUSH1 0x40 SWAP1 KECCAK256 SLOAD SWAP1 SWAP2 POP DUP1 DUP3 EQ PUSH2 0x2F64 JUMPI PUSH1 0x1 PUSH1 0x1 PUSH1 0xA0 SHL SUB DUP5 AND PUSH1 0x0 SWAP1 DUP2 MSTORE PUSH1 0x9 PUSH1 0x20 SWAP1 DUP2 MSTORE PUSH1 0x40 DUP1 DUP4 KECCAK256 DUP6 DUP5 MSTORE DUP3 MSTORE DUP1 DUP4 KECCAK256 SLOAD DUP5 DUP5 MSTORE DUP2 DUP5 KECCAK256 DUP2 SWAP1 SSTORE DUP4 MSTORE PUSH1 0xA SWAP1 SWAP2 MSTORE SWAP1 KECCAK256 DUP2 SWAP1 SSTORE JUMPDEST POP PUSH1 0x0 SWAP2 DUP3 MSTORE PUSH1 0xA PUSH1 0x20 SWAP1 DUP2 MSTORE PUSH1 0x40 DUP1 DUP5 KECCAK256 DUP5 SWAP1 SSTORE PUSH1 0x1 PUSH1 0x1 PUSH1 0xA0 SHL SUB SWAP1 SWAP5 AND DUP4 MSTORE PUSH1 0x9 DUP2 MSTORE DUP4 DUP4 KECCAK256 SWAP2 DUP4 MSTORE MSTORE SWAP1 DUP2 KECCAK256 SSTORE JUMP JUMPDEST PUSH1 0xB SLOAD PUSH1 0x0 SWAP1 PUSH2 0x2FA9 SWAP1 PUSH1 0x1 SWAP1 PUSH2 0x37E7 JUMP JUMPDEST PUSH1 0x0 DUP4 DUP2 MSTORE PUSH1 0xC PUSH1 0x20 MSTORE PUSH1 0x40 DUP2 KECCAK256 SLOAD PUSH1 0xB DUP1 SLOAD SWAP4 SWAP5 POP SWAP1 SWAP3 DUP5 SWAP1 DUP2 LT PUSH2 0x2FD1 JUMPI PUSH2 0x2FD1 PUSH2 0x372C JUMP JUMPDEST SWAP1 PUSH1 0x0 MSTORE PUSH1 0x20 PUSH1 0x0 KECCAK256 ADD SLOAD SWAP1 POP DUP1 PUSH1 0xB DUP4 DUP2 SLOAD DUP2 LT PUSH2 0x2FF2 JUMPI PUSH2 0x2FF2 PUSH2 0x372C JUMP JUMPDEST PUSH1 0x0 SWAP2 DUP3 MSTORE PUSH1 0x20 DUP1 DUP4 KECCAK256 SWAP1 SWAP2 ADD SWAP3 SWAP1 SWAP3 SSTORE DUP3 DUP2 MSTORE PUSH1 0xC SWAP1 SWAP2 MSTORE PUSH1 0x40 DUP1 DUP3 KECCAK256 DUP5 SWAP1 SSTORE DUP6 DUP3 MSTORE DUP2 KECCAK256 SSTORE PUSH1 0xB DUP1 SLOAD DUP1 PUSH2 0x302A JUMPI PUSH2 0x302A PUSH2 0x3957 JUMP JUMPDEST PUSH1 0x1 SWAP1 SUB DUP2 DUP2 SWAP1 PUSH1 0x0 MSTORE PUSH1 0x20 PUSH1 0x0 KECCAK256 ADD PUSH1 0x0 SWAP1 SSTORE SWAP1 SSTORE POP POP POP POP JUMP JUMPDEST PUSH1 0x0 PUSH2 0x3051 DUP4 PUSH2 0xFFB JUMP JUMPDEST PUSH1 0x1 PUSH1 0x1 PUSH1 0xA0 SHL SUB SWAP1 SWAP4 AND PUSH1 0x0 SWAP1 DUP2 MSTORE PUSH1 0x9 PUSH1 0x20 SWAP1 DUP2 MSTORE PUSH1 0x40 DUP1 DUP4 KECCAK256 DUP7 DUP5 MSTORE DUP3 MSTORE DUP1 DUP4 KECCAK256 DUP6 SWAP1 SSTORE SWAP4 DUP3 MSTORE PUSH1 0xA SWAP1 MSTORE SWAP2 SWAP1 SWAP2 KECCAK256 SWAP2 SWAP1 SWAP2 SSTORE POP JUMP JUMPDEST DUP3 DUP1 SLOAD PUSH2 0x3096 SWAP1 PUSH2 0x3628 JUMP JUMPDEST SWAP1 PUSH1 0x0 MSTORE PUSH1 0x20 PUSH1 0x0 KECCAK256 SWAP1 PUSH1 0x1F ADD PUSH1 0x20 SWAP1 DIV DUP2 ADD SWAP3 DUP3 PUSH2 0x30B8 JUMPI PUSH1 0x0 DUP6 SSTORE PUSH2 0x30FE JUMP JUMPDEST DUP3 PUSH1 0x1F LT PUSH2 0x30D1 JUMPI DUP1 MLOAD PUSH1 0xFF NOT AND DUP4 DUP1 ADD OR DUP6 SSTORE PUSH2 0x30FE JUMP JUMPDEST DUP3 DUP1 ADD PUSH1 0x1 ADD DUP6 SSTORE DUP3 ISZERO PUSH2 0x30FE JUMPI SWAP2 DUP3 ADD JUMPDEST DUP3 DUP2 GT ISZERO PUSH2 0x30FE JUMPI DUP3 MLOAD DUP3 SSTORE SWAP2 PUSH1 0x20 ADD SWAP2 SWAP1 PUSH1 0x1 ADD SWAP1 PUSH2 0x30E3 JUMP JUMPDEST POP PUSH2 0x260F SWAP3 SWAP2 POP JUMPDEST DUP1 DUP3 GT ISZERO PUSH2 0x260F JUMPI PUSH1 0x0 DUP2 SSTORE PUSH1 0x1 ADD PUSH2 0x3106 JUMP JUMPDEST PUSH1 0x1 PUSH1 0x1 PUSH1 0xE0 SHL SUB NOT DUP2 AND DUP2 EQ PUSH2 0xD75 JUMPI PUSH1 0x0 DUP1 REVERT JUMPDEST PUSH1 0x0 PUSH1 0x20 DUP3 DUP5 SUB SLT ISZERO PUSH2 0x3142 JUMPI PUSH1 0x0 DUP1 REVERT JUMPDEST DUP2 CALLDATALOAD PUSH2 0x125A DUP2 PUSH2 0x311A JUMP JUMPDEST PUSH1 0x0 DUP1 PUSH1 0x40 DUP4 DUP6 SUB SLT ISZERO PUSH2 0x3160 JUMPI PUSH1 0x0 DUP1 REVERT JUMPDEST POP POP DUP1 CALLDATALOAD SWAP3 PUSH1 0x20 SWAP1 SWAP2 ADD CALLDATALOAD SWAP2 POP JUMP JUMPDEST PUSH1 0x0 JUMPDEST DUP4 DUP2 LT ISZERO PUSH2 0x318A JUMPI DUP2 DUP2 ADD MLOAD DUP4 DUP3 ADD MSTORE PUSH1 0x20 ADD PUSH2 0x3172 JUMP JUMPDEST DUP4 DUP2 GT ISZERO PUSH2 0xFF5 JUMPI POP POP PUSH1 0x0 SWAP2 ADD MSTORE JUMP JUMPDEST PUSH1 0x0 DUP2 MLOAD DUP1 DUP5 MSTORE PUSH2 0x31B3 DUP2 PUSH1 0x20 DUP7 ADD PUSH1 0x20 DUP7 ADD PUSH2 0x316F JUMP JUMPDEST PUSH1 0x1F ADD PUSH1 0x1F NOT AND SWAP3 SWAP1 SWAP3 ADD PUSH1 0x20 ADD SWAP3 SWAP2 POP POP JUMP JUMPDEST PUSH1 0x20 DUP2 MSTORE PUSH1 0x0 PUSH2 0x125A PUSH1 0x20 DUP4 ADD DUP5 PUSH2 0x319B JUMP JUMPDEST PUSH1 0x0 PUSH1 0x20 DUP3 DUP5 SUB SLT ISZERO PUSH2 0x31EC JUMPI PUSH1 0x0 DUP1 REVERT JUMPDEST POP CALLDATALOAD SWAP2 SWAP1 POP JUMP JUMPDEST DUP1 CALLDATALOAD PUSH1 0x1 PUSH1 0x1 PUSH1 0xA0 SHL SUB DUP2 AND DUP2 EQ PUSH2 0x320A JUMPI PUSH1 0x0 DUP1 REVERT JUMPDEST SWAP2 SWAP1 POP JUMP JUMPDEST PUSH1 0x0 DUP1 PUSH1 0x40 DUP4 DUP6 SUB SLT ISZERO PUSH2 0x3222 JUMPI PUSH1 0x0 DUP1 REVERT JUMPDEST PUSH2 0x322B DUP4 PUSH2 0x31F3 JUMP JUMPDEST SWAP5 PUSH1 0x20 SWAP4 SWAP1 SWAP4 ADD CALLDATALOAD SWAP4 POP POP POP JUMP JUMPDEST PUSH4 0x4E487B71 PUSH1 0xE0 SHL PUSH1 0x0 MSTORE PUSH1 0x41 PUSH1 0x4 MSTORE PUSH1 0x24 PUSH1 0x0 REVERT JUMPDEST PUSH1 0x0 DUP3 PUSH1 0x1F DUP4 ADD SLT PUSH2 0x3260 JUMPI PUSH1 0x0 DUP1 REVERT JUMPDEST DUP2 CALLDATALOAD PUSH8 0xFFFFFFFFFFFFFFFF DUP1 DUP3 GT ISZERO PUSH2 0x327B JUMPI PUSH2 0x327B PUSH2 0x3239 JUMP JUMPDEST PUSH1 0x40 MLOAD PUSH1 0x1F DUP4 ADD PUSH1 0x1F NOT SWAP1 DUP2 AND PUSH1 0x3F ADD AND DUP2 ADD SWAP1 DUP3 DUP3 GT DUP2 DUP4 LT OR ISZERO PUSH2 0x32A3 JUMPI PUSH2 0x32A3 PUSH2 0x3239 JUMP JUMPDEST DUP2 PUSH1 0x40 MSTORE DUP4 DUP2 MSTORE DUP7 PUSH1 0x20 DUP6 DUP9 ADD ADD GT ISZERO PUSH2 0x32BC JUMPI PUSH1 0x0 DUP1 REVERT JUMPDEST DUP4 PUSH1 0x20 DUP8 ADD PUSH1 0x20 DUP4 ADD CALLDATACOPY PUSH1 0x0 PUSH1 0x20 DUP6 DUP4 ADD ADD MSTORE DUP1 SWAP5 POP POP POP POP POP SWAP3 SWAP2 POP POP JUMP JUMPDEST PUSH1 0x0 DUP1 PUSH1 0x40 DUP4 DUP6 SUB SLT ISZERO PUSH2 0x32EF JUMPI PUSH1 0x0 DUP1 REVERT JUMPDEST DUP3 CALLDATALOAD PUSH8 0xFFFFFFFFFFFFFFFF DUP1 DUP3 GT ISZERO PUSH2 0x3307 JUMPI PUSH1 0x0 DUP1 REVERT JUMPDEST PUSH2 0x3313 DUP7 DUP4 DUP8 ADD PUSH2 0x324F JUMP JUMPDEST SWAP4 POP PUSH1 0x20 DUP6 ADD CALLDATALOAD SWAP2 POP DUP1 DUP3 GT ISZERO PUSH2 0x3329 JUMPI PUSH1 0x0 DUP1 REVERT JUMPDEST POP PUSH2 0x3336 DUP6 DUP3 DUP7 ADD PUSH2 0x324F JUMP JUMPDEST SWAP2 POP POP SWAP3 POP SWAP3 SWAP1 POP JUMP JUMPDEST PUSH1 0x0 DUP1 PUSH1 0x0 PUSH1 0x60 DUP5 DUP7 SUB SLT ISZERO PUSH2 0x3355 JUMPI PUSH1 0x0 DUP1 REVERT JUMPDEST PUSH2 0x335E DUP5 PUSH2 0x31F3 JUMP JUMPDEST SWAP3 POP PUSH2 0x336C PUSH1 0x20 DUP6 ADD PUSH2 0x31F3 JUMP JUMPDEST SWAP2 POP PUSH1 0x40 DUP5 ADD CALLDATALOAD SWAP1 POP SWAP3 POP SWAP3 POP SWAP3 JUMP JUMPDEST PUSH1 0x0 DUP1 PUSH1 0x40 DUP4 DUP6 SUB SLT ISZERO PUSH2 0x338F JUMPI PUSH1 0x0 DUP1 REVERT JUMPDEST DUP3 CALLDATALOAD SWAP2 POP PUSH2 0x339F PUSH1 0x20 DUP5 ADD PUSH2 0x31F3 JUMP JUMPDEST SWAP1 POP SWAP3 POP SWAP3 SWAP1 POP JUMP JUMPDEST PUSH1 0x0 DUP1 PUSH1 0x40 DUP4 DUP6 SUB SLT ISZERO PUSH2 0x33BB JUMPI PUSH1 0x0 DUP1 REVERT JUMPDEST DUP3 CALLDATALOAD SWAP2 POP PUSH1 0x20 DUP4 ADD CALLDATALOAD PUSH8 0xFFFFFFFFFFFFFFFF DUP2 GT ISZERO PUSH2 0x33D9 JUMPI PUSH1 0x0 DUP1 REVERT JUMPDEST PUSH2 0x3336 DUP6 DUP3 DUP7 ADD PUSH2 0x324F JUMP JUMPDEST PUSH1 0x0 DUP1 PUSH1 0x0 PUSH1 0x60 DUP5 DUP7 SUB SLT ISZERO PUSH2 0x33FA JUMPI PUSH1 0x0 DUP1 REVERT JUMPDEST DUP4 CALLDATALOAD SWAP3 POP PUSH1 0x20 DUP5 ADD CALLDATALOAD PUSH8 0xFFFFFFFFFFFFFFFF DUP1 DUP3 GT ISZERO PUSH2 0x3419 JUMPI PUSH1 0x0 DUP1 REVERT JUMPDEST PUSH2 0x3425 DUP8 DUP4 DUP9 ADD PUSH2 0x324F JUMP JUMPDEST SWAP4 POP PUSH1 0x40 DUP7 ADD CALLDATALOAD SWAP2 POP DUP1 DUP3 GT ISZERO PUSH2 0x343B JUMPI PUSH1 0x0 DUP1 REVERT JUMPDEST POP PUSH2 0x3448 DUP7 DUP3 DUP8 ADD PUSH2 0x324F JUMP JUMPDEST SWAP2 POP POP SWAP3 POP SWAP3 POP SWAP3 JUMP JUMPDEST PUSH1 0x0 DUP1 PUSH1 0x0 DUP1 PUSH1 0x80 DUP6 DUP8 SUB SLT ISZERO PUSH2 0x3468 JUMPI PUSH1 0x0 DUP1 REVERT JUMPDEST PUSH2 0x3471 DUP6 PUSH2 0x31F3 JUMP JUMPDEST SWAP4 POP PUSH1 0x20 DUP6 ADD CALLDATALOAD SWAP3 POP PUSH1 0x40 DUP6 ADD CALLDATALOAD PUSH8 0xFFFFFFFFFFFFFFFF DUP1 DUP3 GT ISZERO PUSH2 0x3495 JUMPI PUSH1 0x0 DUP1 REVERT JUMPDEST PUSH2 0x34A1 DUP9 DUP4 DUP10 ADD PUSH2 0x324F JUMP JUMPDEST SWAP4 POP PUSH1 0x60 DUP8 ADD CALLDATALOAD SWAP2 POP DUP1 DUP3 GT ISZERO PUSH2 0x34B7 JUMPI PUSH1 0x0 DUP1 REVERT JUMPDEST POP PUSH2 0x34C4 DUP8 DUP3 DUP9 ADD PUSH2 0x324F JUMP JUMPDEST SWAP2 POP POP SWAP3 SWAP6 SWAP2 SWAP5 POP SWAP3 POP JUMP JUMPDEST PUSH1 0x0 PUSH1 0x20 DUP3 DUP5 SUB SLT ISZERO PUSH2 0x34E2 JUMPI PUSH1 0x0 DUP1 REVERT JUMPDEST PUSH2 0x125A DUP3 PUSH2 0x31F3 JUMP JUMPDEST PUSH1 0x0 PUSH1 0x20 DUP3 DUP5 SUB SLT ISZERO PUSH2 0x34FD JUMPI PUSH1 0x0 DUP1 REVERT JUMPDEST DUP2 CALLDATALOAD PUSH8 0xFFFFFFFFFFFFFFFF DUP2 GT ISZERO PUSH2 0x3514 JUMPI PUSH1 0x0 DUP1 REVERT JUMPDEST PUSH2 0x1CC5 DUP5 DUP3 DUP6 ADD PUSH2 0x324F JUMP JUMPDEST PUSH1 0x0 DUP1 PUSH1 0x40 DUP4 DUP6 SUB SLT ISZERO PUSH2 0x3533 JUMPI PUSH1 0x0 DUP1 REVERT JUMPDEST PUSH2 0x353C DUP4 PUSH2 0x31F3 JUMP JUMPDEST SWAP2 POP PUSH1 0x20 DUP4 ADD CALLDATALOAD DUP1 ISZERO ISZERO DUP2 EQ PUSH2 0x3551 JUMPI PUSH1 0x0 DUP1 REVERT JUMPDEST DUP1 SWAP2 POP POP SWAP3 POP SWAP3 SWAP1 POP JUMP JUMPDEST PUSH1 0x0 DUP1 PUSH1 0x0 PUSH1 0x60 DUP5 DUP7 SUB SLT ISZERO PUSH2 0x3571 JUMPI PUSH1 0x0 DUP1 REVERT JUMPDEST DUP4 CALLDATALOAD SWAP3 POP PUSH1 0x20 DUP5 ADD CALLDATALOAD SWAP2 POP PUSH1 0x40 DUP5 ADD CALLDATALOAD PUSH8 0xFFFFFFFFFFFFFFFF DUP2 GT ISZERO PUSH2 0x3596 JUMPI PUSH1 0x0 DUP1 REVERT JUMPDEST PUSH2 0x3448 DUP7 DUP3 DUP8 ADD PUSH2 0x324F JUMP JUMPDEST PUSH1 0x0 DUP1 PUSH1 0x0 DUP1 PUSH1 0x80 DUP6 DUP8 SUB SLT ISZERO PUSH2 0x35B8 JUMPI PUSH1 0x0 DUP1 REVERT JUMPDEST PUSH2 0x35C1 DUP6 PUSH2 0x31F3 JUMP JUMPDEST SWAP4 POP PUSH2 0x35CF PUSH1 0x20 DUP7 ADD PUSH2 0x31F3 JUMP JUMPDEST SWAP3 POP PUSH1 0x40 DUP6 ADD CALLDATALOAD SWAP2 POP PUSH1 0x60 DUP6 ADD CALLDATALOAD PUSH8 0xFFFFFFFFFFFFFFFF DUP2 GT ISZERO PUSH2 0x35F2 JUMPI PUSH1 0x0 DUP1 REVERT JUMPDEST PUSH2 0x34C4 DUP8 DUP3 DUP9 ADD PUSH2 0x324F JUMP JUMPDEST PUSH1 0x0 DUP1 PUSH1 0x40 DUP4 DUP6 SUB SLT ISZERO PUSH2 0x3611 JUMPI PUSH1 0x0 DUP1 REVERT JUMPDEST PUSH2 0x361A DUP4 PUSH2 0x31F3 JUMP JUMPDEST SWAP2 POP PUSH2 0x339F PUSH1 0x20 DUP5 ADD PUSH2 0x31F3 JUMP JUMPDEST PUSH1 0x1 DUP2 DUP2 SHR SWAP1 DUP3 AND DUP1 PUSH2 0x363C JUMPI PUSH1 0x7F DUP3 AND SWAP2 POP JUMPDEST PUSH1 0x20 DUP3 LT DUP2 SUB PUSH2 0x365C JUMPI PUSH4 0x4E487B71 PUSH1 0xE0 SHL PUSH1 0x0 MSTORE PUSH1 0x22 PUSH1 0x4 MSTORE PUSH1 0x24 PUSH1 0x0 REVERT JUMPDEST POP SWAP2 SWAP1 POP JUMP JUMPDEST PUSH1 0x0 DUP3 MLOAD PUSH2 0x3674 DUP2 DUP5 PUSH1 0x20 DUP8 ADD PUSH2 0x316F JUMP JUMPDEST SWAP2 SWAP1 SWAP2 ADD SWAP3 SWAP2 POP POP JUMP JUMPDEST PUSH1 0x20 DUP1 DUP3 MSTORE PUSH1 0x31 SWAP1 DUP3 ADD MSTORE PUSH32 0x4552433732313A207472616E736665722063616C6C6572206973206E6F74206F PUSH1 0x40 DUP3 ADD MSTORE PUSH17 0x1DDB995C881B9BDC88185C1C1C9BDD9959 PUSH1 0x7A SHL PUSH1 0x60 DUP3 ADD MSTORE PUSH1 0x80 ADD SWAP1 JUMP JUMPDEST PUSH1 0x20 DUP1 DUP3 MSTORE PUSH1 0x3D SWAP1 DUP3 ADD MSTORE PUSH32 0x4552433732315072657365744D696E7465725061757365724175746F49643A20 PUSH1 0x40 DUP3 ADD MSTORE PUSH32 0x6D7573742068617665206D696E74657220726F6C6520746F206D696E74000000 PUSH1 0x60 DUP3 ADD MSTORE PUSH1 0x80 ADD SWAP1 JUMP JUMPDEST PUSH4 0x4E487B71 PUSH1 0xE0 SHL PUSH1 0x0 MSTORE PUSH1 0x32 PUSH1 0x4 MSTORE PUSH1 0x24 PUSH1 0x0 REVERT JUMPDEST PUSH1 0x20 DUP1 DUP3 MSTORE PUSH1 0x27 SWAP1 DUP3 ADD MSTORE PUSH32 0x45524337323150726573657441646D696E3A206D75737420686176652061646D PUSH1 0x40 DUP3 ADD MSTORE PUSH7 0x696E20726F6C65 PUSH1 0xC8 SHL PUSH1 0x60 DUP3 ADD MSTORE PUSH1 0x80 ADD SWAP1 JUMP JUMPDEST PUSH1 0x0 DUP4 MLOAD PUSH2 0x379B DUP2 DUP5 PUSH1 0x20 DUP9 ADD PUSH2 0x316F JUMP JUMPDEST DUP4 MLOAD SWAP1 DUP4 ADD SWAP1 PUSH2 0x37AF DUP2 DUP4 PUSH1 0x20 DUP9 ADD PUSH2 0x316F JUMP JUMPDEST ADD SWAP5 SWAP4 POP POP POP POP JUMP JUMPDEST PUSH4 0x4E487B71 PUSH1 0xE0 SHL PUSH1 0x0 MSTORE PUSH1 0x11 PUSH1 0x4 MSTORE PUSH1 0x24 PUSH1 0x0 REVERT JUMPDEST PUSH1 0x0 PUSH1 0x1 DUP3 ADD PUSH2 0x37E0 JUMPI PUSH2 0x37E0 PUSH2 0x37B8 JUMP JUMPDEST POP PUSH1 0x1 ADD SWAP1 JUMP JUMPDEST PUSH1 0x0 DUP3 DUP3 LT ISZERO PUSH2 0x37F9 JUMPI PUSH2 0x37F9 PUSH2 0x37B8 JUMP JUMPDEST POP SUB SWAP1 JUMP JUMPDEST PUSH1 0x0 DUP3 NOT DUP3 GT ISZERO PUSH2 0x3811 JUMPI PUSH2 0x3811 PUSH2 0x37B8 JUMP JUMPDEST POP ADD SWAP1 JUMP JUMPDEST PUSH1 0x0 PUSH1 0x20 DUP3 DUP5 SUB SLT ISZERO PUSH2 0x3828 JUMPI PUSH1 0x0 DUP1 REVERT JUMPDEST POP MLOAD SWAP2 SWAP1 POP JUMP JUMPDEST PUSH1 0x20 DUP1 DUP3 MSTORE PUSH1 0x32 SWAP1 DUP3 ADD MSTORE PUSH32 0x4552433732313A207472616E7366657220746F206E6F6E204552433732315265 PUSH1 0x40 DUP3 ADD MSTORE PUSH18 0x31B2B4BB32B91034B6B83632B6B2B73A32B9 PUSH1 0x71 SHL PUSH1 0x60 DUP3 ADD MSTORE PUSH1 0x80 ADD SWAP1 JUMP JUMPDEST PUSH4 0x4E487B71 PUSH1 0xE0 SHL PUSH1 0x0 MSTORE PUSH1 0x12 PUSH1 0x4 MSTORE PUSH1 0x24 PUSH1 0x0 REVERT JUMPDEST PUSH1 0x0 DUP3 PUSH2 0x38A6 JUMPI PUSH2 0x38A6 PUSH2 0x3881 JUMP JUMPDEST POP DIV SWAP1 JUMP JUMPDEST PUSH1 0x0 DUP3 PUSH2 0x38BA JUMPI PUSH2 0x38BA PUSH2 0x3881 JUMP JUMPDEST POP MOD SWAP1 JUMP JUMPDEST PUSH1 0x0 PUSH1 0xFF DUP3 AND PUSH1 0xFF DUP5 AND DUP1 DUP3 LT ISZERO PUSH2 0x38D9 JUMPI PUSH2 0x38D9 PUSH2 0x37B8 JUMP JUMPDEST SWAP1 SUB SWAP4 SWAP3 POP POP POP JUMP JUMPDEST PUSH32 0x416363657373436F6E74726F6C3A206163636F756E7420000000000000000000 DUP2 MSTORE PUSH1 0x0 DUP4 MLOAD PUSH2 0x391A DUP2 PUSH1 0x17 DUP6 ADD PUSH1 0x20 DUP9 ADD PUSH2 0x316F JUMP JUMPDEST PUSH17 0x1034B99036B4B9B9B4B733903937B6329 PUSH1 0x7D SHL PUSH1 0x17 SWAP2 DUP5 ADD SWAP2 DUP3 ADD MSTORE DUP4 MLOAD PUSH2 0x394B DUP2 PUSH1 0x28 DUP5 ADD PUSH1 0x20 DUP9 ADD PUSH2 0x316F JUMP JUMPDEST ADD PUSH1 0x28 ADD SWAP5 SWAP4 POP POP POP POP JUMP JUMPDEST PUSH4 0x4E487B71 PUSH1 0xE0 SHL PUSH1 0x0 MSTORE PUSH1 0x31 PUSH1 0x4 MSTORE PUSH1 0x24 PUSH1 0x0 REVERT JUMPDEST PUSH4 0x4E487B71 PUSH1 0xE0 SHL PUSH1 0x0 MSTORE PUSH1 0x21 PUSH1 0x4 MSTORE PUSH1 0x24 PUSH1 0x0 REVERT JUMPDEST DUP3 DUP2 MSTORE PUSH1 0x40 PUSH1 0x20 DUP3 ADD MSTORE PUSH1 0x0 PUSH2 0x1CC5 PUSH1 0x40 DUP4 ADD DUP5 PUSH2 0x319B JUMP JUMPDEST PUSH1 0x0 PUSH1 0x20 DUP3 DUP5 SUB SLT ISZERO PUSH2 0x39AE JUMPI PUSH1 0x0 DUP1 REVERT JUMPDEST DUP2 MLOAD PUSH2 0x125A DUP2 PUSH2 0x311A JUMP JUMPDEST PUSH1 0x1 PUSH1 0x1 PUSH1 0xA0 SHL SUB DUP6 DUP2 AND DUP3 MSTORE DUP5 AND PUSH1 0x20 DUP3 ADD MSTORE PUSH1 0x40 DUP2 ADD DUP4 SWAP1 MSTORE PUSH1 0x80 PUSH1 0x60 DUP3 ADD DUP2 SWAP1 MSTORE PUSH1 0x0 SWAP1 PUSH2 0x235B SWAP1 DUP4 ADD DUP5 PUSH2 0x319B JUMP JUMPDEST PUSH1 0x0 DUP2 PUSH1 0x0 NOT DIV DUP4 GT DUP3 ISZERO ISZERO AND ISZERO PUSH2 0x3A06 JUMPI PUSH2 0x3A06 PUSH2 0x37B8 JUMP JUMPDEST POP MUL SWAP1 JUMP JUMPDEST PUSH1 0x0 DUP2 PUSH2 0x3A1A JUMPI PUSH2 0x3A1A PUSH2 0x37B8 JUMP JUMPDEST POP PUSH1 0x0 NOT ADD SWAP1 JUMP INVALID LOG2 PUSH5 0x6970667358 0x22 SLT KECCAK256 0xE7 KECCAK256 SWAP4 SWAP11 0x49 0xE0 0xE4 LOG4 0xCE 0x29 0xB8 GASPRICE PUSH30 0xC3BD0DA69F6DA6B442BCE6E57C5A0F934C6D1C64736F6C634300080D0033 "
		},
		"gasEstimates": {
			"creation": {
				"codeDepositCost": "2987200",
				"executionCost": "infinite",
				"totalCost": "infinite"
			},
			"external": {
				"DEFAULT_ADMIN_ROLE()": "285",
				"MINTER_ROLE()": "328",
				"PAUSER_ROLE()": "284",
				"approve(address,uint256)": "infinite",
				"balanceOf(address)": "2700",
				"burn(uint256)": "infinite",
				"claimToken(uint256,uint256,bytes)": "infinite",
				"contractURI()": "infinite",
				"getApproved(uint256)": "4805",
				"getBaseTokenURI()": "infinite",
				"getBiggestTokenIdNum()": "2425",
				"getClaimTokenSignature(uint256,uint256)": "556",
				"getCustomParam(string)": "infinite",
				"getExternalId(uint256,string)": "infinite",
				"getMetadata(uint256,string)": "infinite",
				"getNFC(uint256)": "infinite",
				"getRoleAdmin(bytes32)": "2540",
				"getRoleMember(bytes32,uint256)": "infinite",
				"getRoleMemberCount(bytes32)": "infinite",
				"getTokenIdFromExternalId(string,string)": "infinite",
				"getTokenIdFromNFC(string)": "infinite",
				"grantRole(bytes32,address)": "infinite",
				"hasRole(bytes32,address)": "2810",
				"isApprovedForAll(address,address)": "infinite",
				"mint(address,uint256)": "infinite",
				"mintWithExternalId(address,uint256,string,string)": "infinite",
				"name()": "infinite",
				"owner()": "2443",
				"ownerOf(uint256)": "2668",
				"pause()": "30017",
				"paused()": "2383",
				"renounceOwnership()": "28160",
				"renounceRole(bytes32,address)": "infinite",
				"revokeRole(bytes32,address)": "infinite",
				"safeTransferFrom(address,address,uint256)": "infinite",
				"safeTransferFrom(address,address,uint256,bytes)": "infinite",
				"setApprovalForAll(address,bool)": "26737",
				"setCustomParam(string,string)": "infinite",
				"setExternalId(uint256,string,string)": "infinite",
				"setMetadata(uint256,string,string)": "infinite",
				"setNFC(uint256,string)": "infinite",
				"supportsInterface(bytes4)": "infinite",
				"symbol()": "infinite",
				"tokenByIndex(uint256)": "6871",
				"tokenOfOwnerByIndex(address,uint256)": "5064",
				"tokenURI(uint256)": "infinite",
				"totalSupply()": "2338",
				"transferFrom(address,address,uint256)": "infinite",
				"transferOwnership(address)": "28397",
				"unpause()": "29972",
				"usedNonces(address,uint256)": "2702"
			},
			"internal": {
				"_baseURI()": "infinite",
				"_beforeTokenTransfer(address,address,uint256)": "infinite"
			}
		},
		"methodIdentifiers": {
			"DEFAULT_ADMIN_ROLE()": "a217fddf",
			"MINTER_ROLE()": "d5391393",
			"PAUSER_ROLE()": "e63ab1e9",
			"approve(address,uint256)": "095ea7b3",
			"balanceOf(address)": "70a08231",
			"burn(uint256)": "42966c68",
			"claimToken(uint256,uint256,bytes)": "b68e6fea",
			"contractURI()": "e8a3d485",
			"getApproved(uint256)": "081812fc",
			"getBaseTokenURI()": "bdc32be0",
			"getBiggestTokenIdNum()": "710db424",
			"getClaimTokenSignature(uint256,uint256)": "0597c000",
			"getCustomParam(string)": "8441ad79",
			"getExternalId(uint256,string)": "36532aad",
			"getMetadata(uint256,string)": "cb4799f2",
			"getNFC(uint256)": "dcf7a9c8",
			"getRoleAdmin(bytes32)": "248a9ca3",
			"getRoleMember(bytes32,uint256)": "9010d07c",
			"getRoleMemberCount(bytes32)": "ca15c873",
			"getTokenIdFromExternalId(string,string)": "14d73ad5",
			"getTokenIdFromNFC(string)": "fbd420c7",
			"grantRole(bytes32,address)": "2f2ff15d",
			"hasRole(bytes32,address)": "91d14854",
			"isApprovedForAll(address,address)": "e985e9c5",
			"mint(address,uint256)": "40c10f19",
			"mintWithExternalId(address,uint256,string,string)": "6768f0b6",
			"name()": "06fdde03",
			"owner()": "8da5cb5b",
			"ownerOf(uint256)": "6352211e",
			"pause()": "8456cb59",
			"paused()": "5c975abb",
			"renounceOwnership()": "715018a6",
			"renounceRole(bytes32,address)": "36568abe",
			"revokeRole(bytes32,address)": "d547741f",
			"safeTransferFrom(address,address,uint256)": "42842e0e",
			"safeTransferFrom(address,address,uint256,bytes)": "b88d4fde",
			"setApprovalForAll(address,bool)": "a22cb465",
			"setCustomParam(string,string)": "bb32520b",
			"setExternalId(uint256,string,string)": "b705bc2d",
			"setMetadata(uint256,string,string)": "59f9f50f",
			"setNFC(uint256,string)": "fc1901ba",
			"supportsInterface(bytes4)": "01ffc9a7",
			"symbol()": "95d89b41",
			"tokenByIndex(uint256)": "4f6ccce7",
			"tokenOfOwnerByIndex(address,uint256)": "2f745c59",
			"tokenURI(uint256)": "c87b56dd",
			"totalSupply()": "18160ddd",
			"transferFrom(address,address,uint256)": "23b872dd",
			"transferOwnership(address)": "f2fde38b",
			"unpause()": "3f4ba83a",
			"usedNonces(address,uint256)": "6a8a6894"
		}
	},
	"abi": [
		{
			"inputs": [
				{
					"internalType": "string",
					"name": "name",
					"type": "string"
				},
				{
					"internalType": "string",
					"name": "symbol",
					"type": "string"
				},
				{
					"internalType": "string",
					"name": "baseTokenURI",
					"type": "string"
				},
				{
					"internalType": "string",
					"name": "baseContractURI",
					"type": "string"
				}
			],
			"stateMutability": "nonpayable",
			"type": "constructor"
		},
		{
			"anonymous": false,
			"inputs": [
				{
					"indexed": true,
					"internalType": "address",
					"name": "owner",
					"type": "address"
				},
				{
					"indexed": true,
					"internalType": "address",
					"name": "approved",
					"type": "address"
				},
				{
					"indexed": true,
					"internalType": "uint256",
					"name": "tokenId",
					"type": "uint256"
				}
			],
			"name": "Approval",
			"type": "event"
		},
		{
			"anonymous": false,
			"inputs": [
				{
					"indexed": true,
					"internalType": "address",
					"name": "owner",
					"type": "address"
				},
				{
					"indexed": true,
					"internalType": "address",
					"name": "operator",
					"type": "address"
				},
				{
					"indexed": false,
					"internalType": "bool",
					"name": "approved",
					"type": "bool"
				}
			],
			"name": "ApprovalForAll",
			"type": "event"
		},
		{
			"anonymous": false,
			"inputs": [
				{
					"indexed": true,
					"internalType": "address",
					"name": "previousOwner",
					"type": "address"
				},
				{
					"indexed": true,
					"internalType": "address",
					"name": "newOwner",
					"type": "address"
				}
			],
			"name": "OwnershipTransferred",
			"type": "event"
		},
		{
			"anonymous": false,
			"inputs": [
				{
					"indexed": false,
					"internalType": "address",
					"name": "account",
					"type": "address"
				}
			],
			"name": "Paused",
			"type": "event"
		},
		{
			"anonymous": false,
			"inputs": [
				{
					"indexed": true,
					"internalType": "bytes32",
					"name": "role",
					"type": "bytes32"
				},
				{
					"indexed": true,
					"internalType": "bytes32",
					"name": "previousAdminRole",
					"type": "bytes32"
				},
				{
					"indexed": true,
					"internalType": "bytes32",
					"name": "newAdminRole",
					"type": "bytes32"
				}
			],
			"name": "RoleAdminChanged",
			"type": "event"
		},
		{
			"anonymous": false,
			"inputs": [
				{
					"indexed": true,
					"internalType": "bytes32",
					"name": "role",
					"type": "bytes32"
				},
				{
					"indexed": true,
					"internalType": "address",
					"name": "account",
					"type": "address"
				},
				{
					"indexed": true,
					"internalType": "address",
					"name": "sender",
					"type": "address"
				}
			],
			"name": "RoleGranted",
			"type": "event"
		},
		{
			"anonymous": false,
			"inputs": [
				{
					"indexed": true,
					"internalType": "bytes32",
					"name": "role",
					"type": "bytes32"
				},
				{
					"indexed": true,
					"internalType": "address",
					"name": "account",
					"type": "address"
				},
				{
					"indexed": true,
					"internalType": "address",
					"name": "sender",
					"type": "address"
				}
			],
			"name": "RoleRevoked",
			"type": "event"
		},
		{
			"anonymous": false,
			"inputs": [
				{
					"indexed": true,
					"internalType": "string",
					"name": "customParamName",
					"type": "string"
				},
				{
					"indexed": true,
					"internalType": "string",
					"name": "customParamValue",
					"type": "string"
				}
			],
			"name": "SetCustomParam",
			"type": "event"
		},
		{
			"anonymous": false,
			"inputs": [
				{
					"indexed": true,
					"internalType": "uint256",
					"name": "tokenId",
					"type": "uint256"
				},
				{
					"indexed": true,
					"internalType": "string",
					"name": "sensorName",
					"type": "string"
				},
				{
					"indexed": true,
					"internalType": "string",
					"name": "externalIdValue",
					"type": "string"
				}
			],
			"name": "SetExternalId",
			"type": "event"
		},
		{
			"anonymous": false,
			"inputs": [
				{
					"indexed": true,
					"internalType": "uint256",
					"name": "tokenId",
					"type": "uint256"
				},
				{
					"indexed": true,
					"internalType": "string",
					"name": "sensorName",
					"type": "string"
				},
				{
					"indexed": true,
					"internalType": "string",
					"name": "metadataValue",
					"type": "string"
				}
			],
			"name": "SetMetadata",
			"type": "event"
		},
		{
			"anonymous": false,
			"inputs": [
				{
					"indexed": true,
					"internalType": "address",
					"name": "from",
					"type": "address"
				},
				{
					"indexed": true,
					"internalType": "address",
					"name": "to",
					"type": "address"
				},
				{
					"indexed": true,
					"internalType": "uint256",
					"name": "tokenId",
					"type": "uint256"
				}
			],
			"name": "Transfer",
			"type": "event"
		},
		{
			"anonymous": false,
			"inputs": [
				{
					"indexed": false,
					"internalType": "address",
					"name": "account",
					"type": "address"
				}
			],
			"name": "Unpaused",
			"type": "event"
		},
		{
			"inputs": [],
			"name": "DEFAULT_ADMIN_ROLE",
			"outputs": [
				{
					"internalType": "bytes32",
					"name": "",
					"type": "bytes32"
				}
			],
			"stateMutability": "view",
			"type": "function"
		},
		{
			"inputs": [],
			"name": "MINTER_ROLE",
			"outputs": [
				{
					"internalType": "bytes32",
					"name": "",
					"type": "bytes32"
				}
			],
			"stateMutability": "view",
			"type": "function"
		},
		{
			"inputs": [],
			"name": "PAUSER_ROLE",
			"outputs": [
				{
					"internalType": "bytes32",
					"name": "",
					"type": "bytes32"
				}
			],
			"stateMutability": "view",
			"type": "function"
		},
		{
			"inputs": [
				{
					"internalType": "address",
					"name": "to",
					"type": "address"
				},
				{
					"internalType": "uint256",
					"name": "tokenId",
					"type": "uint256"
				}
			],
			"name": "approve",
			"outputs": [],
			"stateMutability": "nonpayable",
			"type": "function"
		},
		{
			"inputs": [
				{
					"internalType": "address",
					"name": "owner",
					"type": "address"
				}
			],
			"name": "balanceOf",
			"outputs": [
				{
					"internalType": "uint256",
					"name": "",
					"type": "uint256"
				}
			],
			"stateMutability": "view",
			"type": "function"
		},
		{
			"inputs": [
				{
					"internalType": "uint256",
					"name": "tokenId",
					"type": "uint256"
				}
			],
			"name": "burn",
			"outputs": [],
			"stateMutability": "nonpayable",
			"type": "function"
		},
		{
			"inputs": [
				{
					"internalType": "uint256",
					"name": "tokenId",
					"type": "uint256"
				},
				{
					"internalType": "uint256",
					"name": "nonce",
					"type": "uint256"
				},
				{
					"internalType": "bytes",
					"name": "sig",
					"type": "bytes"
				}
			],
			"name": "claimToken",
			"outputs": [],
			"stateMutability": "nonpayable",
			"type": "function"
		},
		{
			"inputs": [],
			"name": "contractURI",
			"outputs": [
				{
					"internalType": "string",
					"name": "",
					"type": "string"
				}
			],
			"stateMutability": "view",
			"type": "function"
		},
		{
			"inputs": [
				{
					"internalType": "uint256",
					"name": "tokenId",
					"type": "uint256"
				}
			],
			"name": "getApproved",
			"outputs": [
				{
					"internalType": "address",
					"name": "",
					"type": "address"
				}
			],
			"stateMutability": "view",
			"type": "function"
		},
		{
			"inputs": [],
			"name": "getBaseTokenURI",
			"outputs": [
				{
					"internalType": "string",
					"name": "",
					"type": "string"
				}
			],
			"stateMutability": "view",
			"type": "function"
		},
		{
			"inputs": [],
			"name": "getBiggestTokenIdNum",
			"outputs": [
				{
					"internalType": "uint256",
					"name": "",
					"type": "uint256"
				}
			],
			"stateMutability": "view",
			"type": "function"
		},
		{
			"inputs": [
				{
					"internalType": "uint256",
					"name": "_tokenId",
					"type": "uint256"
				},
				{
					"internalType": "uint256",
					"name": "_nonce",
					"type": "uint256"
				}
			],
			"name": "getClaimTokenSignature",
			"outputs": [
				{
					"internalType": "bytes32",
					"name": "",
					"type": "bytes32"
				}
			],
			"stateMutability": "pure",
			"type": "function"
		},
		{
			"inputs": [
				{
					"internalType": "string",
					"name": "customParamName",
					"type": "string"
				}
			],
			"name": "getCustomParam",
			"outputs": [
				{
					"internalType": "string",
					"name": "",
					"type": "string"
				}
			],
			"stateMutability": "view",
			"type": "function"
		},
		{
			"inputs": [
				{
					"internalType": "uint256",
					"name": "tokenId",
					"type": "uint256"
				},
				{
					"internalType": "string",
					"name": "externalIdName",
					"type": "string"
				}
			],
			"name": "getExternalId",
			"outputs": [
				{
					"internalType": "string",
					"name": "",
					"type": "string"
				}
			],
			"stateMutability": "view",
			"type": "function"
		},
		{
			"inputs": [
				{
					"internalType": "uint256",
					"name": "tokenId",
					"type": "uint256"
				},
				{
					"internalType": "string",
					"name": "metadataName",
					"type": "string"
				}
			],
			"name": "getMetadata",
			"outputs": [
				{
					"internalType": "string",
					"name": "",
					"type": "string"
				}
			],
			"stateMutability": "view",
			"type": "function"
		},
		{
			"inputs": [
				{
					"internalType": "uint256",
					"name": "tokenId",
					"type": "uint256"
				}
			],
			"name": "getNFC",
			"outputs": [
				{
					"internalType": "string",
					"name": "",
					"type": "string"
				}
			],
			"stateMutability": "view",
			"type": "function"
		},
		{
			"inputs": [
				{
					"internalType": "bytes32",
					"name": "role",
					"type": "bytes32"
				}
			],
			"name": "getRoleAdmin",
			"outputs": [
				{
					"internalType": "bytes32",
					"name": "",
					"type": "bytes32"
				}
			],
			"stateMutability": "view",
			"type": "function"
		},
		{
			"inputs": [
				{
					"internalType": "bytes32",
					"name": "role",
					"type": "bytes32"
				},
				{
					"internalType": "uint256",
					"name": "index",
					"type": "uint256"
				}
			],
			"name": "getRoleMember",
			"outputs": [
				{
					"internalType": "address",
					"name": "",
					"type": "address"
				}
			],
			"stateMutability": "view",
			"type": "function"
		},
		{
			"inputs": [
				{
					"internalType": "bytes32",
					"name": "role",
					"type": "bytes32"
				}
			],
			"name": "getRoleMemberCount",
			"outputs": [
				{
					"internalType": "uint256",
					"name": "",
					"type": "uint256"
				}
			],
			"stateMutability": "view",
			"type": "function"
		},
		{
			"inputs": [
				{
					"internalType": "string",
					"name": "externalIdName",
					"type": "string"
				},
				{
					"internalType": "string",
					"name": "externalIdValue",
					"type": "string"
				}
			],
			"name": "getTokenIdFromExternalId",
			"outputs": [
				{
					"internalType": "uint256",
					"name": "",
					"type": "uint256"
				}
			],
			"stateMutability": "view",
			"type": "function"
		},
		{
			"inputs": [
				{
					"internalType": "string",
					"name": "externalIdValue",
					"type": "string"
				}
			],
			"name": "getTokenIdFromNFC",
			"outputs": [
				{
					"internalType": "uint256",
					"name": "",
					"type": "uint256"
				}
			],
			"stateMutability": "view",
			"type": "function"
		},
		{
			"inputs": [
				{
					"internalType": "bytes32",
					"name": "role",
					"type": "bytes32"
				},
				{
					"internalType": "address",
					"name": "account",
					"type": "address"
				}
			],
			"name": "grantRole",
			"outputs": [],
			"stateMutability": "nonpayable",
			"type": "function"
		},
		{
			"inputs": [
				{
					"internalType": "bytes32",
					"name": "role",
					"type": "bytes32"
				},
				{
					"internalType": "address",
					"name": "account",
					"type": "address"
				}
			],
			"name": "hasRole",
			"outputs": [
				{
					"internalType": "bool",
					"name": "",
					"type": "bool"
				}
			],
			"stateMutability": "view",
			"type": "function"
		},
		{
			"inputs": [
				{
					"internalType": "address",
					"name": "owner",
					"type": "address"
				},
				{
					"internalType": "address",
					"name": "operator",
					"type": "address"
				}
			],
			"name": "isApprovedForAll",
			"outputs": [
				{
					"internalType": "bool",
					"name": "",
					"type": "bool"
				}
			],
			"stateMutability": "view",
			"type": "function"
		},
		{
			"inputs": [
				{
					"internalType": "address",
					"name": "to",
					"type": "address"
				},
				{
					"internalType": "uint256",
					"name": "tokenId",
					"type": "uint256"
				}
			],
			"name": "mint",
			"outputs": [],
			"stateMutability": "nonpayable",
			"type": "function"
		},
		{
			"inputs": [
				{
					"internalType": "address",
					"name": "to",
					"type": "address"
				},
				{
					"internalType": "uint256",
					"name": "tokenId",
					"type": "uint256"
				},
				{
					"internalType": "string",
					"name": "externalIdName",
					"type": "string"
				},
				{
					"internalType": "string",
					"name": "externalIdValue",
					"type": "string"
				}
			],
			"name": "mintWithExternalId",
			"outputs": [],
			"stateMutability": "nonpayable",
			"type": "function"
		},
		{
			"inputs": [],
			"name": "name",
			"outputs": [
				{
					"internalType": "string",
					"name": "",
					"type": "string"
				}
			],
			"stateMutability": "view",
			"type": "function"
		},
		{
			"inputs": [],
			"name": "owner",
			"outputs": [
				{
					"internalType": "address",
					"name": "",
					"type": "address"
				}
			],
			"stateMutability": "view",
			"type": "function"
		},
		{
			"inputs": [
				{
					"internalType": "uint256",
					"name": "tokenId",
					"type": "uint256"
				}
			],
			"name": "ownerOf",
			"outputs": [
				{
					"internalType": "address",
					"name": "",
					"type": "address"
				}
			],
			"stateMutability": "view",
			"type": "function"
		},
		{
			"inputs": [],
			"name": "pause",
			"outputs": [],
			"stateMutability": "nonpayable",
			"type": "function"
		},
		{
			"inputs": [],
			"name": "paused",
			"outputs": [
				{
					"internalType": "bool",
					"name": "",
					"type": "bool"
				}
			],
			"stateMutability": "view",
			"type": "function"
		},
		{
			"inputs": [],
			"name": "renounceOwnership",
			"outputs": [],
			"stateMutability": "nonpayable",
			"type": "function"
		},
		{
			"inputs": [
				{
					"internalType": "bytes32",
					"name": "role",
					"type": "bytes32"
				},
				{
					"internalType": "address",
					"name": "account",
					"type": "address"
				}
			],
			"name": "renounceRole",
			"outputs": [],
			"stateMutability": "nonpayable",
			"type": "function"
		},
		{
			"inputs": [
				{
					"internalType": "bytes32",
					"name": "role",
					"type": "bytes32"
				},
				{
					"internalType": "address",
					"name": "account",
					"type": "address"
				}
			],
			"name": "revokeRole",
			"outputs": [],
			"stateMutability": "nonpayable",
			"type": "function"
		},
		{
			"inputs": [
				{
					"internalType": "address",
					"name": "from",
					"type": "address"
				},
				{
					"internalType": "address",
					"name": "to",
					"type": "address"
				},
				{
					"internalType": "uint256",
					"name": "tokenId",
					"type": "uint256"
				}
			],
			"name": "safeTransferFrom",
			"outputs": [],
			"stateMutability": "nonpayable",
			"type": "function"
		},
		{
			"inputs": [
				{
					"internalType": "address",
					"name": "from",
					"type": "address"
				},
				{
					"internalType": "address",
					"name": "to",
					"type": "address"
				},
				{
					"internalType": "uint256",
					"name": "tokenId",
					"type": "uint256"
				},
				{
					"internalType": "bytes",
					"name": "_data",
					"type": "bytes"
				}
			],
			"name": "safeTransferFrom",
			"outputs": [],
			"stateMutability": "nonpayable",
			"type": "function"
		},
		{
			"inputs": [
				{
					"internalType": "address",
					"name": "operator",
					"type": "address"
				},
				{
					"internalType": "bool",
					"name": "approved",
					"type": "bool"
				}
			],
			"name": "setApprovalForAll",
			"outputs": [],
			"stateMutability": "nonpayable",
			"type": "function"
		},
		{
			"inputs": [
				{
					"internalType": "string",
					"name": "customParamName",
					"type": "string"
				},
				{
					"internalType": "string",
					"name": "customParamValue",
					"type": "string"
				}
			],
			"name": "setCustomParam",
			"outputs": [],
			"stateMutability": "nonpayable",
			"type": "function"
		},
		{
			"inputs": [
				{
					"internalType": "uint256",
					"name": "tokenId",
					"type": "uint256"
				},
				{
					"internalType": "string",
					"name": "externalIdName",
					"type": "string"
				},
				{
					"internalType": "string",
					"name": "externalIdValue",
					"type": "string"
				}
			],
			"name": "setExternalId",
			"outputs": [],
			"stateMutability": "nonpayable",
			"type": "function"
		},
		{
			"inputs": [
				{
					"internalType": "uint256",
					"name": "tokenId",
					"type": "uint256"
				},
				{
					"internalType": "string",
					"name": "metadataName",
					"type": "string"
				},
				{
					"internalType": "string",
					"name": "metadataValue",
					"type": "string"
				}
			],
			"name": "setMetadata",
			"outputs": [],
			"stateMutability": "nonpayable",
			"type": "function"
		},
		{
			"inputs": [
				{
					"internalType": "uint256",
					"name": "tokenId",
					"type": "uint256"
				},
				{
					"internalType": "string",
					"name": "externalIdValue",
					"type": "string"
				}
			],
			"name": "setNFC",
			"outputs": [],
			"stateMutability": "nonpayable",
			"type": "function"
		},
		{
			"inputs": [
				{
					"internalType": "bytes4",
					"name": "interfaceId",
					"type": "bytes4"
				}
			],
			"name": "supportsInterface",
			"outputs": [
				{
					"internalType": "bool",
					"name": "",
					"type": "bool"
				}
			],
			"stateMutability": "view",
			"type": "function"
		},
		{
			"inputs": [],
			"name": "symbol",
			"outputs": [
				{
					"internalType": "string",
					"name": "",
					"type": "string"
				}
			],
			"stateMutability": "view",
			"type": "function"
		},
		{
			"inputs": [
				{
					"internalType": "uint256",
					"name": "index",
					"type": "uint256"
				}
			],
			"name": "tokenByIndex",
			"outputs": [
				{
					"internalType": "uint256",
					"name": "",
					"type": "uint256"
				}
			],
			"stateMutability": "view",
			"type": "function"
		},
		{
			"inputs": [
				{
					"internalType": "address",
					"name": "owner",
					"type": "address"
				},
				{
					"internalType": "uint256",
					"name": "index",
					"type": "uint256"
				}
			],
			"name": "tokenOfOwnerByIndex",
			"outputs": [
				{
					"internalType": "uint256",
					"name": "",
					"type": "uint256"
				}
			],
			"stateMutability": "view",
			"type": "function"
		},
		{
			"inputs": [
				{
					"internalType": "uint256",
					"name": "tokenId",
					"type": "uint256"
				}
			],
			"name": "tokenURI",
			"outputs": [
				{
					"internalType": "string",
					"name": "",
					"type": "string"
				}
			],
			"stateMutability": "view",
			"type": "function"
		},
		{
			"inputs": [],
			"name": "totalSupply",
			"outputs": [
				{
					"internalType": "uint256",
					"name": "",
					"type": "uint256"
				}
			],
			"stateMutability": "view",
			"type": "function"
		},
		{
			"inputs": [
				{
					"internalType": "address",
					"name": "from",
					"type": "address"
				},
				{
					"internalType": "address",
					"name": "to",
					"type": "address"
				},
				{
					"internalType": "uint256",
					"name": "tokenId",
					"type": "uint256"
				}
			],
			"name": "transferFrom",
			"outputs": [],
			"stateMutability": "nonpayable",
			"type": "function"
		},
		{
			"inputs": [
				{
					"internalType": "address",
					"name": "newOwner",
					"type": "address"
				}
			],
			"name": "transferOwnership",
			"outputs": [],
			"stateMutability": "nonpayable",
			"type": "function"
		},
		{
			"inputs": [],
			"name": "unpause",
			"outputs": [],
			"stateMutability": "nonpayable",
			"type": "function"
		},
		{
			"inputs": [
				{
					"internalType": "address",
					"name": "",
					"type": "address"
				},
				{
					"internalType": "uint256",
					"name": "",
					"type": "uint256"
				}
			],
			"name": "usedNonces",
			"outputs": [
				{
					"internalType": "bool",
					"name": "",
					"type": "bool"
				}
			],
			"stateMutability": "view",
			"type": "function"
		}
	]
}